:10000000F8FF002011040000BBFB0000BBFB000058
:10001000BBFB0000BBFB0000BBFB0000BBFB000008
:10002000BBFB0000BBFB0000BBFB0000BBFB0000F8
:10003000BBFB0000BBFB0000BBFB0000BBFB0000E8
:10004000BBFB0000BBFB0000BBFB0000BBFB0000D8
:10040000FFFFFFFFFFFFFFFFFFFFFFFFFEFFFFFFFD
:1004100062B615F093FFFEE70000100020003000E8
:1004200040005000600000000000280032003C0046
:10043000460050005A0000000600050004000300BA
:100440000200010000000500050004000300020096
:10045000010000000400040003000200010001008C
:10046000000003000300030002000100010000007F
:100470000200020002000100010000000000020072
:100480000100010000000000000000000100010068
:100490000000000000000000000000009804FF1FA2
:1004A000460042003E003B003800350032000000AC
:1004B00000001000200030004000500060000000EC
:1004C0000000280032003C00460050005A000000A6
:1004D0000600050004000300020001000000050002
:1004E00005000400030002000100000004000400F5
:1004F00003000200010001000000030003000300EC
:1005000002000100010000000200020002000100E0
:1005100001000000000002000100010000000000D6
:1005200000000000010001000000000000000000C9
:10053000000000003005FF1F190017001500110012
:100540000E000C000A000000000010002000300027
:1005500040005000600000000000280032003C0015
:10056000460050005A000000060005000400030089
:100570000200010000000500050004000300020065
:10058000010000000400040003000200010001005B
:10059000000003000300030002000100010000004E
:1005A0000200020002000100010000000000020041
:1005B0000100010000000000000000000100010037
:1005C000000000000000000000000000C805FF1F40
:1005D000D200D700EB0004011801450163010000BF
:1005E000000000000000000000000000000000000B
:1005F00000000000000000000000320000000100C8
:100600000A000000000000000000000000000000E0
:1006100000000000000000000000000000000000DA
:1006200000004E6F6E4D61736B61626C650000007F
:1006300000486172644661756C740000000000003F
:100640004D656D4D616E6167656D656E740000424C
:1006500075734661756C74000000000000005573EE
:100660006167654661756C74000000000000000061
:10067000000000000000000000000000000000007A
:10068000000000000000000000000000000000006A
:10069000000000000000000000000000000000005A
:1006A000000000000000000000535643616C6C0025
:1006B000000000000000000044656275674D6F6E29
:1006C00069746F720000000000000000000000006C
:1006D00000000000000050656E64535600000000EA
:1006E00000000000005379735469636B0000000040
:1006F00000000000444D41300000000000000000F8
:10070000000000444D4131000000000000000000E6
:100710000000444D413200000000000000000000D5
:1007200000444D41330000000000000000000000C4
:10073000444D41340000000000000000000000446F
:100740004D41350000000000000000000000444D55
:1007500041360000000000000000000000444D4150
:10076000370000000000000000000000444D413848
:100770000000000000000000000000444D4139006E
:1007800000000000000000000000444D4131300036
:10079000000000000000000000444D413131000025
:1007A0000000000000000000444D41313200000014
:1007B00000000000000000444D4131330000000003
:1007C000000000000000444D4131340000000000F2
:1007D0000000000000444D413135000000000000E1
:1007E00000000000444D415F4572726F72000000CE
:1007F0000000004D434D000000000000000000001C
:1008000000004654464C00000000000000000000BC
:1008100000526561645F436F6C6C6973696F6E0051
:100820004C56445F4C565700000000000000004C3E
:100830004C5700000000000000000000000057615D
:10084000746368646F6700000000000000524E4748
:1008500000000000000000000000000049324330AA
:100860000000000000000000000000493243310099
:10087000000000000000000000005350493000005C
:10088000000000000000000000535049310000004B
:10089000000000000000000053504932000000003A
:1008A0000000000000000043414E305F4F525F4D9A
:1008B000425F6275660043414E305F4275735F4F21
:1008C000666600000043414E305F4572726F7200F1
:1008D0000000000043414E305F54785F5761726EF4
:1008E000696E6743414E305F52785F5761726E693F
:1008F0006E6743414E305F57616B655F5570000016
:100900000052657365727665643531000000000041
:1009100052657365727665643532000000000043ED
:10092000414E315F4F525F4D425F627566004341F9
:100930004E315F4275735F4F666600000043414E63
:10094000315F4572726F72000000000043414E310A
:100950005F54785F5761726E696E6743414E315FD5
:1009600052785F5761726E696E6743414E315F57CF
:10097000616B655F55700000005265736572766546
:100980006435390000000000526573657276656455
:100990003630000000000055415254305F52585F1D
:1009A00054580000000055415254305F45525200E7
:1009B000000000000055415254315F52585F5458B6
:1009C0000000000055415254315F45525200000072
:1009D00000000055415254325F52585F5458000095
:1009E000000055415254325F455252000000000051
:1009F0000055415254335F52585F54580000000074
:100A000055415254335F45525200000000000055DA
:100A1000415254345F52585F545800000000554111
:100A20005254345F455252000000000000554152BC
:100A300054355F52585F54580000000055415254DD
:100A4000355F455252000000000000414443300031
:100A5000000000000000000000004144433100009D
:100A6000000000000000000000434D503000000076
:100A70000000000000000000434D50310000000065
:100A800000000000000000434D5032000000000054
:100A900000000000000046544D300000000000003F
:100AA000000000000046544D31000000000000002E
:100AB0000000000046544D3200000000000000001D
:100AC000000000434D540000000000000000000042
:100AD000000052544300000000000000000000002D
:100AE000005265736572766564383300000000005B
:100AF0005049543000000000000000000000005089
:100B0000495431000000000000000000000050497E
:100B10005432000000000000000000000050495462
:100B2000330000000000000000000000504442308C
:100B3000000000000000000000000055534230009B
:100B400000000000000000000000555342444344F0
:100B5000000000000000000000454E45545F3135A4
:100B600038385F54696D6572454E45545F54726103
:100B70006E736D69740000454E45545F5265636540
:100B8000697665000000454E45545F4572726F728C
:100B90000000000000493253300000000000000057
:100BA0000000000053444843000000000000000023
:100BB000000000444143300000000000000000003D
:100BC000000044414331000000000000000000002C
:100BD00000545349300000000000000000000000F5
:100BE0004D43470000000000000000000000004CE2
:100BF0005054696D657200000000000000005265ED
:100C000073657276656431303200000000504F52D7
:100C1000544100000000000000000000504F5254FA
:100C20004200000000000000000000504F525443FA
:100C300000000000000000000000504F525444002B
:100C4000000000000000000000504F52544500001A
:100C50000000000000000000526573657276656454
:100C6000313038000000005265736572766564317A
:100C70003039000000005265736572766564313169
:100C80003000000000526573657276656431313161
:100C90000000000052657365727665643131320080
:100CA000000000526573657276656431313300006F
:100CB000000052657365727665643131340000005E
:100CC000005265736572766564313135000000004D
:100CD00052657365727665643131360000000052EA
:100CE00065736572766564313137000000005265C6
:100CF00073657276656431313800000000526573A7
:100D0000657276656431313900000000008003406F
:100D10000090034000800B4000900B40000000005A
:100D200000000000000000000000000000F00F4084
:100D300040F00F4080F00F40C0F00F4000F10F4036
:100D400066000A1D32000701640007106E000406E9
:100D5000780004088200040A8C00040C9600040E3B
:100D6000A0000410AA000412B4000414BE0004166B
:100D7000C8000418D200041ADC00041CE100041DA1
:100D8000E600041EEB00041FF4000317FA0003182A
:100D9000130101062C01021400010908009004400F
:100DA00000A0044000B0044000C0044000D0044053
:100DB00000A0064000B0064000C0064000D006403B
:100DC00000A00E4000B00E40000100000000000036
:100DD000000202020102020000000000FAFF00000F
:100DE0000000000000000000000000000000000003
:100DF00053005300520051005100500050004F006A
:100E00004E004E004D004D004C004B004B004A0080
:100E10004A00490048004800470047004600450096
:100E200045004400440043004200420041004100AC
:100E300040003F003F003E003E003D003C003C00C3
:100E40003B003B003A0039003900380038003700D9
:100E500036003600350035003400330033003200F0
:100E600032003100300030002F002F002E002D0006
:100E70002D002C002C002B002A002A00290029001C
:100E80002800270027002600260025002400240033
:100E900023002300220021002100200020001F0049
:100EA0001E001E001D001D001C001B001B001A0060
:100EB0001A00190018001800170017001600150076
:100EC000150014001400130012001200110011008C
:100ED00010000F000F000E000E000D000C000C00A3
:100EE0004C004C004D004E004E004F004F00500093
:100EF000510051005200520053005400540055005C
:100F000055005600570057005800580059005A0025
:100F10005A005B005B005C005D005D005E005E00EF
:100F20005F006000600061006100620063006300B8
:100F30006400640065006600660067006700680082
:100F4000690069006A006A006B006C006C006D004B
:100F50006D006E006F006F00700070007100720015
:100F600072007300730074007500750076007600DF
:100F7000770078007800790079007A007B007B00A8
:100F80007C007C007D007E007E007F007F00800072
:100F9000810081008200820083008400840085003B
:100FA00085008600870087008800880089008A0005
:100FB0008A008B008B008C008D008D008E008E00CF
:100FC0008F00900090009100910092009300930098
:100FD00029002800280027002700270026002600D7
:100FE00025002500240024002300230022002200E5
:100FF00021002100200020001F001F001E001E00F5
:101000001D001D001C001C001B001B001A001A0004
:101010001900190018001800170017001600160014
:101020001500150014001400130013001200120024
:1010300011001100100010000F000F000E000E0034
:101040000D000D000C000C000B000B000A000A0044
:101050000900090008000800070007000600060054
:101060000500050004000400030003000200020064
:101070000200010001000000000000000000FFFF6E
:10108000FFFFFEFFFEFFFDFFFDFFFCFFFCFFFBFF80
:10109000FBFFFAFFFAFFF9FFF9FFF8FFF8FFF7FF90
:1010A000F7FFF6FFF6FFF5FFF5FFF4FFF4FFF3FFA0
:1010B000F3FFF2FFF2FFF1FFF1FFF0FFF0FFEFFFB0
:1010C0007600770077007800780078007900790062
:1010D0007A007A007B007B007C007C007D007D0034
:1010E0007E007E007F007F00800080008100810004
:1010F00082008200830083008400840085008500D4
:1011000086008600870087008800880089008900A3
:101110008A008A008B008B008C008C008D008D0073
:101120008E008E008F008F00900090009100910043
:101130009200920093009300940094009500950013
:1011400096009600970097009800980099009900E3
:101150009A009A009B009B009C009C009D009D00B3
:101160009D009E009E009F009F009F009F00A0008A
:10117000A000A100A100A200A200A300A300A4005F
:10118000A400A500A500A600A600A700A700A8002F
:10119000A800A900A900AA00AA00AB00AB00AC00FF
:1011A000AC00AD00AD00AE00AE00AF00AF00B000CF
:1011B00000000000CDCCCC3F000016430000804171
:1011C00025002500250025002400240024002400FB
:1011D00023002300230023002200220022002200FB
:1011E00022002100210021002100210020002000F8
:1011F0002000200020001F001F001F001F001F00F4
:101200001F001E001E001E001E001E001E001D00EE
:101210001D001D001D001D001D001D001C001C00E8
:101220001C001C001C001C001C001C001C001B00DF
:101230001B001B001B001B001B001B001B001B00D6
:101240001B001A001A001A001A001A001A001A00CD
:101250001A001A001A001A001A001A001A001A00BE
:101260001A001A001A001A001A001A001A001A00AE
:101270001A001A001A001A001A001A001A001B009D
:101280001B001B001B001B001B001B001B001B0086
:101290001B001C001C001C001C001C001C001C006F
:1012A0001C001C001D001D001D001D001D001D0058
:1012B0001D001E001E001E001E001E001E001F003E
:1012C0001F001F001F001F001F0020002000200023
:1012D0002000200021002100210021002100220007
:1012E00022002200220022002300230023002300EA
:1012F00024002400240024002500250025002500CA
:1013000000000000000000000000000000000000DD
:1013100000000000000000000000000000000000CD
:1013200000000000000000000000000000000000BD
:1013300000000000000000000000000000000000AD
:10134000000000000000000000000000000000009D
:10135000000000000000000000000000000000008D
:10136000000000000000000000000000000000007D
:10137000000000000000000000000000000000006D
:10138000000000000000000000000000000000005D
:10139000000000000000000000000000000000004D
:1013A000000000000000000000000000000000003D
:1013B000000000000000000000000000000000002D
:1013C000000000000000000000000000000000001D
:1013D000000000000000000000000000000000000D
:1013E00000000000000000000000000000000000FD
:1013F00000000000000000000000000000000000ED
:1014000000000000000000000000000000000000DC
:1014100000000000000000000000000000000000CC
:1014200000000000000000000000000000000000BC
:1014300000000000000000000000000000000000AC
:10144000000000000000000000000000000000009C
:10145000000000000000000000000000000000008C
:10146000000000000000000000000000000000007C
:10147000000000000000000000000000000000006C
:10148000000000000000000000000000000000005C
:10149000000000000000000000000000000000004C
:1014A000000000000000000000000000000000003C
:1014B000000000000000000000000000000000002C
:1014C000000000000000000000000000000000001C
:1014D000000000000000000000000000000000000C
:1014E00000000000000000000001000100000000FA
:1014F00000000000000000000000000000000000EC
:1015000000000000000000000000000000000000DB
:1015100000000000000000000000000000000000CB
:1015200000000000000000000000000000000000BB
:1015300000000000000000000000000000000000AB
:10154000000000000000000000000000000000009B
:10155000000000000000000000000000000000008B
:10156000000000000000000000000000000000007B
:10157000000000000000000000000000000000006B
:10158000000000000000000000000000000000005B
:10159000000000000000000000000000000000004B
:1015A000000000000000000000000000000000003B
:1015B000000000000000000000000000000000002B
:1015C000000000000000000000000000000000001B
:1015D000000000000000000000000000000000000B
:1015E00000000000000000000000000000000000FB
:1015F00000000000000000000000000000000000EB
:1016000000000000000000000000000000000000DA
:1016100000000000000000000000000000000000CA
:1016200000000000000000000000000000000000BA
:1016300000000000000000000000000000000000AA
:10164000000000000000000000000000000000009A
:10165000000000000000000000000000000000008A
:10166000000000000000000000000000000000007A
:10167000000000000000000000000000000000006A
:10168000000000000000000000000000000000005A
:10169000000000000000000000000000000000004A
:1016A000000000000000000000000000000000003A
:1016B000000000000000000000000000000000002A
:1016C000000000000000000000000000000000001A
:1016D000000000000000000000000000000000000A
:1016E0000000000000000000000000006A6B6C6D4C
:1016F00000000000000000000000000000000000EA
:1017000000000000000000000000000000000000D9
:1017100000000000000000000000000000000000C9
:1017200000000000000000009A11406F0D811100C0
:1017300009030CD01240173F185019031A783200D1
:10174000A00A63E0ACFF650C6600670029282A0048
:101750007E0C7F16802A814E8261836F847B858612
:10176000868E879788A489AF8AC58BD78CE88D2011
:101770004A00491347084B144C1746052299230386
:10178000A6049B009C18AB069E119F020D811100C0
:1017900009030CD01240173F185019031A78320071
:1017A000A00A63E0ACFF650C6600670029282A00E8
:1017B0007E0C7F16802A814E8261836F847B8586B2
:1017C000868E879788A489AF8AC58BD78CE88D20B1
:1017D0004A00491347084B144C1746052299230326
:1017E000A6049B009C19AB069E119F0200000430CA
:1017F00004000000000000000000000000000000E5
:1018000000000000000000000000000000000000D8
:1018100000000000000000000000000000000000C8
:1018200000000000000000000000000000000000B8
:1018300000000000000000000000000000000000A8
:10D3700000000000000000000000000002040101A5
:10D3800044D5FF1F94D5FF1F44D5FF1F44D5FF1F71
:10D3900044D5FF1FB1D3FF1F98D3FF1F000000002B
:10D3A000000000000000000000000000000000007D
:10D3B00000000000000000000000000000B581B087
:10D3C00001220121352002F003FB01221146372002
:10D3D00002F0FEFA2321352002F0ADFB01B05DF82A
:10D3E00004EB2321372002F0A6BB000030B481B04B
:10D3F0000823DFF8F8174FF4C8725B1E00F08004B2
:10D40000651EAD41ED43ED0F8D60ADF800205FEA84
:10D410004000BDF800400CB3BDF80040641EADF8FC
:10D420000040BDF80040CCB1BDF80040641EADF82E
:10D430000040BDF800408CB1BDF80040641EADF85E
:10D440000040BDF80040002C08D0BDF80040641E2C
:10D45000ADF80040BDF80040002CDDD10124C1F83A
:10D460000040ADF80020BDF800400CB3BDF800400E
:10D47000641EADF80040BDF80040CCB1BDF80040DE
:10D48000641EADF80040BDF800408CB1BDF800400E
:10D49000641EADF80040BDF80040002C08D0BDF877
:10D4A0000040641EADF80040BDF80040002CDDD106
:10D4B0000024002B0C60A0D101B030BC70470000EC
:10D4C000F0B481B000224FF4C873DFF82047012583
:10D4D000A560C4F80050ADF80030BDF8005005B3A9
:10D4E000BDF800506D1EADF80050BDF80050C5B13C
:10D4F000BDF800506D1EADF80050BDF8005085B16C
:10D50000BDF800506D1EADF80050BDF8005045B19B
:10D51000BDF800506D1EADF80050BDF80050002D54
:10D52000DED10025C4F88852D4F8085285B301250D
:10D53000C4F888520025C4F80850ADF80030BDF892
:10D54000005005B3BDF800506D1EADF80050BDF899
:10D550000050C5B1BDF800506D1EADF80050BDF8CB
:10D56000005085B1BDF800506D1EADF80050BDF8FB
:10D57000005045B1BDF800506D1EADF80050BDF82B
:10D580000050002DDED100252560D4F8085255B199
:10D590000125C4F88852521CD2B2142A97D101B086
:10D5A000F0BC00207047422608256D1E06F080075B
:10D5B000B7F1010C6CEB0C0C6FEA0C07FF0FA760C6
:10D5C000ADF800307600BDF8007007B3BDF800700C
:10D5D0007F1EADF80070BDF80070C7B1BDF80070D7
:10D5E0007F1EADF80070BDF8007087B1BDF8007007
:10D5F0007F1EADF80070BDF8007047B1BDF8007037
:10D600007F1EADF80070BDF80070002FDED101273D
:10D610002760ADF80030BDF8007007B3BDF80070AA
:10D620007F1EADF80070BDF80070C7B1BDF8007086
:10D630007F1EADF80070BDF8007087B1BDF80070B6
:10D640007F1EADF80070BDF8007047B1BDF80070E6
:10D650007F1EADF80070BDF80070002FDED10027EE
:10D66000002D2760A1D1C4F80050C4F88852ADF84D
:10D670000030BDF8005005B3BDF800506D1EADF888
:10D680000050BDF80050C5B1BDF800506D1EADF89A
:10D690000050BDF8005085B1BDF800506D1EADF8CA
:10D6A0000050BDF8005045B1BDF800506D1EADF8FA
:10D6B0000050BDF80050002DDED101252560ADF8E9
:10D6C0000030BDF8005005B3BDF800506D1EADF838
:10D6D0000050BDF80050C5B1BDF800506D1EADF84A
:10D6E0000050BDF8005085B1BDF800506D1EADF87A
:10D6F0000050BDF8005045B1BDF800506D1EADF8AA
:10D700000050BDF80050002DDED1D4F80852002D95
:10D7100000F086800125C4F8885227602760C4F88D
:10D720000870ADF80030BDF8005005B3BDF80050EA
:10D730006D1EADF80050BDF80050C5B1BDF80050E9
:10D740006D1EADF80050BDF8005085B1BDF8005019
:10D750006D1EADF80050BDF8005045B1BDF8005049
:10D760006D1EADF80050BDF80050002DDED1012532
:10D770002560ADF80030BDF8005005B3BDF800508D
:10D780006D1EADF80050BDF80050C5B1BDF8005099
:10D790006D1EADF80050BDF8005085B1BDF80050C9
:10D7A0006D1EADF80050BDF8005045B1BDF80050F9
:10D7B0006D1EADF80050BDF80050002DDED10125E2
:10D7C000A560ADF80030BDF80050002D3FF4E3AE89
:10D7D000BDF800506D1EADF80050BDF80050002D92
:10D7E0003FF4D9AEBDF800506D1EADF80050BDF845
:10D7F0000050002D3FF4CFAEBDF800506D1EADF8C7
:10D800000050BDF80050002D3FF4C5AEBDF80050EB
:10D810006D1EADF80050BDF80050002DD8D1BAE60D
:10D820000122C4F8882227600822521E00F08005D9
:10D830006E1EB641F643F60FA660ADF800305FEA03
:10D840004000BDF8005005B3BDF800506D1EADF8A6
:10D850000050BDF80050C5B1BDF800506D1EADF8C8
:10D860000050BDF8005085B1BDF800506D1EADF8F8
:10D870000050BDF8005045B1BDF800506D1EADF828
:10D880000050BDF80050002DDED101252560ADF817
:10D890000030BDF8005005B3BDF800506D1EADF866
:10D8A0000050BDF80050C5B1BDF800506D1EADF878
:10D8B0000050BDF8005085B1BDF800506D1EADF8A8
:10D8C0000050BDF8005045B1BDF800506D1EADF8D8
:10D8D0000050BDF80050002DDED1002A2760A4D1F1
:10D8E0002760C4F88872ADF80030BDF8000000B3BE
:10D8F000BDF80000401EADF80000BDF80000C0B14A
:10D90000BDF80000401EADF80000BDF8000080B179
:10D91000BDF80000401EADF80000BDF8000040B1A9
:10D92000BDF80000401EADF80000BDF80000002862
:10D93000DED101202060ADF80030BDF8000000B35A
:10D94000BDF80000401EADF80000BDF80000C0B1F9
:10D95000BDF80000401EADF80000BDF8000080B129
:10D96000BDF80000401EADF80000BDF8000040B159
:10D97000BDF80000401EADF80000BDF80000002812
:10D98000DED1D4F808020120C4F8880227600820FC
:10D99000401E01F08002551EAD41ED43ED0FA56024
:10D9A000ADF800304900BDF8002002B3BDF80020FA
:10D9B000521EADF80020BDF80020C2B1BDF8002015
:10D9C000521EADF80020BDF8002082B1BDF8002045
:10D9D000521EADF80020BDF8002042B1BDF8002075
:10D9E000521EADF80020BDF80020002ADED1012231
:10D9F0002260ADF80030BDF8002002B3BDF8002071
:10DA0000521EADF80020BDF80020C2B1BDF80020C4
:10DA1000521EADF80020BDF8002082B1BDF80020F4
:10DA2000521EADF80020BDF8002042B1BDF8002024
:10DA3000521EADF80020BDF80020002ADED10028DB
:10DA40002760A5D12060C4F88802ADF80030BDF889
:10DA5000000000B3BDF80000401EADF80000BDF8A6
:10DA60000000C0B1BDF80000401EADF80000BDF8D8
:10DA7000000080B1BDF80000401EADF80000BDF808
:10DA8000000040B1BDF80000401EADF80000BDF838
:10DA900000000028DED101202060ADF80030BDF884
:10DAA000000000B3BDF80000401EADF80000BDF856
:10DAB0000000C0B1BDF80000401EADF80000BDF888
:10DAC000000080B1BDF80000401EADF80000BDF8B8
:10DAD000000040B1BDF80000401EADF80000BDF8E8
:10DAE00000000028DED1D4F808020120C4F8880222
:10DAF00027602760A760ADF80030BDF8000000B3D4
:10DB0000BDF80000401EADF80000BDF80000C0B137
:10DB1000BDF80000401EADF80000BDF8000080B167
:10DB2000BDF80000401EADF80000BDF8000040B197
:10DB3000BDF80000401EADF80000BDF80000002850
:10DB4000DED101202060ADF80030BDF8000000B348
:10DB5000BDF80000401EADF80000BDF80000C0B1E7
:10DB6000BDF80000401EADF80000BDF8000080B117
:10DB7000BDF80000401EADF80000BDF8000040B147
:10DB8000BDF80000401EADF80000BDF80000002800
:10DB9000DED10120A060ADF80030BDF8000000B378
:10DBA000BDF80000401EADF80000BDF80000C0B197
:10DBB000BDF80000401EADF80000BDF8000080B1C7
:10DBC000BDF80000401EADF80000BDF8000040B1F7
:10DBD000BDF80000401EADF80000BDF800000028B0
:10DBE000DED101B0F0BC0120704700005408FE43B4
:10DBF000F0B581B004460D4616461E27324629462A
:10DC0000204600F009F818B97F1EF7D101B0F0BD29
:10DC1000012001B0F0BD00002DE9F0410646DFF81B
:10DC2000004C82B00120A06020604FF4C875ADF8B0
:10DC300000500F46BDF80000904600B3BDF800004C
:10DC4000401EADF80000BDF80000C0B1BDF80000F6
:10DC5000401EADF80000BDF8000080B1BDF8000026
:10DC6000401EADF80000BDF8000040B1BDF8000056
:10DC7000401EADF80000BDF800000028DED10020F5
:10DC8000C4F88802D4F80802002800F0518201206C
:10DC9000C4F888020020C4F80800ADF80050BDF8B0
:10DCA000000000B3BDF80000401EADF80000BDF854
:10DCB0000000C0B1BDF80000401EADF80000BDF886
:10DCC000000080B1BDF80000401EADF80000BDF8B6
:10DCD000000040B1BDF80000401EADF80000BDF8E6
:10DCE00000000028DED100202060D4F808020028BF
:10DCF00040F01E824220FFF779FB00202060C4F82C
:10DD00008802ADF80050BDF8000000B3BDF8000077
:10DD1000401EADF80000BDF80000C0B1BDF8000025
:10DD2000401EADF80000BDF8000080B1BDF8000055
:10DD3000401EADF80000BDF8000040B1BDF8000085
:10DD4000401EADF80000BDF800000028DED1012023
:10DD50002060ADF80050BDF8000000B3BDF8000031
:10DD6000401EADF80000BDF80000C0B1BDF80000D5
:10DD7000401EADF80000BDF8000080B1BDF8000005
:10DD8000401EADF80000BDF8000040B1BDF8000035
:10DD9000401EADF80000BDF800000028DED1D4F828
:10DDA0000802002800F089800120C4F888020020C1
:10DDB00020602060A060ADF80050BDF8000000B306
:10DDC000BDF80000401EADF80000BDF80000C0B175
:10DDD000BDF80000401EADF80000BDF8000080B1A5
:10DDE000BDF80000401EADF80000BDF8000040B1D5
:10DDF000BDF80000401EADF80000BDF8000000288E
:10DE0000DED101202060ADF80050BDF8000000B365
:10DE1000BDF80000401EADF80000BDF80000C0B124
:10DE2000BDF80000401EADF80000BDF8000080B154
:10DE3000BDF80000401EADF80000BDF8000040B184
:10DE4000BDF80000401EADF80000BDF8000000283D
:10DE5000DED10120A060ADF80050BDF80000002820
:10DE600000F06981BDF80000401EADF80000BDF86B
:10DE70000000002800F05F81BDF80000401EADF8F2
:10DE80000000BDF80000002800F05581BDF800003A
:10DE9000401EADF80000BDF80000002800F04B81E6
:10DEA000BDF80000401EADF80000BDF800000028DD
:10DEB000D8D1002002B0BDE8F0810120C4F888026A
:10DEC000002020604046FFF791FA00202060C4F84F
:10DED0008802ADF80050BDF8000000B3BDF80000A6
:10DEE000401EADF80000BDF80000C0B1BDF8000054
:10DEF000401EADF80000BDF8000080B1BDF8000084
:10DF0000401EADF80000BDF8000040B1BDF80000B3
:10DF1000401EADF80000BDF800000028DED1012051
:10DF20002060ADF80050BDF8000000B3BDF800005F
:10DF3000401EADF80000BDF80000C0B1BDF8000003
:10DF4000401EADF80000BDF8000080B1BDF8000033
:10DF5000401EADF80000BDF8000040B1BDF8000063
:10DF6000401EADF80000BDF800000028DED1D4F856
:10DF700008020120C4F88802002020602060C4F854
:10DF80000800ADF80050BDF8000000B3BDF8000077
:10DF9000401EADF80000BDF80000C0B1BDF80000A3
:10DFA000401EADF80000BDF8000080B1BDF80000D3
:10DFB000401EADF80000BDF8000040B1BDF8000003
:10DFC000401EADF80000BDF800000028DED10120A1
:10DFD0002060ADF80050BDF8000000B3BDF80000AF
:10DFE000401EADF80000BDF80000C0B1BDF8000053
:10DFF000401EADF80000BDF8000080B1BDF8000083
:10E00000401EADF80000BDF8000040B1BDF80000B2
:10E01000401EADF80000BDF800000028DED1012050
:10E02000A060ADF80050BDF8000000B3BDF80000DE
:10E03000401EADF80000BDF80000C0B1BDF8000002
:10E04000401EADF80000BDF8000080B1BDF8000032
:10E05000401EADF80000BDF8000040B1BDF8000062
:10E06000401EADF80000BDF800000028DED1012000
:10E07000A060C4F80000ADF80050BDF8000000B387
:10E08000BDF80000401EADF80000BDF80000C0B1B2
:10E09000BDF80000401EADF80000BDF8000080B1E2
:10E0A000BDF80000401EADF80000BDF8000040B112
:10E0B000BDF80000401EADF80000BDF800000028CB
:10E0C000DED10020C4F88802D4F8080280B3012011
:10E0D000C4F888020020C4F80800ADF80050BDF86C
:10E0E000000000B3BDF80000401EADF80000BDF810
:10E0F0000000C0B1BDF80000401EADF80000BDF842
:10E10000000080B1BDF80000401EADF80000BDF871
:10E11000000040B1BDF80000401EADF80000BDF8A1
:10E1200000000028DED100202060D4F8080230B1C1
:10E130000120C4F88802002002B0BDE8F08143212C
:10E140000820401E01F08002531E9B41DB43DB0F81
:10E15000A360ADF800505FEA4101BDF8002002B3B2
:10E16000BDF80020521EADF80020BDF80020C2B15D
:10E17000BDF80020521EADF80020BDF8002082B18D
:10E18000BDF80020521EADF80020BDF8002042B1BD
:10E19000BDF80020521EADF80020BDF80020002A76
:10E1A000DED101222260ADF80050BDF8002002B39C
:10E1B000BDF80020521EADF80020BDF80020C2B10D
:10E1C000BDF80020521EADF80020BDF8002082B13D
:10E1D000BDF80020521EADF80020BDF8002042B16D
:10E1E000BDF80020521EADF80020BDF80020002A26
:10E1F000DED1002200282260A3D1C4F80000C4F8B8
:10E200008802ADF80050BDF8000000B3BDF8000072
:10E21000401EADF80000BDF80000C0B1BDF8000020
:10E22000401EADF80000BDF8000080B1BDF8000050
:10E23000401EADF80000BDF8000040B1BDF8000080
:10E24000401EADF80000BDF800000028DED101201E
:10E250002060ADF80050BDF8000000B3BDF800002C
:10E26000401EADF80000BDF80000C0B1BDF80000D0
:10E27000401EADF80000BDF8000080B1BDF8000000
:10E28000401EADF80000BDF8000040B1BDF8000030
:10E29000401EADF80000BDF800000028DED1D4F823
:10E2A000080220B10120C4F88802002080E5012086
:10E2B000C4F88802002F226000F0B38100210820FA
:10E2C000C4F8881200222260ADF80050401EBDF84C
:10E2D00000205FEA410102B3BDF80020521EADF8F4
:10E2E0000020BDF80020C2B1BDF80020521EADF8DC
:10E2F0000020BDF8002082B1BDF80020521EADF80C
:10E300000020BDF8002042B1BDF80020521EADF83B
:10E310000020BDF80020002ADED101222260ADF8E5
:10E320000050BDF8002002B3BDF80020521EADF829
:10E330000020BDF80020C2B1BDF80020521EADF88B
:10E340000020BDF8002082B1BDF80020521EADF8BB
:10E350000020BDF8002042B1BDF80020521EADF8EB
:10E360000020BDF80020002ADED1D4F80822002ABF
:10E3700040F0B4800028A5D10120C4F88802002014
:10E38000206031702060ADF80050B7F1010FBDF88A
:10E39000000040F0A68000B3BDF80000401EADF8BC
:10E3A0000000BDF80000C0B1BDF80000401EADF88F
:10E3B0000000BDF8000080B1BDF80000401EADF8BF
:10E3C0000000BDF8000040B1BDF80000401EADF8EF
:10E3D0000000BDF800000028DED10120A060ADF8EB
:10E3E0000050BDF8000000B3BDF80000401EADF8BD
:10E3F0000000BDF80000C0B1BDF80000401EADF83F
:10E400000000BDF8000080B1BDF80000401EADF86E
:10E410000000BDF8000040B1BDF80000401EADF89E
:10E420000000BDF800000028DED101202060ADF81A
:10E430000050BDF8000000B3BDF80000401EADF86C
:10E440000000BDF80000C0B1BDF80000401EADF8EE
:10E450000000BDF8000080B1BDF80000401EADF81E
:10E460000000BDF8000040B1BDF80000401EADF84E
:10E470000000BDF800000028DED100202060ADF8CB
:10E480000050BDF80000002800F0C580BDF8000075
:10E49000401EADF80000BDF80000002800F0BB8071
:10E4A000BDF80000401EADF80000BDF800000028D7
:10E4B00000F0B180BDF80000401EADF80000BDF8CE
:10E4C0000000002800F0A780BDF80000401EADF855
:10E4D0000000BDF800000028D8D19CE041F0010107
:10E4E00048E700B3BDF80000401EADF80000BDF8DD
:10E4F0000000C0B1BDF80000401EADF80000BDF83E
:10E50000000080B1BDF80000401EADF80000BDF86D
:10E51000000040B1BDF80000401EADF80000BDF89D
:10E5200000000028DED10020A060ADF80050BDF84A
:10E53000000000B3BDF80000401EADF80000BDF8BB
:10E540000000C0B1BDF80000401EADF80000BDF8ED
:10E55000000080B1BDF80000401EADF80000BDF81D
:10E56000000040B1BDF80000401EADF80000BDF84D
:10E5700000000028DED101202060ADF80050BDF879
:10E58000000000B3BDF80000401EADF80000BDF86B
:10E590000000C0B1BDF80000401EADF80000BDF89D
:10E5A000000080B1BDF80000401EADF80000BDF8CD
:10E5B000000040B1BDF80000401EADF80000BDF8FD
:10E5C00000000028DED100202060ADF80050BDF82A
:10E5D000000000B3BDF80000401EADF80000BDF81B
:10E5E0000000C0B1BDF80000401EADF80000BDF84D
:10E5F000000080B1BDF80000401EADF80000BDF87D
:10E60000000040B1BDF80000401EADF80000BDF8AC
:10E6100000000028DED17F1E761CBFB2002F7FF4E1
:10E620004DAE00202060C4F80800ADF80050BDF8E1
:10E63000000000B3BDF80000401EADF80000BDF8BA
:10E640000000C0B1BDF80000401EADF80000BDF8EC
:10E65000000080B1BDF80000401EADF80000BDF81C
:10E66000000040B1BDF80000401EADF80000BDF84C
:10E6700000000028DED101202060ADF80050BDF878
:10E68000000000B3BDF80000401EADF80000BDF86A
:10E690000000C0B1BDF80000401EADF80000BDF89C
:10E6A000000080B1BDF80000401EADF80000BDF8CC
:10E6B000000040B1BDF80000401EADF80000BDF8FC
:10E6C00000000028DED10120A060ADF80050BDF8A8
:10E6D000000000B3BDF80000401EADF80000BDF81A
:10E6E0000000C0B1BDF80000401EADF80000BDF84C
:10E6F000000080B1BDF80000401EADF80000BDF87C
:10E70000000040B1BDF80000401EADF80000BDF8AB
:10E7100000000028DED1012002B0BDE8F08100B584
:10E7200081B0012201211A2001F052F90122114683
:10E73000192001F04DF923211A2001F0FCF901B054
:10E740005DF804EB2321192001F0F5B930B481B054
:10E7500008234FF4C871DFF8F8275B1E00F080042F
:10E76000651EAD41ED43ED0F1560ADF800105FEA99
:10E770004000BDF800400CB3BDF80040641EADF889
:10E780000040BDF80040CCB1BDF80040641EADF8BB
:10E790000040BDF800408CB1BDF80040641EADF8EB
:10E7A0000040BDF80040002C08D0BDF80040641EB9
:10E7B000ADF80040BDF80040002CDDD10124C2F8C6
:10E7C0000440ADF80010BDF800400CB3BDF80040A7
:10E7D000641EADF80040BDF80040CCB1BDF800406B
:10E7E000641EADF80040BDF800408CB1BDF800409B
:10E7F000641EADF80040BDF80040002C08D0BDF804
:10E800000040641EADF80040BDF80040002CDDD192
:10E810000024002B5460A0D101B030BC7047000030
:10E820005408FE43F0B481B000224FF4C873DFF8FF
:10E83000204701252560C4F80450ADF80030BDF82C
:10E84000005005B3BDF800506D1EADF80050BDF886
:10E850000050C5B1BDF800506D1EADF80050BDF8B8
:10E86000005085B1BDF800506D1EADF80050BDF8E8
:10E87000005045B1BDF800506D1EADF80050BDF818
:10E880000050002DDED10025C4F88052D4F800528B
:10E8900085B30125C4F880520025C4F80050ADF8B6
:10E8A0000030BDF8005005B3BDF800506D1EADF846
:10E8B0000050BDF80050C5B1BDF800506D1EADF858
:10E8C0000050BDF8005085B1BDF800506D1EADF888
:10E8D0000050BDF8005045B1BDF800506D1EADF8B8
:10E8E0000050BDF80050002DDED100256560D4F841
:10E8F000005255B10125C4F88052521CD2B2142ADC
:10E9000097D101B0F0BC00207047422608256D1E4B
:10E9100006F08007B7F1010C6CEB0C0C6FEA0C07EA
:10E92000FF0F2760ADF800307600BDF8007007B328
:10E93000BDF800707F1EADF80070BDF80070C7B163
:10E94000BDF800707F1EADF80070BDF8007087B193
:10E95000BDF800707F1EADF80070BDF8007047B1C3
:10E96000BDF800707F1EADF80070BDF80070002F7C
:10E97000DED101276760ADF80030BDF8007007B345
:10E98000BDF800707F1EADF80070BDF80070C7B113
:10E99000BDF800707F1EADF80070BDF8007087B143
:10E9A000BDF800707F1EADF80070BDF8007047B173
:10E9B000BDF800707F1EADF80070BDF80070002F2C
:10E9C000DED10027002D6760A1D1C4F80450C4F83F
:10E9D0008052ADF80030BDF8005005B3BDF80050CE
:10E9E0006D1EADF80050BDF80050C5B1BDF8005027
:10E9F0006D1EADF80050BDF8005085B1BDF8005057
:10EA00006D1EADF80050BDF8005045B1BDF8005086
:10EA10006D1EADF80050BDF80050002DDED101256F
:10EA20006560ADF80030BDF8005005B3BDF800508A
:10EA30006D1EADF80050BDF80050C5B1BDF80050D6
:10EA40006D1EADF80050BDF8005085B1BDF8005006
:10EA50006D1EADF80050BDF8005045B1BDF8005036
:10EA60006D1EADF80050BDF80050002DDED1D4F879
:10EA70000052002D00F086800125C4F880526760A6
:10EA80006760C4F80070ADF80030BDF8005005B301
:10EA9000BDF800506D1EADF80050BDF80050C5B176
:10EAA000BDF800506D1EADF80050BDF8005085B1A6
:10EAB000BDF800506D1EADF80050BDF8005045B1D6
:10EAC000BDF800506D1EADF80050BDF80050002D8F
:10EAD000DED101256560ADF80030BDF8005005B30A
:10EAE000BDF800506D1EADF80050BDF80050C5B126
:10EAF000BDF800506D1EADF80050BDF8005085B156
:10EB0000BDF800506D1EADF80050BDF8005045B185
:10EB1000BDF800506D1EADF80050BDF80050002D3E
:10EB2000DED101252560ADF80030BDF80050002D84
:10EB30003FF4E3AEBDF800506D1EADF80050BDF8D7
:10EB40000050002D3FF4D9AEBDF800506D1EADF859
:10EB50000050BDF80050002D3FF4CFAEBDF800507E
:10EB60006D1EADF80050BDF80050002D3FF4C5AE4D
:10EB7000BDF800506D1EADF80050BDF80050002DDE
:10EB8000D8D1BAE60122C4F8802267600822521E5A
:10EB900000F080056E1EB641F643F60F2660ADF814
:10EBA00000305FEA4000BDF8005005B3BDF80050EA
:10EBB0006D1EADF80050BDF80050C5B1BDF8005055
:10EBC0006D1EADF80050BDF8005085B1BDF8005085
:10EBD0006D1EADF80050BDF8005045B1BDF80050B5
:10EBE0006D1EADF80050BDF80050002DDED101259E
:10EBF0006560ADF80030BDF8005005B3BDF80050B9
:10EC00006D1EADF80050BDF80050C5B1BDF8005004
:10EC10006D1EADF80050BDF8005085B1BDF8005034
:10EC20006D1EADF80050BDF8005045B1BDF8005064
:10EC30006D1EADF80050BDF80050002DDED1002A49
:10EC40006760A4D16760C4F88072ADF80030BDF889
:10EC5000000000B3BDF80000401EADF80000BDF894
:10EC60000000C0B1BDF80000401EADF80000BDF8C6
:10EC7000000080B1BDF80000401EADF80000BDF8F6
:10EC8000000040B1BDF80000401EADF80000BDF826
:10EC900000000028DED101206060ADF80030BDF832
:10ECA000000000B3BDF80000401EADF80000BDF844
:10ECB0000000C0B1BDF80000401EADF80000BDF876
:10ECC000000080B1BDF80000401EADF80000BDF8A6
:10ECD000000040B1BDF80000401EADF80000BDF8D6
:10ECE00000000028DED1D4F800020120C4F8800220
:10ECF00067600820401E01F08002551EAD41ED43C3
:10ED0000ED0F2560ADF800304900BDF8002002B3DA
:10ED1000BDF80020521EADF80020BDF80020C2B1A1
:10ED2000BDF80020521EADF80020BDF8002082B1D1
:10ED3000BDF80020521EADF80020BDF8002042B101
:10ED4000BDF80020521EADF80020BDF80020002ABA
:10ED5000DED101226260ADF80030BDF8002002B3C0
:10ED6000BDF80020521EADF80020BDF80020C2B151
:10ED7000BDF80020521EADF80020BDF8002082B181
:10ED8000BDF80020521EADF80020BDF8002042B1B1
:10ED9000BDF80020521EADF80020BDF80020002A6A
:10EDA000DED100286760A5D16060C4F88002ADF8AC
:10EDB0000030BDF8000000B3BDF80000401EADF803
:10EDC0000000BDF80000C0B1BDF80000401EADF865
:10EDD0000000BDF8000080B1BDF80000401EADF895
:10EDE0000000BDF8000040B1BDF80000401EADF8C5
:10EDF0000000BDF800000028DED101206060ADF801
:10EE00000030BDF8000000B3BDF80000401EADF8B2
:10EE10000000BDF80000C0B1BDF80000401EADF814
:10EE20000000BDF8000080B1BDF80000401EADF844
:10EE30000000BDF8000040B1BDF80000401EADF874
:10EE40000000BDF800000028DED1D4F80002012047
:10EE5000C4F88002676067602760ADF80030BDF8D5
:10EE6000000000B3BDF80000401EADF80000BDF882
:10EE70000000C0B1BDF80000401EADF80000BDF8B4
:10EE8000000080B1BDF80000401EADF80000BDF8E4
:10EE9000000040B1BDF80000401EADF80000BDF814
:10EEA00000000028DED101206060ADF80030BDF820
:10EEB000000000B3BDF80000401EADF80000BDF832
:10EEC0000000C0B1BDF80000401EADF80000BDF864
:10EED000000080B1BDF80000401EADF80000BDF894
:10EEE000000040B1BDF80000401EADF80000BDF8C4
:10EEF00000000028DED101202060ADF80030BDF810
:10EF0000000000B3BDF80000401EADF80000BDF8E1
:10EF10000000C0B1BDF80000401EADF80000BDF813
:10EF2000000080B1BDF80000401EADF80000BDF843
:10EF3000000040B1BDF80000401EADF80000BDF873
:10EF400000000028DED101B0F0BC012070470000B5
:10EF50006400FE43F0B581B004460D4616461E27F8
:10EF600032462946204600F009F818B97F1EF7D12D
:10EF700001B0F0BD012001B0F0BD00002DE9F0416D
:10EF80000646DFF8484A82B00120206060604FF4F6
:10EF9000C875ADF800500F46BDF80000904600B3AC
:10EFA000BDF80000401EADF80000BDF80000C0B183
:10EFB000BDF80000401EADF80000BDF8000080B1B3
:10EFC000BDF80000401EADF80000BDF8000040B1E3
:10EFD000BDF80000401EADF80000BDF8000000289C
:10EFE000DED10020C4F88002D4F80002002800F02E
:10EFF00051820120C4F880020020C4F80000ADF85E
:10F000000050BDF8000000B3BDF80000401EADF890
:10F010000000BDF80000C0B1BDF80000401EADF812
:10F020000000BDF8000080B1BDF80000401EADF842
:10F030000000BDF8000040B1BDF80000401EADF872
:10F040000000BDF800000028DED100206060D4F888
:10F050000002002840F01E824220FFF777FB0020CC
:10F060006060C4F88002ADF80050BDF8000000B345
:10F07000BDF80000401EADF80000BDF80000C0B1B2
:10F08000BDF80000401EADF80000BDF8000080B1E2
:10F09000BDF80000401EADF80000BDF8000040B112
:10F0A000BDF80000401EADF80000BDF800000028CB
:10F0B000DED101206060ADF80050BDF8000000B363
:10F0C000BDF80000401EADF80000BDF80000C0B162
:10F0D000BDF80000401EADF80000BDF8000080B192
:10F0E000BDF80000401EADF80000BDF8000040B1C2
:10F0F000BDF80000401EADF80000BDF8000000287B
:10F10000DED1D4F80002002800F089800120C4F884
:10F1100080020020606060602060ADF80050BDF8A3
:10F12000000000B3BDF80000401EADF80000BDF8BF
:10F130000000C0B1BDF80000401EADF80000BDF8F1
:10F14000000080B1BDF80000401EADF80000BDF821
:10F15000000040B1BDF80000401EADF80000BDF851
:10F1600000000028DED101206060ADF80050BDF83D
:10F17000000000B3BDF80000401EADF80000BDF86F
:10F180000000C0B1BDF80000401EADF80000BDF8A1
:10F19000000080B1BDF80000401EADF80000BDF8D1
:10F1A000000040B1BDF80000401EADF80000BDF801
:10F1B00000000028DED101202060ADF80050BDF82D
:10F1C0000000002800F06981BDF80000401EADF885
:10F1D0000000BDF80000002800F05F81BDF80000CD
:10F1E000401EADF80000BDF80000002800F0558179
:10F1F000BDF80000401EADF80000BDF8000000287A
:10F2000000F04B81BDF80000401EADF80000BDF8D5
:10F2100000000028D8D1002002B0BDE8F081012014
:10F22000C4F88002002060604046FFF78FFA00209B
:10F230006060C4F88002ADF80050BDF8000000B373
:10F24000BDF80000401EADF80000BDF80000C0B1E0
:10F25000BDF80000401EADF80000BDF8000080B110
:10F26000BDF80000401EADF80000BDF8000040B140
:10F27000BDF80000401EADF80000BDF800000028F9
:10F28000DED101206060ADF80050BDF8000000B391
:10F29000BDF80000401EADF80000BDF80000C0B190
:10F2A000BDF80000401EADF80000BDF8000080B1C0
:10F2B000BDF80000401EADF80000BDF8000040B1F0
:10F2C000BDF80000401EADF80000BDF800000028A9
:10F2D000DED1D4F800020120C4F880020020606072
:10F2E0006060C4F80000ADF80050BDF8000000B345
:10F2F000BDF80000401EADF80000BDF80000C0B130
:10F30000BDF80000401EADF80000BDF8000080B15F
:10F31000BDF80000401EADF80000BDF8000040B18F
:10F32000BDF80000401EADF80000BDF80000002848
:10F33000DED101206060ADF80050BDF8000000B3E0
:10F34000BDF80000401EADF80000BDF80000C0B1DF
:10F35000BDF80000401EADF80000BDF8000080B10F
:10F36000BDF80000401EADF80000BDF8000040B13F
:10F37000BDF80000401EADF80000BDF800000028F8
:10F38000DED101202060ADF80050BDF8000000B3D0
:10F39000BDF80000401EADF80000BDF80000C0B18F
:10F3A000BDF80000401EADF80000BDF8000080B1BF
:10F3B000BDF80000401EADF80000BDF8000040B1EF
:10F3C000BDF80000401EADF80000BDF800000028A8
:10F3D000DED101202060C4F80400ADF80050BDF873
:10F3E000000000B3BDF80000401EADF80000BDF8FD
:10F3F0000000C0B1BDF80000401EADF80000BDF82F
:10F40000000080B1BDF80000401EADF80000BDF85E
:10F41000000040B1BDF80000401EADF80000BDF88E
:10F4200000000028DED10020C4F88002D4F80002D9
:10F4300080B30120C4F880020020C4F80000ADF8B9
:10F440000050BDF8000000B3BDF80000401EADF84C
:10F450000000BDF80000C0B1BDF80000401EADF8CE
:10F460000000BDF8000080B1BDF80000401EADF8FE
:10F470000000BDF8000040B1BDF80000401EADF82E
:10F480000000BDF800000028DED100206060D4F844
:10F49000000230B10120C4F88002002002B0BDE8B3
:10F4A000F0814320FFF752F90020C4F80400C4F8AB
:10F4B0008002ADF80050BDF8000000B3BDF80000B8
:10F4C000401EADF80000BDF80000C0B1BDF800005E
:10F4D000401EADF80000BDF8000080B1BDF800008E
:10F4E000401EADF80000BDF8000040B1BDF80000BE
:10F4F000401EADF80000BDF800000028DED101205C
:10F500006060ADF80050BDF8000000B3BDF8000029
:10F51000401EADF80000BDF80000C0B1BDF800000D
:10F52000401EADF80000BDF8000080B1BDF800003D
:10F53000401EADF80000BDF8000040B1BDF800006D
:10F54000401EADF80000BDF800000028DED1D4F860
:10F55000000200287FF4DAAD0120C4F88002002008
:10F56000002F606000F0B38100210820C4F88012F1
:10F5700000226260ADF80050401EBDF800205FEA36
:10F58000410102B3BDF80020521EADF80020BDF8C5
:10F590000020C2B1BDF80020521EADF80020BDF819
:10F5A000002082B1BDF80020521EADF80020BDF849
:10F5B000002042B1BDF80020521EADF80020BDF879
:10F5C0000020002ADED101226260ADF80050BDF8B3
:10F5D000002002B3BDF80020521EADF80020BDF897
:10F5E0000020C2B1BDF80020521EADF80020BDF8C9
:10F5F000002082B1BDF80020521EADF80020BDF8F9
:10F60000002042B1BDF80020521EADF80020BDF828
:10F610000020002ADED1D4F80022002A40F0B48075
:10F620000028A5D10120C4F880020020606031705C
:10F630006060ADF80050B7F1010FBDF8000040F078
:10F64000A68000B3BDF80000401EADF80000BDF874
:10F650000000C0B1BDF80000401EADF80000BDF8CC
:10F66000000080B1BDF80000401EADF80000BDF8FC
:10F67000000040B1BDF80000401EADF80000BDF82C
:10F6800000000028DED101202060ADF80050BDF858
:10F69000000000B3BDF80000401EADF80000BDF84A
:10F6A0000000C0B1BDF80000401EADF80000BDF87C
:10F6B000000080B1BDF80000401EADF80000BDF8AC
:10F6C000000040B1BDF80000401EADF80000BDF8DC
:10F6D00000000028DED101206060ADF80050BDF8C8
:10F6E000000000B3BDF80000401EADF80000BDF8FA
:10F6F0000000C0B1BDF80000401EADF80000BDF82C
:10F70000000080B1BDF80000401EADF80000BDF85B
:10F71000000040B1BDF80000401EADF80000BDF88B
:10F7200000000028DED100206060ADF80050BDF878
:10F730000000002800F0C580BDF80000401EADF8B4
:10F740000000BDF80000002800F0BB80BDF80000FC
:10F75000401EADF80000BDF80000002800F0B180A8
:10F76000BDF80000401EADF80000BDF80000002804
:10F7700000F0A780BDF80000401EADF80000BDF805
:10F7800000000028D8D19CE041F0010148E700B317
:10F79000BDF80000401EADF80000BDF80000C0B18B
:10F7A000BDF80000401EADF80000BDF8000080B1BB
:10F7B000BDF80000401EADF80000BDF8000040B1EB
:10F7C000BDF80000401EADF80000BDF800000028A4
:10F7D000DED100202060ADF80050BDF8000000B37D
:10F7E000BDF80000401EADF80000BDF80000C0B13B
:10F7F000BDF80000401EADF80000BDF8000080B16B
:10F80000BDF80000401EADF80000BDF8000040B19A
:10F81000BDF80000401EADF80000BDF80000002853
:10F82000DED101206060ADF80050BDF8000000B3EB
:10F83000BDF80000401EADF80000BDF80000C0B1EA
:10F84000BDF80000401EADF80000BDF8000080B11A
:10F85000BDF80000401EADF80000BDF8000040B14A
:10F86000BDF80000401EADF80000BDF80000002803
:10F87000DED100206060ADF80050BDF8000000B39C
:10F88000BDF80000401EADF80000BDF80000C0B19A
:10F89000BDF80000401EADF80000BDF8000080B1CA
:10F8A000BDF80000401EADF80000BDF8000040B1FA
:10F8B000BDF80000401EADF80000BDF800000028B3
:10F8C000DED17F1E761CBFB2002F7FF44DAE00202C
:10F8D0006060C4F80000ADF80050BDF8000000B34F
:10F8E000BDF80000401EADF80000BDF80000C0B13A
:10F8F000BDF80000401EADF80000BDF8000080B16A
:10F90000BDF80000401EADF80000BDF8000040B199
:10F91000BDF80000401EADF80000BDF80000002852
:10F92000DED101206060ADF80050BDF8000000B3EA
:10F93000BDF80000401EADF80000BDF80000C0B1E9
:10F94000BDF80000401EADF80000BDF8000080B119
:10F95000BDF80000401EADF80000BDF8000040B149
:10F96000BDF80000401EADF80000BDF80000002802
:10F97000DED101202060ADF80050BDF8000000B3DA
:10F98000BDF80000401EADF80000BDF80000C0B199
:10F99000BDF80000401EADF80000BDF8000080B1C9
:10F9A000BDF80000401EADF80000BDF8000040B1F9
:10F9B000BDF80000401EADF80000BDF800000028B2
:10F9C000DED1012002B0BDE8F08100006400FE43FA
:10F9D00070B50C46064615464FF4807100F092F85B
:10F9E0003248710950F82100012106F01F029140B0
:10F9F000002C426903D122EA0101416170BD0A4332
:10FA00004261002D02680CBF22EA0101114301602E
:10FA100070BDF0B5254F81B0460900F01F0557F8BD
:10FA200026004069E840C0070C4604D463210FF269
:10FA3000800000F0A5F857F8260002680121A940CF
:10FA4000002C0CBF22EA01011143016001B0F0BD9E
:10FA500070B5164D440900F01F0655F824004069A2
:10FA6000F040C00704D47B210FF2440000F088F876
:10FA700055F824100120B040C86070BD70B50B4E21
:10FA8000450900F01F0456F825004069E040C00712
:10FA900004D58C210FF2180000F072F856F82500FA
:10FAA0000069E04000F0010070BD0000240DFF1F60
:10FAB000433A5C55736572735CD1EED3EEB8D65C95
:10FAC0004465736B746F705CB3CCD0F2B7D6C0E092
:10FAD000B9DCC0ED5CCBABD1DBC5B7C5DDB9FBC4D0
:10FAE000CC32303137C4EA38D4C23137C8D55C4360
:10FAF0006869705C7372635C4D4B36305F67706928
:10FB00006F2E630030B41C4A4FF40074136845092B
:10FB1000AC40234313604309184A52F823200123C1
:10FB200000F01F04A340C2F8A03000F01F0042F80C
:10FB3000201030BC704730B40F4A4FF40074136883
:10FB40004509AC402343136043090C4A52F8232073
:10FB5000012300F01F04A340C2F8A03000F01F00F2
:10FB600052F8203021F4E06103F4E063194342F8D5
:10FB7000201030BC7047000038800440940DFF1FF7
:10FB800070B504460D46002000F066F80FF2A4069A
:10FB90002A462146304600F095F8002000F07AF819
:10FBA0004FF47A7000F0A0F8F2E710B5044661B2A5
:10FBB000042000F098F9204610BD70B50C48046888
:10FBC000E4B2012000F048F80A480FF22C06C4EB1A
:10FBD00004110D18012000F05DF82A462146304638
:10FBE00000F070F84FF47A7000F07EF8F2E7000051
:10FBF00004ED00E0FC05FF1F0A2A2A2A2A64656634
:10FC000061756C745F69737220656E74657265648A
:10FC1000206F6E20766563746F722025642A2A2A0D
:10FC20002A2A0A0A257320496E74657272757074E7
:10FC300000000000417373657274696F6E20666125
:10FC4000696C656420696E202573206174206C697D
:10FC50006E652025640A000010B50428184C03DAEC
:10FC6000005D0122012111E0E07801220121FFF76E
:10FC7000AFFE0122A0781146FFF7AAFE01226078AC
:10FC80001146FFF7A5FE012220781146BDE810407D
:10FC9000FFF79EBE10B50A4C0428B8BF005D09DB13
:10FCA000E078FFF7D5FEA078FFF7D2FE6078FFF787
:10FCB000CFFE2078BDE81040FFF7CABE000000006C
:10FCC0002017FF1F0EB400B582B003A900910246B1
:10FCD00000AB0121034878440A3000F051F906BC1A
:10FCE0005DF810FB096900002DE9F04107460E4C54
:10FCF0000FF23C080D4EA7B135687F1E002DFAD0DB
:10FD0000B5F1807F03D329214046FFF739FF00205A
:10FD100020606560A060052020602068C003FCD5DD
:10FD2000E9E7BDE8F081000010E000E048D4FF1FE3
:10FD3000433A5C55736572735CD1EED3EEB8D65C12
:10FD40004465736B746F705CB3CCD0F2B7D6C0E00F
:10FD5000B9DCC0ED5CCBABD1DBC5B7C5DDB9FBC44D
:10FD6000CC32303137C4EA38D4C23137C8D55C43DD
:10FD70006869705C7372635C4D4B36305F537973A6
:10FD80005469636B2E630000F0B5052881B0074607
:10FD90000C465AD8DFE800F00312202E3C4ADFF868
:10FDA0007C01C16841F48061C16066204FF44071FC
:10FDB000FFF7A8FE4FF44071672044E05748C16840
:10FDC00041F40061C16043204FF44071FFF79AFE97
:10FDD0004FF44071442036E05048C16841F48051EE
:10FDE000C16063204FF44071FFF78CFE4FF4407107
:10FDF000622028E04948C16841F40051C1605020A8
:10FE00004FF44071FFF77EFE4FF4407151201AE02D
:10FE10004248016841F48061016099204FF44071CB
:10FE2000FFF770FE4FF4407198200CE03B480168EA
:10FE300041F40061016089204FF44071FFF762FED8
:10FE40004FF440718820FFF75DFE354E3D4656F871
:10FE50002500C17801F0F301C170002F56F825008C
:10FE60008178817016BF012D2E482F484FF47A718A
:10FE7000006848432101B0FBF1F7BFB2B7F5005F5E
:10FE8000A8BF41F6FF77B0FBF4F0A0EB0714A4B2D3
:10FE9000202C04DBDC210FF29400FFF771FE56F8F2
:10FEA000250001783A0A01F0E00102F01F02114337
:10FEB000017004F01F0256F82500477056F825001F
:10FEC000817A01F0E0011143817256F82500017C2E
:10FED00041F08801017456F82500C17841F00C0109
:10FEE000C17001B0F0BD0E4A52F82000027912062E
:10FEF000FCD5C1717047000002B9704770B4084B5F
:10FF000091F9004053F82050521E2E793606FCD548
:10FF1000491C002AEC71F3D170BC70472880044062
:10FF2000A80DFF1F48D4FF1F50D4FF1F433A5C5554
:10FF3000736572735CD1EED3EEB8D65C4465736BB7
:10FF4000746F705CB3CCD0F2B7D6C0E0B9DCC0ED52
:10FF50005CCBABD1DBC5B7C5DDB9FBC4CC3230312E
:10FF600037C4EA38D4C23137C8D55C436869705C9D
:10FF70007372635C4D4B36305F756172742E630033
:10FF80002DE9F04FA1B08246002017461D46029190
:10FF90000B900DF1440B6FF000490AE017F8011BBC
:10FFA0000298D0470290002800F0A2820B98401CD3
:10FFB0000B90387808B90B989CE22528EED10020E8
:10FFC000059006900790089009900A9001E040F093
:10FFD000010017F8011F2029F9D023290DD02B2962
:10FFE00004D02D2906D030290AD00CE040F00200C0
:10FFF00080B2EEE740F00400FAE740F00800F7E7CF
:020000040001F9
:1000000040F01000F4E72A290ED12968296051F840
:10001000042B2960002A0D9204D5514240F00400BF
:100020000D9180B27F1C11E000210D9109E00D9926
:10003000494505D001EB810302EB430130390D91B5
:100040007F1C3A78A2F130010A29F0D339782E29A1
:1000500003D04FF0FF310C911DE017F8011F2A2942
:1000600007D1296829607F1C51F8042B29600C9264
:1000700011E000210C9109E00C99494505D001EBF4
:10008000810302EB430130390C917F1C3A78A2F1D5
:1000900030010A29F0D3ADF838000FF6B8203978CE
:1000A00000F076FD08B117F8010B8DF83A009DF8C5
:1000B0003A00682802BF39786829622005D06C2888
:1000C00004BF38786C2803D171208DF83A007F1C6A
:1000D00011A8049017F8014BB4F1250024D0203862
:1000E000022840F2C580133800F0EB800B3800F096
:1000F0004F81401E00F02481401E022840F2B8804B
:10010000001F00F01D81401F00F08380401E00F0A2
:10011000D880401E29D0C01E0CD0801E00F0D18097
:10012000C01E00F0CE803DE10120059025208DF815
:10013000440043E12868286050F8044B2860039489
:10014000DDF83080B8F1000F04D5204600F02CFD1A
:10015000804607E042460021204600F041FD08B1FC
:10016000A0EB0408CDF8188028E1296829604FF039
:100170003C0851F8040B29600021CDE9000111A8C9
:100180000390DDE90001049C11B908B90C9AC2B1D1
:100190000206120FA0EB02123032D2B23A2AA8BFE6
:1001A00027320009A8F1010340EA017009091A5534
:1001B00008BF0028984604D0039A08EB04039A422B
:1001C000E6D308EB04000390C8F13C010C980691BB
:1001D000814209DA401A08904FF6EF71BDF83800F5
:1001E0000840ADF83800E9E0002840F1E7809DF8CC
:1001F000380000F01400102840F0E0800D98059AB7
:10020000801A089A801A401A0128C0F2D7800890F4
:10021000D4E09DF83A0062281AD0682806D06A28EF
:100220000CD06C281CD0712808D019E028682860F0
:1002300050F8041B28600B980880BFE028682860ED
:1002400050F8042B28600B98C117C2E90001B5E0F3
:100250002868286050F8041B28600B980870ADE0EF
:100260002868286050F8041B28600B980860A5E0F7
:100270002868C01D20F007022A60D2E90001083278
:100280002A60CDE90001002903D5012005902D2029
:100290000CE0BDF83800810703D5012005902B2024
:1002A00004E0C00704D50120059020208DF844000B
:1002B000059911A808180390214600A800F0D8F964
:1002C0007CE09DF83A206C2A0DD0712A18BF6A2A6A
:1002D00009D12868C01D20F007032B60D3E9000175
:1002E00008332B6005E02968296051F8040B296068
:1002F0000021CDE90001682A08BF80B207D0622A38
:1003000008BFC0B203D0742A18BF7A2A02D10021D4
:10031000CDE900019DF83800000730D5DDE9000186
:10032000002908BF00282AD044F02000782826D1D0
:1003300030208DF844008BF80140022005901EE02B
:100340009DF83A00294600F0D8F8CDE900010029CF
:1003500004DA0598411C05912D210EE0BDF8380006
:10036000810704D50598411C05912B2105E0C007A4
:1003700005D50598411C0591202100F80B10059921
:1003800011A808180390214600A800F0EDF815E028
:10039000012005902868286050F8041B28608DF81B
:1003A00044100BE0012005902520002C8DF844001E
:1003B00004D00598411C059100F80B400D98059953
:1003C000401A0899401A0699401A0999401A079943
:1003D000401A0A99A0EB01089DF8380040070FD495
:1003E00020208DF84000002408E0012310AA00A975
:1003F000504600F098FB00287AD1641C4445F4DB99
:10040000059C11AE0AE016F8011B0298D047029035
:1004100000286DD00B98401C0B90641E002CF2D16C
:1004200030208DF840000026089C08E0012310AA27
:1004300000A9504600F077FB002859D1761CA6424F
:10044000F4DB069C039E0AE016F8011B0298D047D5
:10045000029000284CD00B98401C0B90641E002C7E
:10046000F2D130208DF840000026099C07E00123DE
:1004700010AA00A9504600F056FBC8BB761CA64245
:10048000F5DB03980699079C0E1809E016F8011B86
:100490000298D047029058B30B98401C0B90641EF2
:1004A000002CF3D130208DF8400000260A9C07E094
:1004B000012310AA00A9504600F035FBC0B9761CF4
:1004C000A642F5DB9DF8380040077FF572AD20208D
:1004D0008DF84000002400E0641C4445BFF669AD7F
:1004E000012310AA00A9504600F01DFB0028F3D0FC
:1004F0004FF0FF3021B0BDE8F08F622826D0682889
:100500001DD06A2808D06C2827D0712804D0742800
:1005100023D07A280CD020E00868C01D20F0070006
:100520000860D0E90023083008601946104670477B
:100530000A680A6052F8040B0A60002170470A68D2
:100540000A6052F8040B0A6000B20BE00A680A6005
:1005500052F8040B0A6040B204E00A680A6052F8DC
:10056000040B0A60C11770472DE9FA4E05460A468A
:100570002F696F2A08BF082405D041F02000782891
:1005800014BF0A2410243C26D5E90001642A18BFB0
:10059000692A81468A4605D1002903DAD9F1000982
:1005A0006AEB4A0ABAF1000F08BFB9F1000F0CD18B
:1005B000286B50B9082C36D195F83800000732D591
:1005C00030203B2687F83B002DE0E3174846514694
:1005D000224600F031FBA4FB0023A9EB02023032DB
:1005E000D2B2A6F1010B3A2A5E4603DB9DF8003039
:1005F000513B9A1881465FEA010A0BF8072008BFB1
:10060000B9F1000F03D0E868F1198842DDD3082C56
:1006100009D195F83800000705D5F05D302802D0E3
:10062000761E3020F055C6F13C00A861F119E96052
:10063000296B884208DA081A28624FF6EF71288F72
:1006400008402887BDE8F38E00290ED595F83810AC
:1006500001F01401102908D1696B6A69891A2A6AA4
:10066000891A081A0128A8BF2862BDE8F38E000085
:100670002DE9F34F8BB0D0E90089006B002801AF62
:1006800048BF062005D404BF41F02000672802D1EE
:1006900001200B99086340F2FF720B984168C1F387
:1006A0000A50904220D1080302BF0B98006800282E
:1006B0000AD10B99032088619DF8300061381A280F
:1006C00058D30FF2A44109E00B99032088619DF8EB
:1006D000300061381A284AD30FF284410B98C06861
:1006E000032200F021FB00E1012807DA0B9800F05B
:1006F00056FB012802DB00230026EDE00B9ADFF811
:1007000054B1526840F2FE3161F31E520B994A60B7
:1007100040F2FE31461A404649460022002300F0CE
:100720005FFB38BF89F0004936B247F297507043FB
:10073000494990FBF1F636B2C6F10707012F924600
:100740001BDBF80707D552465B464046494600F09A
:100750005FFB804689467F105046594652465B46AD
:1007600000F056FB002F82468B46EAD126E00FF2BE
:10077000EC31B3E70FF2EC31B0E77F420024374DA4
:1007800012E0F80707D552465B462046294600F09E
:100790003FFB04460D467F105046594652465B4685
:1007A00000F036FB82468B46002FEAD14046494690
:1007B00022462B4600F0FEFB804689469DF830001D
:1007C0000B99DFF89CB0096B40F02005662D0CBF3B
:1007D00006F10A0006204718142FA8BF132730205F
:1007E0008DF804000DF10504012F3BDB404649461E
:1007F00000F01AFD014604F1080204234FF00A0C30
:10080000B1FBFCFC0CEB8C04A1EB4401303102F891
:10081000011D0A21BCFBF1FE0EEB8E04ACEB44047F
:1008200030345B1E714602F8014DE7D1083F012FBD
:1008300002F10804D8DB00F017FD02460B464046E3
:10084000494600F01FFD00225B4600F0E1FA8046B9
:100850008946CBE700002440A08601000000F03F5D
:1008600084D797410DF10500201A0DF1050702E02C
:10087000401E761E7F1C39783029F9D0662D02D1B2
:1008800036B2711C03E0652D0CBF012100210B9ACB
:10089000126B8B181BB29842B8BF03461BB21900EB
:1008A0001AD4814204DAC85D3528A8BF392000DA9D
:1008B0003020CA19521E00E05B1E12F80159491E71
:1008C0008542F9D0392802D1C85D401CC85500299D
:1008D00002D57F1E5B1C761C36B29DF830100B983B
:1008E00000961BB23A4600F003F80DB0BDE8F08F59
:1008F0002DE9F04786B006468A4690461D4600F030
:100900009EFD406A376B90F80090012D02DA0125B8
:100910000FF258284AF02000BDF93840662808BF79
:10092000641C13D0672840F0888014F1040F73DB37
:10093000BC4271DA96F83800641C000702D4BD424C
:10094000B8BF2F4624B23F1B48BF002724B2F0682F
:10095000B169012C21DA4A1C30230B54012F03DA30
:1009600096F83810090702D502F80090521CE742A9
:10097000B8BF7C4224B26142E719AF42B261B8BF4E
:100980003D4671622DB2F5612A46B3694146181899
:1009900000F0CAF9781BB062AEE00818A54216DA7A
:1009A0002A46414600F0C0F9B1696918601BB1617F
:1009B000012F706203DA96F83800000705D5F06859
:1009C00001F80090F069401CF061B76294E02246A3
:1009D000414600F0A9F9B06920182D1B012F03DA58
:1009E00096F83810090703D5F16800F80190401C0B
:1009F000B0612DB2AF42B8BF3D46F068B3692DB2C9
:100A00002A4604EB0801181800F08EF9B06928187E
:100A1000B061781B70626FE0BD4204DA96F838105E
:100A2000090758BF2F467F1E48BF0027BAF1670F3E
:100A30000CBF4FF0650A4FF0450AB169F06818F82D
:100A4000013B0B544A1C012F05DA96F838100907B0
:100A500058BFB26115D502F80090531C012FB36145
:100A60000FDB6D1E2DB2AF42B8BF3D462DB22A46F8
:100A70004146181800F058F9B0692818B061781B81
:100A80007062F068B16901EB0008200008F801AB62
:100A900003D42B2008F8010B03E02D2108F8011BDB
:100AA0006442002502AF08E00A2200A800F0E0FC42
:100AB000019807F8010B6D1C009C21B20129F3DAA3
:100AC000022D06DA4AF02000652804BF302008F81D
:100AD000010B4DB9302008F8010B07E06D1E02A88C
:100AE000285C303008F8010B012DF7DAF068B169A5
:100AF0000818A8EB0000F06196F8380000F0140028
:100B000010280DD17069B1690818716A0818F16967
:100B10000818B16A0818716B8842BCBF081A3062A5
:100B200006B0BDE8F087F8B504460D4616461F46E8
:100B3000002004E0E86A401CE8627F1E002047B104
:100B400016F8011BA868A047A8600028F2D14FF052
:100B5000FF30F2BD686A6C747A4C00006E616E0002
:100B60004E414E00696E6600494E4600300050F816
:100B7000041B61B150F8042BD30744BFA9F1010352
:100B80009A180023091F42F8043BFAD1EFE7704797
:100B90000278C9B28A421AB11CBF10F8012FF9E7D6
:100BA00018BF00207047000000F10103810704D046
:100BB00010F8011B89B18107FAD10268B2F1013145
:100BC000914311F0803F04BF50F8042FF6E710F86E
:100BD000011B11B110F8011BFBE7C01A70470000A0
:100BE000C9B2830706D0521E22D310F8013B9942A6
:100BF000F7D11FE0083A13D302F1040241EA0121C0
:100C000041EA014150F8043B121F21BF4B40A3F1C0
:100C1000013C2CEA030C1CF0803FF3D0C9B2001F4A
:100C2000083210F8013B521E28BF91EA030FF8D892
:100C300018BF0120401E70471B4213D1094236D114
:100C40002AB18446B0FBF2F002FB10C2704700F0FC
:100C500017BCFCD30022002370470B0002000021C8
:100C600000207047904271EB030CF6D370B5B1FAD7
:100C700081F4B3FA83F52C1BA340C4F1200532FAAA
:100C800005F63343A2405FF00046E64002E05B0811
:100C90005FEA3202841A71EB030524BF204629461D
:100CA0007641F4D302000B003000002170BD012A10
:100CB000CFD970B5140C20D0B1FA81F4B2FA82F514
:100CC000C4F120046419B4F12006D6D3B2405FF019
:100CD0000044F440002502E052085FEA3303C61ADC
:100CE00071EB020E24BF3046714664416D41F3D36F
:100CF00002000B002000290070BD0C46B1FBF2F190
:100D000002FB11452D0445EA1045B5FBF2F402FB48
:100D1000145580B240EA0545B5FBF2F002FB1052D3
:100D200040EA044070BD000062B38B0708D0521E39
:100D300011F8013B00F8013B00F024808B07F6D14D
:100D4000830740F0208000BF103A07D330B4B1E8E9
:100D50003810103AA0E83810F9D230BC530724BF3D
:100D6000B1E80810A0E8081044BF51F8043B40F86F
:100D7000043BD20724BF31F8022B20F8022B44BFDA
:100D80000B7803707047083A07D3B1E80810083AA7
:100D900040F8043B40F804CBF7D25307E4E730B403
:100DA000436803F0004201211B031B0B436004BF97
:100DB0000368002B08D10DE00368DD0F45EA440409
:100DC00044605B000360491E4468E302F4D52303DA
:100DD0001B0B436043681A434260084630BC7047AF
:100DE0004FF4001C1CEB410F94BF1CEB430F09E0B8
:100DF00041EA030C50EA4C0C52EA0C0C03D2994223
:100E000008BF9042704714BF8B4282427047000077
:100E1000B0B581EA030C0CF0004C40F2FF7515EA06
:100E200011541DBF15EA1357AC42AF4239E0E41923
:100E300023EA455343F48013C90241F0004141EADB
:100E4000505EC7021100A7FB020200284FF000000D
:100E5000EEFB01204FF00001E3FB072118BF42F039
:100E60000102401800214941E3FB0E01A4F5806412
:100E70000F0302D252004041494154F101046CDD9C
:100E8000470872F1004250F1000051EB0451A1F506
:100E900080115CBF41EA0C01B0BD4CEA0551002055
:100EA000B0BD05EA1357AC4214BFAF4241E050EA6F
:100EB000410E1CBF52EA430E02E061460020B0BD65
:100EC00024423C441BD15FEA070EF6D0090302BF5F
:100ED00001460020AEF1140EB1FA81F7AEEB070423
:100EE00001FA07FE0C37C7F1200100FA07F7C840E6
:100EF0004EEA000E23EA455343F48013A2E733F091
:100F00000043B3FA83F704BFB2FA82FE77440B3F83
:100F1000E41BB7F1200E2FBF02FA0EF3BB40C7F15E
:100F2000200E22FA0EFE38BF43EA0E03BA40641CBC
:100F300082E750EA410E14BF52EA430E6FF00001FF
:100F40004FF4001717EB430F8ABF194617EB410FF9
:100F5000B5E74CEA05510020B0BDD4F10104B4F16D
:100F600020070FDAC4F12007520828BF42F001021F
:100F700010FA07F501FA07F7E1BF2A43E0403843CA
:100F8000E1400FE0352C98DCC7F1200452EA400222
:100F900020FA07F218BF42F0010231FA07F0A1402F
:100FA0000A43002172F1004250F1000051EB0C01A4
:100FB000B0BD0000F0B540F2FF7581EA030C0CF003
:100FC000004C15EA11541DBF15EA1357AC42AF424D
:100FD000E5E0BC41C1F31301C3F31303801A994147
:100FE00043F4801304D2641E4000494180185941E3
:100FF000C90241EA5051B1FBF3F603FB1611A2FB03
:101000000675D7EBC020A94102D2761E801859413F
:10101000C90241EA5051B1FBF3FE03FB1E11A2FBD2
:101020000E75D7EBC020A94103D2AEF1010E801896
:101030005941890241EA9051760546EA8E2EB1FB6C
:10104000F3F603FB1611A2FB0675D7EB8020A9412E
:1010500002D2761E80185941C90241EA50514EEA27
:10106000060EB1FBF3F603FB1611A2FB0675D7EBD8
:10107000C020A94102D2761E80185941C90241EA16
:101080005051B1FBF3F703FB1711A2FB0735D3EB6C
:10109000C020A94167F100070CBF004247F00107DB
:1010A00066F3D5274FEA1E31B80814F5806412DDC7
:1010B000BD0775F1004250EB0E5051EB045111F594
:1010C000801F5CBF41EA0C01F0BD4CF07F6141F034
:1010D000E0410020F0BDBD076D0840EA0E5041F42C
:1010E0008011D4F10104B4F120060ADAC4F120061B
:1010F0000200E04001FA06F3E1401843B240154314
:101100000EE0342C13DCC6F1200445EA40056D08DE
:1011100020FA06F2154321FA06F0A1400D43002102
:1011200075F1004250F1000051EB0C01F0BD0020C0
:101130005FEA0C01F0BDCFB992185B41B3FA83F7B7
:1011400004BFB2FA82F6BF190B3FB7F120062FBFDA
:1011500002FA06F3BB40C7F1200622FA06F638BFB2
:101160003343BA401CB1E419641E33E77F4231F0C7
:101170000041B1FA81F404BFB0FA80F6A4190B3C27
:10118000B4F120062FBF00FA06F1A140C4F12006F9
:1011900020FA06F638BF3143A0403C1B1AE7AC42A8
:1011A0001ABF05EA1357AF4212E050EA41061CBFCE
:1011B00052EA4306BFE750EA4107304661461CBF8A
:1011C00041EA0551F0BD52EA430C08BFC143F0BDEE
:1011D00000204FF4001616EB410F98BF16EB430F9B
:1011E00008BF16EB410F24BFC14305E016EB430FC8
:1011F0000CBF61464CEA0551F0BD0000F446400DBD
:1012000040EAC120490006D200F014F8004248BF6D
:101210006FF00040604700F00DF84FF00041884249
:101220008CBF084640426047400D40EAC12049005B
:1012300080F00D8040F00040490DA1F58061491C0F
:1012400005D4D1F11F0154BFC840C01770474FF0FB
:1012500000007047010040F10980F446404200F070
:1012600005F851F000416047010000BF09D0B0FA15
:1012700080F18840C91CC1F58461090501EBD021CA
:101280004005704770B44FF0004591EA030F44BF2A
:101290006B4000F001B900BF841A71EB030604D261
:1012A0006E40001BB141121973414FF4001C1CEB3E
:1012B000410F34BF7CEB430684E00C0DA4EB1356C6
:1012C000362E7DDC012E43DC45EAC32343EA52532C
:1012D00012BFD20292025B08240545EAC12141EA0D
:1012E0005051D2EBC020994125D407D1B0FA80F6F5
:1012F00010FA06F164D00020203608E0B1FA81F639
:10130000B140C6F1200220FA02F21143B0404FEA88
:10131000F474B4EB465434F001064FEA74040AD86E
:10132000D6F50016760D04F00044F04061FA06F29E
:101330005040F1404840C00A40EA415021F000418D
:1013400028BF5FEA500550F1000044EBD12137E09F
:1013500045EAC323DB0A45EAC121C90AB6F12005E3
:101360000EDD42EA0242120CC5F1200603FA06F62F
:10137000EB4042EA06056D42984161F100010DE043
:1013800062FA06F5F240554063FA06FC82EA0C0266
:10139000F3405A406D42904161EB030111F4801F0C
:1013A00005D1641E620502D06D004041494121F41F
:1013B0008011430875F1004350F1000041EB0451E6
:1013C00070BC70471CEB410F15D223F0004352EA6A
:1013D00043060BD04FEA4C0CBCEB410F04D80C0D6C
:1013E000661E342EB7DDEBE7801A994150EA4106BC
:1013F00008BF0021E4E708BF1CEB430F28BF6FF0D4
:101400000001DDE780B5134800F0B0F80FF24801A5
:10141000016041608160C1600161416181610FF2E1
:101420003C0242628162C162016341630FF2300299
:1014300082630FF23402C2630164416401BD10B5DE
:10144000044800F093F80446206808B9FFF7DAFF73
:10145000204610BD98D5FF1F000000002E000000A0
:1014600066616C73650000007472756500000000B1
:1014700091FBF2F303FB1211C0E900317047000049
:101480007047000070B44FF0004591EA030C44BF70
:101490006B40FFF701BF00BF841A71EB030603D254
:1014A000001BB141121973414FF4001C1CEB410F9A
:1014B00034BF7CEB430443E00C0DA4EB1356352EF4
:1014C00050DC45EAC323DB0A45EAC121C912B6F163
:1014D00020050DDD63FA05F6EB4086EA03051242AE
:1014E00018BF45F00105C01851F100010CD213E0FE
:1014F00062FA06F5F2405540F3415A40B340F340DA
:101500005A408018594107D349085FEA30005FEA22
:10151000350528BF45F0010501F58011420875F138
:10152000004250F1000041EB045170BC4FF4001C2C
:101530001CEB410F38BF70470020090D09057047AB
:101540001CEB410F10D252EA43060BD0BCEB410F0B
:1015500005D80C0DAB43661E342EB5DD02E0AB435F
:101560008018594170BC704770BC704770470000CC
:10157000DFF8901A00220A618A6000F08002531E90
:101580009B41DB43DB0F4B6000220A6040000122DD
:101590000A6000F08002531E9B41DB43DB0F4B606F
:1015A00000220A60400001220A6000F08002531EFF
:1015B0009B41DB43DB0F4B6000220A6040000122AD
:1015C0000A6000F08002531E9B41DB43DB0F4B603F
:1015D00000220A60400001220A6000F08002531ECF
:1015E0009B41DB43DB0F4B6000220A60400001227D
:1015F0000A6000F08002531E9B41DB43DB0F4B600F
:1016000000220A60400001220A6000F08002531E9E
:101610009B41DB43DB0F4B6000220A604006012246
:101620000A60020E521E9241D243D20F4A6000203D
:1016300008600120086008617047DFF8C8190022BF
:101640000A6101228A6000F08002531E9B41DB4345
:10165000DB0F4B6000220A60400001220A6000F0AC
:101660008002531E9B41DB43DB0F4B6000220A606C
:10167000400001220A6000F08002531E9B41DB43C0
:10168000DB0F4B6000220A60400001220A6000F07C
:101690008002531E9B41DB43DB0F4B6000220A603C
:1016A000400001220A6000F08002531E9B41DB4390
:1016B000DB0F4B6000220A60400001220A6000F04C
:1016C0008002531E9B41DB43DB0F4B6000220A600C
:1016D000400001220A6000F08002531E9B41DB4360
:1016E000DB0F4B6000220A60400601220A60020EF6
:1016F000521E9241D243D20F4A600020086001205E
:10170000086008617047DFF8FC1800230B61020ACB
:1017100001238B6002F08003B3F1010C6CEB0C0C25
:101720006FEA0C0C4FEADC7CC1F804C000230B60AC
:10173000520001230B6002F08003B3F1010C6CEB4B
:101740000C0C6FEA0C0C4FEADC7CC1F804C00023DF
:101750000B60520001230B6002F08003B3F1010C17
:101760006CEB0C0C6FEA0C0C4FEADC7CC1F804C08B
:1017700000230B60520001230B6002F08003B3F1E1
:10178000010C6CEB0C0C6FEA0C0C4FEADC7CC1F822
:1017900004C000230B60520001230B6002F08003A1
:1017A000B3F1010C6CEB0C0C6FEA0C0C4FEADC7C17
:1017B000C1F804C000230B60520001230B6002F04B
:1017C0008003B3F1010C6CEB0C0C6FEA0C0C4FEACC
:1017D000DC7CC1F804C000230B60520001230B60C5
:1017E00002F08003B3F1010C6CEB0C0C6FEA0C0CF3
:1017F0004FEADC7CC1F804C000230B6052060123D1
:101800000B60130E5B1E9B41DB43DB0F4B60002222
:101810000A6001220A600A6100220A6101228A60CC
:1018200000F08002531E9B41DB43DB0F4B60002224
:101830000A60400001220A6000F08002531E9B41B2
:10184000DB43DB0F4B6000220A60400001220A608C
:1018500000F08002531E9B41DB43DB0F4B600022F4
:101860000A6001220A60400000F08002531E9B4182
:10187000DB43DB0F4B6000220A60400001220A605C
:1018800000F08002531E9B41DB43DB0F4B600022C4
:101890000A60400001220A6000F08002531E9B4152
:1018A000DB43DB0F4B6000220A60400001220A602C
:1018B00000F08002531E9B41DB43DB0F4B60002294
:1018C0000A60400601220A60020E521E9241D24373
:1018D000D20F4A600020086001200860086170474C
:1018E00010B5002201218420FEF772F800220121A8
:1018F0008120FEF76DF8002201218220FEF768F8B2
:10190000002201218320FEF763F8002201218520B7
:10191000FEF75EF8002201218020FEF759F8DFF87B
:10192000E4460020E0609620FEF7DEF90120E0604A
:101930009620FEF7D9F9CB20FFF71AFE3920FFF7E2
:101940007CFE2C20FFF779FE0020FFF776FE342086
:10195000FFF773FE0220FFF770FECF20FFF708FEAF
:101960000020FFF76AFEC120FFF767FE3020FFF777
:1019700064FEE820FFF7FCFD8520FFF75EFE0020F7
:10198000FFF75BFE7820FFF758FEEA20FFF7F0FD37
:101990000020FFF752FE0020FFF74FFEED20FFF77B
:1019A000E7FD6420FFF749FE0320FFF746FE122003
:1019B000FFF743FE8120FFF740FEF720FFF7D8FD39
