:10000000F8FF0020110400004F2400004F240000DE
:100010004F2400004F2400004F2400004F24000014
:100020004F2400004F2400004F2400004F24000004
:100030004F2400004F2400004F2400004F240000F4
:100040004F2400004F2400004F2400004F240000E4
:10040000FFFFFFFFFFFFFFFFFFFFFFFFFEFFFFFFFD
:1004100062B604F0CFFAFEE7F8B4DFF8103D1B88AF
:10042000ADF8003005000C001600721E002E3AD008
:1004300026783300641C00AEDBB2DF11BE5D2E7087
:100440006D1C00AEC3F38017FFB2BE5D2E706D1C35
:1004500000AEC3F34017FFB2BE5D2E706D1C00AE40
:10046000C3F30017FFB2BE5D2E706D1C00AEC3F368
:10047000C007FFB2BE5D2E706D1C00AEC3F38007D7
:10048000FFB2BE5D2E706D1C00AEC3F34007FFB21D
:10049000BE5D2E706D1C00AEDBB213F00107BE5DB9
:1004A0002E706D1CC0E7F1BC70472DE9F04FC3B052
:1004B00000245FF00009002500265FF0000A5FF0CD
:1004C000000B00270020ADF818005FF0000803A81B
:1004D0000021002200230EC00C3800A800210022B9
:1004E00000230EC00C3807A8F02100F035FE0021D3
:1004F0000020002291464FFA89F9B9F1780F10DAFD
:100500000022DFF82C3C4FFA89F923F819209F22AA
:10051000DFF8203C4FFA89F923F8192019F1010975
:10052000E9E7742291464FFA89F9B9F1010FC0F257
:10053000ED814FFA89F9B9F1150F08DA8622DFF853
:10054000F83B1A801922DFF8F43B1A8007E00422F6
:10055000DFF8E83B1A809D22DFF8DC3B1A80DFF8E9
:10056000DC2BB2F9002009B2914204DADFF8CC2B7F
:10057000B2F900201100DFF8C42BB2F900201100FD
:100580008846DFF8B42BB2F900200FFA88F89045BE
:1005900080F23B81DFF8A82B4FFA89F9A02319FBE1
:1005A00003220FFA88F818F80220DFF8943B4FFA7C
:1005B00089F95FF0A00C19FB0C330FFA88F818EBDF
:1005C00003035B789A4280F09C80DFF8742B4FFA2B
:1005D00089F9A02319FB03220FFA88F818EB02020D
:1005E00012F8012CDFF8583B4FFA89F95FF0A00CA4
:1005F00019FB0C330FFA88F818EB03039B789A4227
:1006000080F07F80DFF8282B4FFA89F932F9192022
:10061000002A76D1DFF8182B4FFA89F922F81980D1
:100620006DB2002D02D119F103021500DFF8002B85
:100630004FFA89F932F91920DFF8F43A4FFA89F9BB
:1006400013EB4903B3F90230D21A012A0FDBDFF8AA
:10065000E02A4FFA89F932F91920DFF8D43A4FFA33
:1006600089F913EB4903B3F90230D21A0EE0DFF82F
:10067000C02A4FFA89F912EB4902B2F90220DFF8D9
:10068000B03A4FFA89F933F91930D21A0A2A38DA0E
:10069000DFF89C2A4FFA89F912EB4902B2F90420DB
:1006A000DFF88C3A4FFA89F913EB4903B3F90230BA
:1006B000D21A012A11DBDFF8781A4FFA89F911EB07
:1006C0004901B1F90410DFF8682A4FFA89F912EBF1
:1006D0004902B2F90220891A10E0DFF8541A4FFAE1
:1006E00089F911EB4901B1F90210DFF8442A4FFAF8
:1006F00089F912EB4902B2F90420891AB8EB010119
:100700000839DFF83C2A4FFA89F9A02319FB0322A4
:100710000FFA88F818F80220DFF8243A4FFA89F91E
:100720005FF0A00C19FB0C330FFA88F818EB0303E9
:1007300013F8013C9A4265D2DFF8042A4FFA89F98E
:10074000A02319FB03220FFA88F818EB0202527853
:10075000DFF8EC394FFA89F95FF0A00C19FB0C3384
:100760000FFA88F818EB030313F8023C9A4249D2B7
:10077000DFF8CC294FFA89F9A02319FB03220FFADD
:1007800088F818EB02025279002A04D10FFA88F88F
:10079000B8F19B0F04DB0FFA88F8B8F19B0F31DB3F
:1007A000DFF890294FFA89F932F919209F2A29D1C7
:1007B0006DB2002D00D14D460FFA88F8B8F19B0FAD
:1007C00006DBDFF870294FFA89F922F819801CE05E
:1007D000DFF86C294FFA89F9A02319FB03220FFADD
:1007E00088F818EB02025279002A0BD10FFA88F828
:1007F000B8F19B0F06DADFF83C294FFA89F922F8A5
:10080000198002E018F10108BBE6DFF828294FFA49
:1008100089F932F81920DFF818394FFA89F933F8D5
:100820001930D21A07AB4FFA89F923F8192007AA11
:100830004FFA89F932F91920292A05DB002207AB82
:100840004FFA89F923F819204FFA89F9B9F1750F90
:100850002CDA07AA4FFA89F932F91920012A25DB87
:1008600007AA4FFA89F912EB4902B2F90220012ACC
:100870001CDB07AA4FFA89F912EB4902B2F90420EE
:10088000002A13D107AA4FFA89F912EB4902B2F9EB
:100890000620002A0AD14FFA89F919F1010203ABA7
:1008A0004FFA8AFA23F81A201AF1010A07AA4FFA16
:1008B00089F932F91920002A25D107AA4FFA89F9B6
:1008C00012EB4902B2F90220002A1CD107AA4FFA02
:1008D00089F912EB4902B2F90420012A13DB07AAB5
:1008E0004FFA89F912EB4902B2F90620012A0ADB14
:1008F0004FFA89F919F1020200AB4FFA8BFB23F88A
:100900001B201BF1010BB9F101090CE6BAF1010A38
:10091000BBF1010BBDF90020002A00F08F80BDF96A
:100920000C20002A00F08A80BDF90020BDF90C30AF
:100930009A4280F283804FFA8AFABAF1000F0CD102
:100940004FFA8BFBBBF1000F07D1BDF80020170059
:10095000BDF80C201600012214004FFA8AFABAF1F1
:10096000010F27D14FFA8BFBBBF1010F22D1BDF94B
:100970000020BDF90E30D21A1A2A03DABDF9002080
:10098000472A06DABDF90020BDF90E30D21A152A21
:1009900008DABDF80E201600BDF80220170001226B
:1009A000140007E0BDF80C201700BDF80C2016005D
:1009B000012214004FFA8AFABAF1020F3EDB4FFA15
:1009C0008BFBBBF1020F39DBBDF90020BDF90E3006
:1009D000D21A1A2A03DABDF90020472A06DABDF92D
:1009E0000220BDF91030D21A152A08DABDF81020FD
:1009F0001600BDF804201700012214001EE0BDF906
:100A00000020BDF90E30D21A152A0FDABDF90220E6
:100A1000BDF91030D21A152A08DBBDF80E201600D9
:100A2000BDF8022017000122140007E0BDF80C20D9
:100A30001600BDF80020170001221400BDF90C209B
:100A4000BDF900309A422EDABDF90020462A2ADB91
:100A50004FFA8AFABAF1000F0BD14FFA8BFBBBF1B8
:100A6000000F06D175221600BDF8002017000122E4
:100A700014004FFA8AFABAF1000F14D14FFA8BFB27
:100A8000BBF1010F0FD1BDF90020472A0BDBBDF9E7
:100A90000C20012A07DBBDF80C201600BDF802204F
:100AA000170001221400E4B2002C19D0B1464FFA0D
:100AB00089F97FB2B94513DB07AA4FFA89F932F9F0
:100AC0001920BDF918309A4207DB484607AA4FFAA9
:100AD00089F932F91920ADF81820B9F10109E6E7D2
:100AE000DFF86026147043B0BDE8F08F2DE9F04FB9
:100AF000C3B000245FF00009002500265FF0000A63
:100B00005FF0000B00270020ADF818005FF0000830
:100B100003A80021002200230EC00C3800A80021E9
:100B2000002200230EC00C3807A8F02100F014FBAF
:100B300000210020002291464FFA89F9B9F1780F7F
:100B400010DA0022DFF800364FFA89F923F819206D
:100B50009F22DFF8F8354FFA89F923F8192019F1A7
:100B60000109E9E7742291464FFA89F9B9F1010FB9
:100B7000C0F2E7814FFA89F9B9F1150F08DA862238
:100B8000DFF8B4351A801922DFF8B0351A8007E093
:100B90000422DFF8A8351A809D22DFF89C351A80E0
:100BA000DFF89825B2F9002009B2914204DADFF8A3
:100BB0008C25B2F900201100DFF88025B2F9002061
:100BC00011008846DFF87025B2F900200FFA88F886
:100BD000904580F23781DFF878254FFA89F9A02314
:100BE00019FB03220FFA88F818F80220DFF86035A5
:100BF0004FFA89F95FF0A00C19FB0C330FFA88F853
:100C000018EB03035B789A4280F09C80DFF8402564
:100C10004FFA89F9A02319FB03220FFA88F818EB81
:100C2000020212F8012CDFF828354FFA89F95FF03B
:100C3000A00C19FB0C330FFA88F818EB03039B7810
:100C40009A4280F07F80DFF800254FFA89F932F967
:100C50001920002A76D1DFF8F0244FFA89F922F81A
:100C600019806DB2002D02D119F103021500DFF8D1
:100C7000D8244FFA89F932F91920DFF8CC344FFA29
:100C800089F913EB4903B3F90230D21A012A0FDBB9
:100C9000DFF8B4244FFA89F932F91920DFF8A834C3
:100CA0004FFA89F913EB4903B3F90230D21A0EE077
:100CB000DFF894244FFA89F912EB4902B2F90220C5
:100CC000DFF884344FFA89F933F91930D21A0A2A35
:100CD00038DADFF874244FFA89F912EB4902B2F9D5
:100CE0000420DFF864344FFA89F913EB4903B3F9B0
:100CF0000230D21A012A11DBDFF84C144FFA89F9BD
:100D000011EB4901B1F90410DFF83C244FFA89F9DD
:100D100012EB4902B2F90220891A10E0DFF8281418
:100D20004FFA89F911EB4901B1F90210DFF81824E3
:100D30004FFA89F912EB4902B2F90420891AB8EB8B
:100D400001010839DFF808244FFA89F9A02319FBBB
:100D500003220FFA88F818F80220DFF8F4334FFA6C
:100D600089F95FF0A00C19FB0C330FFA88F818EB27
:100D7000030313F8013C9A4261D2DFF8D4234FFAFF
:100D800089F9A02319FB03220FFA88F818EB020255
:100D90005278DFF8BC334FFA89F95FF0A00C19FBE9
:100DA0000C330FFA88F818EB030313F8023C9A424D
:100DB00045D2DFF89C234FFA89F9A02319FB0322BF
:100DC0000FFA88F818EB02025279002A04D10FFAC0
:100DD00088F8B8F19B0F04DB0FFA88F8B8F19B0F85
:100DE0002DDBDA4A4FFA89F932F919209F2A26D1E8
:100DF0006DB2002D00D14D460FFA88F8B8F19B0F67
:100E000005DBD24A4FFA89F922F819801AE0CC4A58
:100E10004FFA89F9A02319FB03220FFA88F818EB7F
:100E200002025279002A0AD10FFA88F8B8F19B0F12
:100E300005DAC64A4FFA89F922F8198002E018F15A
:100E40000108BFE6C14A4FFA89F932F81920BE4BB2
:100E50004FFA89F933F81930D21A07AB4FFA89F9EA
:100E600023F8192007AA4FFA89F932F91920292AFB
:100E700005DB002207AB4FFA89F923F819204FFA56
:100E800089F9B9F1750F2CDA07AA4FFA89F932F905
:100E90001920012A25DB07AA4FFA89F912EB49022A
:100EA000B2F90220012A1CDB07AA4FFA89F912EBDA
:100EB0004902B2F90420002A13D107AA4FFA89F98E
:100EC00012EB4902B2F90620002A0AD14FFA89F939
:100ED00019F1010203AB4FFA8AFA23F81A201AF12A
:100EE000010A07AA4FFA89F932F91920002A25D1F7
:100EF00007AA4FFA89F912EB4902B2F90220002A37
:100F00001CD107AA4FFA89F912EB4902B2F9042061
:100F1000012A13DB07AA4FFA89F912EB4902B2F949
:100F20000620012A0ADB4FFA89F919F1020200AB07
:100F30004FFA8BFB23F81B201BF1010BB9F10109C0
:100F400012E6BAF1010ABBF1010BBDF90020002A3B
:100F500000F08F80BDF90C20002A00F08A80BDF9D6
:100F60000020BDF90C309A4280F283804FFA8AFA51
:100F7000BAF1000F0CD14FFA8BFBBBF1000F07D178
:100F8000BDF800201700BDF80C2016000122140047
:100F90004FFA8AFABAF1010F27D14FFA8BFBBBF156
:100FA000010F22D1BDF90020BDF90E30D21A1A2A44
:100FB00003DABDF90020472A06DABDF90020BDF9A1
:100FC0000E30D21A152A08DABDF80E201600BDF828
:100FD000022017000122140007E0BDF80C201700C2
:100FE000BDF80C201600012214004FFA8AFABAF15B
:100FF000020F3EDB4FFA8BFBBBF1020F39DBBDF971
:101000000020BDF90E30D21A1A2A03DABDF90020E9
:10101000472A06DABDF90220BDF91030D21A152A86
:1010200008DABDF810201600BDF8042017000122D0
:1010300014001EE0BDF90020BDF90E30D21A152AA9
:101040000FDABDF90220BDF91030D21A152A08DBDB
:10105000BDF80E201600BDF8022017000122140072
:1010600007E0BDF80C201600BDF800201700012293
:101070001400BDF90C20BDF900309A422EDABDF9FA
:101080000020462A2ADB4FFA8AFABAF1000F0BD168
:101090004FFA8BFBBBF1000F06D175221600BDF88D
:1010A00000201700012214004FFA8AFABAF1000F4B
:1010B00014D14FFA8BFBBBF1010F0FD1BDF900200A
:1010C000472A0BDBBDF90C20012A07DBBDF80C20F9
:1010D0001600BDF80220170001221400E4B2002C13
:1010E00019D0B1464FFA89F97FB2B94513DB07AA87
:1010F0004FFA89F932F91920BDF918309A4207DB05
:10110000484607AA4FFA89F932F91920ADF8182094
:10111000B9F10109E6E740B2512801DB00221400D1
:101120000C4A147043B0BDE8F08F0000B21100000B
:101130005C0EFF1F4C0FFF1FA20BFF1FA00BFF1F1A
:101140000C13FF1F96CEFF1F3C10FF1F2C11FF1F1B
:101150000C5EFF1F97CEFF1F002200F011B850F861
:10116000041B61B150F8042BD30744BFA9F101035C
:101170009A180023091F42F8043BFAD1EFE77047A1
:1011800000B500BF130096469446103928BFA0E86A
:101190000C50FAD85FEA417C28BF0CC048BF40F829
:1011A000042BC90728BF20F8022B48BF00F8012BE9
:1011B00000BDFF0000000000000000000000000073
:1011C000000000000000000000000000000000001F
:1011D00000004E6F6E4D61736B61626C65000000C4
:1011E00000486172644661756C7400000000000084
:1011F0004D656D4D616E6167656D656E7400004291
:1012000075734661756C7400000000000000557332
:101210006167654661756C740000000000000000A5
:1012200000000000000000000000000000000000BE
:1012300000000000000000000000000000000000AE
:10124000000000000000000000000000000000009E
:10125000000000000000000000535643616C6C0069
:10126000000000000000000044656275674D6F6E6D
:1012700069746F72000000000000000000000000B0
:1012800000000000000050656E645356000000002E
:1012900000000000005379735469636B0000000084
:1012A00000000000444D413000000000000000003C
:1012B000000000444D41310000000000000000002B
:1012C0000000444D4132000000000000000000001A
:1012D00000444D4133000000000000000000000009
:1012E000444D4134000000000000000000000044B4
:1012F0004D41350000000000000000000000444D9A
:1013000041360000000000000000000000444D4194
:10131000370000000000000000000000444D41388C
:101320000000000000000000000000444D413900B2
:1013300000000000000000000000444D413130007A
:10134000000000000000000000444D413131000069
:101350000000000000000000444D41313200000058
:1013600000000000000000444D4131330000000047
:10137000000000000000444D413134000000000036
:101380000000000000444D41313500000000000025
:1013900000000000444D415F4572726F7200000012
:1013A0000000004D434D0000000000000000000060
:1013B00000004654464C0000000000000000000001
:1013C00000526561645F436F6C6C6973696F6E0096
:1013D0004C56445F4C565700000000000000004C83
:1013E0004C570000000000000000000000005761A2
:1013F000746368646F6700000000000000524E478D
:1014000000000000000000000000000049324330EE
:1014100000000000000000000000004932433100DD
:1014200000000000000000000000535049300000A0
:10143000000000000000000000535049310000008F
:10144000000000000000000053504932000000007E
:101450000000000000000043414E305F4F525F4DDE
:10146000425F6275660043414E305F4275735F4F65
:10147000666600000043414E305F4572726F720035
:101480000000000043414E305F54785F5761726E38
:10149000696E6743414E305F52785F5761726E6983
:1014A0006E6743414E305F57616B655F557000005A
:1014B0000052657365727665643531000000000086
:1014C0005265736572766564353200000000004332
:1014D000414E315F4F525F4D425F6275660043413E
:1014E0004E315F4275735F4F666600000043414EA8
:1014F000315F4572726F72000000000043414E314F
:101500005F54785F5761726E696E6743414E315F19
:1015100052785F5761726E696E6743414E315F5713
:10152000616B655F5570000000526573657276658A
:101530006435390000000000526573657276656499
:101540003630000000000055415254305F52585F61
:1015500054580000000055415254305F455252002B
:10156000000000000055415254315F52585F5458FA
:101570000000000055415254315F455252000000B6
:1015800000000055415254325F52585F54580000D9
:10159000000055415254325F455252000000000095
:1015A0000055415254335F52585F545800000000B8
:1015B00055415254335F455252000000000000551F
:1015C000415254345F52585F545800000000554156
:1015D0005254345F45525200000000000055415201
:1015E00054355F52585F5458000000005541525422
:1015F000355F455252000000000000414443300076
:1016000000000000000000000000414443310000E1
:10161000000000000000000000434D5030000000BA
:101620000000000000000000434D503100000000A9
:1016300000000000000000434D5032000000000098
:1016400000000000000046544D3000000000000083
:10165000000000000046544D310000000000000072
:101660000000000046544D32000000000000000061
:10167000000000434D540000000000000000000086
:101680000000525443000000000000000000000071
:10169000005265736572766564383300000000009F
:1016A00050495430000000000000000000000050CD
:1016B00049543100000000000000000000005049C3
:1016C00054320000000000000000000000504954A7
:1016D00033000000000000000000000050444230D1
:1016E00000000000000000000000005553423000E0
:1016F0000000000000000000000055534244434435
:10170000000000000000000000454E45545F3135E8
:1017100038385F54696D6572454E45545F54726147
:101720006E736D69740000454E45545F5265636584
:10173000697665000000454E45545F4572726F72D0
:10174000000000000049325330000000000000009B
:101750000000000053444843000000000000000067
:101760000000004441433000000000000000000081
:101770000000444143310000000000000000000070
:101780000054534930000000000000000000000039
:101790004D43470000000000000000000000004C26
:1017A0005054696D65720000000000000000526531
:1017B00073657276656431303200000000504F521C
:1017C000544100000000000000000000504F52543F
:1017D0004200000000000000000000504F5254433F
:1017E00000000000000000000000504F5254440070
:1017F000000000000000000000504F52544500005F
:101800000000000000000000526573657276656498
:1018100031303800000000526573657276656431BE
:1018200030390000000052657365727665643131AD
:1018300030000000005265736572766564313131A5
:1018400000000000526573657276656431313200C4
:1018500000000052657365727665643131330000B3
:1018600000005265736572766564313134000000A2
:101870000052657365727665643131350000000091
:10188000526573657276656431313600000000522E
:10189000657365727665643131370000000052650A
:1018A00073657276656431313800000000526573EB
:1018B00065727665643131390000000000F00F4038
:1018C00040F00F4080F00F40C0F00F4000F10F409B
:1018D000F0000A1D300018003200180160001818CE
:1018E0006400181A6E00181F780013187D00131A70
:1018F0008200131C8C000E1296000E15A0000E180C
:10190000AA000E1BB4000E1EC8000C1CE1000B1E2A
:10191000FA000A1F000109080090044000A00440DA
:1019200000B0044000C0044000D0044000A00640C5
:1019300000B0064000C0064000D0064000A00E40A7
:1019400000B00E4004009D002A31308B42430C0D44
:101950002923412B040000000D81110009030CD044
:101960001240173F185019031A783200A00A63E09A
:10197000ACFF650C6600670029282A007E0C7F16E4
:10198000802A814E8261836F847B8586868E8797CD
:1019900088A489AF8AC58BD78CE88D204A0049136B
:1019A00047084B144C17460522992303A6049B00B5
:1019B0009C18AB069E119F02300400000D8111009F
:1019C00009030CD01240173F185019031A7832003F
:1019D000A00A63E0ACFF650C6600670029282A00B6
:1019E0007E0C7F16802A814E8261836F847B858680
:1019F000868E879788A489AF8AC58BD78CE88D207F
:101A00004A00491347084B144C17460522992303F3
:101A1000A6049B009C18AB069E119F0201B4BDF862
:101A20000000002805D0BDF80000401EADF8000001
:101A3000F5E701B0704780B501220121802000F058
:101A40006BFB01220121812000F066FB2321802015
:101A500000F052FC2321812000F04EFC01BD80B536
:101A60000120DFF8701508600120DFF86C150860B0
:101A70004FF4C870FFF7D2FF0020DFF86015086050
:101A8000DFF85C050068002805D10120DFF84C155F
:101A9000086000201BE00120DFF8401508600020EE
:101AA000DFF8301508604FF4C870FFF7B7FF00206B
:101AB000DFF824150860DFF828050068002805D045
:101AC0000120DFF818150860002000E0012002BDA9
:101AD00080B50020DFF8001508600020DFF8F4145E
:101AE00008604FF4C870FFF799FF0120DFF8E81491
:101AF00008604FF4C870FFF791FF0120DFF8D4149D
:101B000008604FF4C870FFF789FF01BD80B5002061
:101B1000DFF8C41408604FF4C870FFF77FFF00209F
:101B2000DFF8B01408604FF4C870FFF777FF0120AA
:101B3000DFF8A41408604FF4C870FFF76FFF0020AF
:101B4000DFF8941408604FF4C870FFF767FF01BD19
:101B500080B50020DFF8801408604FF4C870FFF7EC
:101B60005DFF0120DFF86C1408604FF4C870FFF7C8
:101B700055FF0120DFF8601408604FF4C870FFF7CC
:101B80004DFF0020DFF8501408604FF4C870FFF7D5
:101B900045FF01BD80B50020DFF83C14086000203F
:101BA000DFF8381408604FF4C870FFF737FF0120E2
:101BB000DFF8241408604FF4C870FFF72FFFDFF838
:101BC00020040068002809D00120DFF81014086004
:101BD0000020DFF804140860002008E00120DFF88E
:101BE000FC1308600020DFF8F0130860012002BD3C
:101BF00038B5050008242000441EC0B200281CD0BF
:101C0000280604D50120DFF8CC13086003E000208B
:101C1000DFF8C01308606D004FF4C870FFF7FEFED8
:101C20000120DFF8B41308604FF4C870FFF7F6FE28
:101C30000020DFF8A4130860DDE731BD38B50824C3
:101C400000250020DFF8941308602000441EC0B275
:101C5000002818D06D000020DFF87C1308604FF4D6
:101C6000C870FFF7DBFE0120DFF86C1308604FF44B
:101C7000C870FFF7D3FEDFF8680300680028E4D0DF
:101C800055F00105E1E70120DFF85013086000205E
:101C9000D1490860EDB2280032BD70B504000D00D6
:101CA00000262900C9B2200080B200F00AF80028FE
:101CB00005D1761CF6B2142EF3D1002000E00120ED
:101CC00070BD38B504000D00FFF7C9FE002801D132
:101CD000002019E04220FFF78BFFFFF75BFF002891
:101CE00003D1FFF7F5FE00200EE02000C0B2FFF7A1
:101CF0007FFFFFF74FFF2800C0B2FFF779FFFFF724
:101D000049FFFFF7E5FE012032BDF8B504000D00E4
:101D1000160000273200D2B2290089B2200000F05C
:101D20000AF8002805D17F1CFFB21E2FF2D1002037
:101D300000E00120F2BD70B504000D001600FFF7B1
:101D40008EFE002801D1002037E04220FFF750FF2F
:101D5000FFF720FF002803D1FFF7BAFE00202CE098
:101D60003000C0B2FFF744FFFFF714FFFFF7B0FEEB
:101D7000FFF775FE002801D100201EE04320FFF789
:101D800037FFFFF707FF002803D1FFF7A1FE002070
:101D900013E0ADB2002D0DD0FFF750FF2070ADB2B3
:101DA000012D02D1FFF7D4FE01E0FFF7AFFE641C66
:101DB0006D1EEEE7FFF78CFE012070BD80B501229D
:101DC0000121402000F0A8F901220121412000F06A
:101DD000A3F92321402000F08FFA2321412000F0B5
:101DE0008BFA01BD80B501207E49086001207E4943
:101DF00008604FF4C870FFF711FE00207B490860AF
:101E00007B480068002804D1012078490860002040
:101E100016E00120754908600020724908604FF4FF
:101E2000C870FFF7FBFD00206F490860704800682C
:101E3000002804D001206D490860002000E0012046
:101E400002BD80B50020684908600020654908602F
:101E50004FF4C870FFF7E2FD0120634908604FF4BA
:101E6000C870FFF7DBFD01205E4908604FF4C870C1
:101E7000FFF7D4FD01BD80B500205B4908604FF439
:101E8000C870FFF7CBFD0020564908604FF4C870BA
:101E9000FFF7C4FD0120544908604FF4C870FFF7F4
:101EA000BDFD0020504908604FF4C870FFF7B6FD33
:101EB00001BD80B500204C4908604FF4C870FFF7A1
:101EC000ADFD0120474908604FF4C870FFF7A6FD3B
:101ED0000120454908604FF4C870FFF79FFD0020BE
:101EE000414908604FF4C870FFF798FD01BD80B507
:101EF00000203D49086000203C4908604FF4C8704C
:101F0000FFF78CFD0120384908604FF4C870FFF7D7
:101F100085FD37480068002807D001203349086054
:101F2000002031490860002006E001202F490860A8
:101F300000202D490860012002BD38B505000824A5
:101F40002000441EC0B2002818D0280603D5012066
:101F50002449086002E00020224908606D004FF427
:101F6000C870FFF75BFD01201F4908604FF4C8707F
:101F7000FFF754FD00201C490860E1E731BD38B58A
:101F8000082400250020194908602000441EC0B222
:101F9000002815D06D000020134908604FF4C87068
:101FA000FFF73CFD0120104908604FF4C870FFF7AF
:101FB00035FD0F4800680028E7D055F00105E4E73B
:101FC00001200A490860002007490860EDB2280096
:101FD00032BD00000420FE430020FE438422FE4365
:101FE0000422FE430410FE430010FE438412FE430D
:101FF0000412FE4370B504000D0000262900C9B28A
:10200000200080B200F00AF8002805D1761CF6B254
:10201000142EF3D1002000E0012070BD38B504007B
:102020000D00FFF7DFFE002801D1002019E042205B
:10203000FFF783FFFFF75BFF002803D1FFF701FFE6
:1020400000200EE02000C0B2FFF777FFFFF74FFF40
:102050002800C0B2FFF771FFFFF749FFFFF7F1FE5D
:10206000012032BDF8B504000D0016000027320033
:10207000D2B2290089B2200000F00AF8002805D168
:102080007F1CFFB21E2FF2D1002000E00120F2BD24
:1020900070B504000D001600FFF7A4FE002801D162
:1020A000002037E04220FFF748FFFFF720FF00281D
:1020B00003D1FFF7C6FE00202CE03000C0B2FFF7CE
:1020C0003CFFFFF714FFFFF7BCFEFFF78BFE002875
:1020D00001D100201EE04320FFF72FFFFFF707FF8D
:1020E000002803D1FFF7ADFE002013E0ADB2002DB4
:1020F0000DD0FFF744FF2070ADB2012D02D1FFF7E4
:10210000D8FE01E0FFF7B7FE641C6D1EEEE7FFF797
:1021100098FE012070BD01FE70B504000D00160090
:102120004FF480712000C0B200F0C4F86DB2002DF1
:1021300011D15E48E4B2611150F821005B49E4B26C
:10214000621151F822104969012214F01F039A40CC
:102150009143416136E05548E4B2611150F82100E5
:102160005249E4B2621151F822104969012214F077
:102170001F039A4011434161F6B2002E11D14B4822
:10218000E4B2611150F821000068012114F01F022F
:10219000914088434549E4B2621151F82210086029
:1021A00010E04248E4B2611150F8210000680121BA
:1021B00014F01F02914008433C49E4B2621151F807
:1021C0002210086070BD38B504000D003748E4B235
:1021D000611150F82100406914F01F01C840C00788
:1021E00003D46321324800F0D2F8EDB2002D11D1B2
:1021F0002E48E4B2611150F821000068012114F06A
:102200001F02914088432949E4B2621151F822101B
:10221000086010E02548E4B2611150F82100006820
:10222000012114F01F02914008432049E4B26211D9
:1022300051F82210086031BD10B504001B48E4B20B
:10224000611150F82100406914F01F01C840C00717
:1022500003D47B21164800F09AF81448E4B26111C7
:1022600050F82100012114F01F029140C16010BDFF
:1022700010B504000D48E4B2611150F82100406926
:1022800014F01F01C840C00703D58C21084800F096
:102290007EF80648E4B2611150F82100006914F09C
:1022A0001F01C84010F0010010BD0000180BFF1FF7
:1022B000904C000010B4294A12684FF40073C0B269
:1022C0004409A3401A43254B1A60254AC0B2431162
:1022D00052F82320012310F01F04A340C2F8A030BD
:1022E0001F4AC0B2431152F82320C0B210F01F039E
:1022F00042F8231010BC704710B4184A12684FF40B
:102300000073C0B24409A3401A43144B1A60144A24
:10231000C0B2431152F82320012310F01F04A34040
:10232000C2F8A03031F4E0610D4AC0B2431152F856
:102330002320C0B210F01F0352F8232012F4E062F1
:102340001143074AC0B2431152F82320C0B210F023
:102350001F0342F8231010BC70470000388004406F
:10236000740BFF1FDFF800F0A90CFF1FDFF800F06F
:10237000D90CFF1FBFF34F8F4148006810F4E06095
:10238000404908433E490860BFF34F8FFEE738B528
:1023900004000D00002000F083F82A0021003A48D4
:1023A00000F019FC002000F098F84FF47A7000F06B
:1023B00044FCF2E710B50024042000F055FC042092
:1023C00000F088FC002841D1002000F069F80420CA
:1023D00000F080FC012801D101200400002000F061
:1023E0007CF82A4800F0F7FB4FF4FA7000F025FC67
:1023F000E4B2012CEBD1042000F06CFC0028E6D103
:10240000042000F067FC002806D1002000F065F8E9
:10241000642000F012FCF3E7042000F05BFC0128CC
:1024200006D1002000F059F8322000F006FCF3E756
:10243000174800F0D0FBFFF795FF642000F0FDFB8C
:102440000020FFF793FFFFF795FFC0E710BD10B521
:1024500010480468012000F023F8012000F03DF846
:102460000D48E4B20F2101FB0402E4B221000B4845
:1024700000F0B1FB4FF47A7000F0DFFBEDE70000F5
:102480000CED00E00400FA05F84D0000204F0000BC
:10249000744E000004ED00E01004FF1F944D000096
:1024A00010B5040064B2042C07DA01220121174898
:1024B00064B2205CFFF730FE0EE004200400200030
:1024C000441E40B2002807D0012201210F4864B207
:1024D000205CFFF721FEF2E710BD10B5040064B2E6
:1024E000042C05DA094864B2205CFFF7A5FE0CE075
:1024F000042004002000441E40B2002805D00348F8
:1025000064B2205CFFF798FEF4E710BDAC0BFF1F30
:1025100070B504000D0016003068012802D00228B2
:1025200005D00AE0200040B27168884705E0B06835
:102530000470B068401CB060FFE72868401C286049
:1025400070BD2DE9F04704005FF0000A5046A14637
:102550005FF0000A89F800A019F10109002A1FD0D4
:10256000D1F800A05546002D05D15FF0300A89F85A
:1025700000A0401C38E0002D36D095FBF3FA5646FB
:1025800003FB165A5746002F02D5FF43313700E0B0
:102590003037350089F8007019F10109401CEAE76D
:1025A000D1F800A0D446BCF1000F05D15FF0300A8D
:1025B00089F800A0401C17E0BCF1000F14D0BCFB50
:1025C000F3FAD64603FB1ECAD046B8F10A0F02D270
:1025D00018F1300801E018F13708F44689F8008056
:1025E00019F10109401CE7E7BDE8F0872DE9F34F39
:1025F00087B0934600200600079807000020387037
:102600007F1C089AD2E90001CDE90201DDE902232D
:102610000020002100F076FB03D130203870761CBA
:102620005AE004AADDE9020100F07CFB80468946FD
:1026300000200500062D0CDA584600F0CFFB020002
:102640000B004046494600F0DFFB804689466D1C82
:10265000F0E70020DFF8A41542464B4600F0A6FC48
:1026600000F018FD824600200500062D14DA9AFBC2
:10267000FBF0009000980BFB10A00400002C03D589
:10268000E04310F1310400E03034009882463C70A1
:102690007F1C761C6D1CE8E72E2038707F1C761C92
:1026A000DDE9040100F0F6FC8246BAF1000F13D018
:1026B0009AFBFBF0009000980BFB10A00400002C8C
:1026C00003D5E04310F1310400E030340098824635
:1026D0003C707F1C761CE8E7300009B0BDE8F08F45
:1026E0002DE9F04104000D0016001F00A046A8458A
:1026F00007DA3A0031003020FFF70AFF18F101082D
:10270000F5E7BDE8F0812DE9F04104000D00160069
:102710001F00A046A84507DA3A0031002020FFF745
:10272000F7FE18F10108F5E7BDE8F0812DE9F24F59
:1027300094B081461400002000901498050095F98B
:10274000000003900398002800F041820398252898
:1027500013D003980A2805D04A4600A90398FFF72A
:10276000D7FE09E04A4600A90D20FFF7D1FE4A46F0
:1027700000A90A20FFF7CCFE27E200200700002076
:1027800005900598002820D16D1C95F9000020289F
:102790000ED0232812D02B2807D02D2802D0302885
:1027A00009D00EE057F00107EBE757F00207E8E722
:1027B00057F00407E5E757F00807E2E757F010077E
:1027C000DFE76D1E01200590DBE70020804600203A
:1027D00005900598002812D16D1C95F90000039012
:1027E00003983038092806D80A20039900FB0810FE
:1027F000B0F13008EDE76D1E01200590E9E76D1C92
:1028000095F900002E280FD100200590059800288A
:102810000BD16D1C95F900003038092800D8F5E778
:102820006D1E01200590F1E76D1E6D1C95F90000ED
:102830004C2806D0682802D06C2801D002E002E0C3
:1028400001E000E06D1E6D1C95F9000003900398F7
:10285000462877D0582800F0D380622800F02C81D9
:10286000632800F07481642816D066286AD069282D
:1028700012D06E2800F09D816F2800F01281702820
:1028800000F02581732800F06C81752800F02A8102
:10289000782800F0B58093E12068241D06900A2373
:1028A000012206A90BA8FFF74CFE06000BA8301862
:1028B00082460698002803D52D200190761C0DE055
:1028C000B80703D52B200190761C07E0780703D5C5
:1028D00020200190761C01E0002001900020029051
:1028E000380711D50198002804D04A4600A901985C
:1028F000FFF70EFE012002904B4600AA4146300031
:10290000FFF7EEFE464611E0F8070FD44B4600AA4B
:1029100041463000FFF7F7FE0198002804D04A46F0
:1029200000A90198FFF7F4FD012002900298002809
:1029300007D10198002804D04A4600A90198FFF762
:10294000E7FDEEE0E01D30F00704D4E900010834B3
:10295000CDE908010A2208A90BA8FFF747FE0600E7
:102960000BA830188246DDE908010022002300F0A0
:10297000B7FB03D22D200190761C0DE0B80703D5DC
:102980002B200190761C07E0780703D520200190CA
:10299000761C01E00020019000200290380711D53C
:1029A0000198002804D04A4600A90198FFF7B0FD1D
:1029B000012002904B4600AA41463000FFF790FEEE
:1029C000464611E0F8070FD44B4600AA41463000B6
:1029D000FFF799FE0198002804D04A4600A9019803
:1029E000FFF796FD012002900298002807D1019878
:1029F000002804D04A4600A90198FFF789FD90E01D
:102A00002068241D04901023002204A90BA8FFF7BE
:102A100098FD06000BA83018824600200290380767
:102A200015D5F8060BD54A4600A93020FFF770FDF2
:102A30004A4600A97820FFF76BFD012002904B4623
:102A400000AA41463000FFF74BFE464618E0F80763
:102A500016D4F80600D5B61C4B4600AA41463000F5
:102A6000FFF751FEF8060BD54A4600A93020FFF7C4
:102A70004FFD4A4600A97820FFF74AFD0120029049
:102A8000F8060DD5029800280AD14A4600A9302040
:102A9000FFF73EFD4A4600A97820FFF739FDB61C36
:102AA0003FE02068241D04900823002204A90BA8FD
:102AB000FFF747FD06001FE02068241D0490022355
:102AC000002204A90BA8FFF73CFD060014E02068D3
:102AD000241D04901023002204A90BA8FFF731FD48
:102AE000060009E02068241D04900A23002204A99E
:102AF0000BA8FFF726FD06000BA830188246380702
:102B000007D54B4600AA41463000FFF7E9FD46468F
:102B100007E0F80705D44B4600AA41463000FFF70E
:102B2000F2FD9AF90000002808D04A4600A99AF957
:102B30000000FFF7EDFCBAF1010AF2E7F80705D54E
:102B40004B4600AA41463000FFF7DDFD3DE020681E
:102B5000241D40B207904A4600A90798FFF7D8FC09
:102B600033E02068241D8346BBF1000F20D0584677
:102B700000F0CEFA0600F80705D44B4600AA4146FD
:102B80003000FFF7C0FD9BF90000002808D04A463E
:102B900000A99BF90000FFF7BBFC1BF1010BF2E75A
:102BA000F80705D54B4600AA41463000FFF7ABFDBC
:102BB0000BE02068241D0A9000980A99086004E040
:102BC0004A4600A90398FFF7A3FC6D1CB7E50098DF
:102BD00015B0BDE8F08F0EB47EB504000120009062
:102BE0000748019007A805002A00210000A8FFF768
:102BF0009DFD060030007EBC5DF810FB0000E03F4C
:102C0000494F000010B50400002C15D0B4F1807FAE
:102C100003D329210F48FFF7BAFB00200E490860B3
:102C20000E48046000200E49086005200A4908602B
:102C300009480068C003FBD510BD10B50400200092
:102C4000441E002804D007480068FFF7DBFFF6E7C2
:102C500010BD0000844B000010E000E014E000E034
:102C600018E000E0500EFF1F10B5040064B2082CFD
:102C70000DDA00220021224864B2205CFFF74CFAF2
:102C800003211F4864B2205CFFF736FB14E00820E4
:102C900004002000441E40B200280DD00022002174
:102CA000174864B2205CFFF737FA0321144864B276
:102CB000205CFFF721FBECE710BD10B504001048C5
:102CC00064B2205CFFF7D4FA002801D1002000E0B4
:102CD000012010BD10B50400200040B2FFF7EDFF49
:102CE00000280AD10A20FFF7A8FF200040B2FFF712
:102CF000E4FF002801D1002000E0012010BD000009
:102D0000A40BFF1F90420CD141EA030C50EA4C0C7B
:102D100007D0994205D14FF4001C1CEB410F38BF7E
:102D20008942704710B5144600F004F822606360D1
:102D300010BD00BFC1F30A5C40F2FE32BCEB020CD6
:102D4000CCBFDCF1350237E0BCF115031ADA9B4148
:102D50005B0543FA0CF30B400022994319D0B1FAFA
:102D600081FCACF10B0C414000FA0CF0CCF1200CD2
:102D700061FA0CF14140CCF1210CCCEB135C01EB7E
:102D80000C5170476FF00002DA4020EA02020B4655
:102D90009043F8B1B0FA80FC0CF1150C0021BCF1A5
:102DA0001F0FE0D9ACF120018840CCEB1351491E34
:102DB00000EB015100207047BCF1350F03DA01F040
:102DC0000043002270470B4602464FF4001C1CEBE8
:102DD000430F02D803F0004100207047010040F18A
:102DE0000780F446404200F003F851F0004160478C
:102DF00009D0B0FA80F18840C91CC1F58461090589
:102E000001EBD02140057047B0B581EA030C0CF00E
:102E1000004C40F2FF7515EA11541DBF15EA135717
:102E2000AC42AF4239E0E41923EA455343F480133E
:102E3000C90241F0004141EA505EC7021100A7FB00
:102E4000020200284FF00000EEFB01204FF00001CD
:102E5000E3FB072118BF42F001024018002149415D
:102E6000E3FB0E01A4F580640F0302D2520040413F
:102E7000494154F101046CDD470872F1004250F100
:102E8000000051EB0451A1F580115CBF41EA0C0137
:102E9000B0BD4CEA05510020B0BD05EA1357AC4265
:102EA00014BFAF4241E050EA410E1CBF52EA430E4C
:102EB00002E061460020B0BD24423C441BD15FEAE1
:102EC000070EF6D0090302BF01460020AEF1140E32
:102ED000B1FA81F7AEEB070401FA07FE0C37C7F130
:102EE000200100FA07F7C8404EEA000E23EA4553D6
:102EF00043F48013A2E733F00043B3FA83F704BF2F
:102F0000B2FA82FE77440B3FE41BB7F1200E2FBFCD
:102F100002FA0EF3BB40C7F1200E22FA0EFE38BFB4
:102F200043EA0E03BA40641C82E750EA410E14BF24
:102F300052EA430E6FF000014FF4001717EB430FF6
:102F40008ABF194617EB410FB5E74CEA055100203F
:102F5000B0BDD4F10104B4F120070FDAC4F12007A9
:102F6000520828BF42F0010210FA07F501FA07F7EC
:102F7000E1BF2A43E0403843E1400FE0352C98DCC4
:102F8000C7F1200452EA400220FA07F218BF42F0CB
:102F9000010231FA07F0A1400A43002172F1004218
:102FA00050F1000051EB0C01B0BDFE0170B44FF0C8
:102FB000004591EA030C44BF6B4000F0C5B800BF68
:102FC000841A71EB030603D2001BB141121973413D
:102FD0004FF4001C1CEB410F34BF7CEB430443E077
:102FE0000C0DA4EB1356352E50DC45EAC323DB0A47
:102FF00045EAC121C912B6F120050DDD63FA05F6D7
:10300000EB4086EA0305124218BF45F00105C018DF
:1030100051F100010CD213E062FA06F5F24055407E
:10302000F3415A40B340F3405A408018594107D306
:1030300049085FEA30005FEA350528BF45F0010521
:1030400001F58011420875F1004250F1000041EB9A
:10305000045170BC4FF4001C1CEB410F38BF70478B
:103060000020090D090570471CEB410F10D252EAF0
:1030700043060BD0BCEB410F05D80C0DAB43661ECD
:10308000342EB5DD02E0AB438018594170BC704767
:1030900070BC7047F446400D40EAC120490006D29A
:1030A00000F00EF8004248BF6FF00040604700F0AB
:1030B00007F84FF0004188428CBF08464042604705
:1030C00040F00040490DA1F58061491C05D4D1F1C3
:1030D0001F0154BFC840C01770474FF00000704731
:1030E0004FF4001C1CEB410F94BF1CEB430F09E095
:1030F00041EA030C50EA4C0C52EA0C0C03D2994200
:1031000008BF9042704714BF8B4282427047000054
:1031100000F10103810704D010F8011B89B1810778
:10312000FAD10268B2F10131914311F0803F04BF3E
:1031300050F8042FF6E710F8011B11B110F8011B2D
:10314000FBE7C01A70470000841A71EB030604D233
:103150006E40001BB141121973414FF4001C1CEB6F
:10316000410F34BF7CEB430684E00C0DA4EB1356F7
:10317000362E7DDC012E43DC45EAC32343EA52535D
:1031800012BFD20292025B08240545EAC12141EA3E
:103190005051D2EBC020994125D407D1B0FA80F626
:1031A00010FA06F164D00020203608E0B1FA81F66A
:1031B000B140C6F1200220FA02F21143B0404FEABA
:1031C000F474B4EB465434F001064FEA74040AD8A0
:1031D000D6F50016760D04F00044F04061FA06F2D0
:1031E0005040F1404840C00A40EA415021F00041BF
:1031F00028BF5FEA500550F1000044EBD12137E0D1
:1032000045EAC323DB0A45EAC121C90AB6F1200514
:103210000EDD42EA0242120CC5F1200603FA06F660
:10322000EB4042EA06056D42984161F100010DE074
:1032300062FA06F5F240554063FA06FC82EA0C0297
:10324000F3405A406D42904161EB030111F4801F3D
:1032500005D1641E620502D06D004041494121F450
:103260008011430875F1004350F1000041EB045117
:1032700070BC70471CEB410F15D223F0004352EA9B
:1032800043060BD04FEA4C0CBCEB410F04D80C0D9D
:10329000661E342EB7DDEBE7801A994150EA4106ED
:1032A00008BF0021E4E708BF1CEB430F28BF6FF005
:1032B0000001DDE7012110F01F029140DFF8F82343
:1032C00040B2430942F823107047012110F01F0259
:1032D0009140DFF8E82340B2430942F823107047D9
:1032E00010B50400DFF8D803046000F08FF8002860
:1032F000FBD000F002F8002010BDE0B501200290E4
:103300004FF416600190002000905023DFF8B003C6
:103310000268DFF8B013002000F03EFADFF8A803DF
:10332000006840084000DFF8A01308605920FFF74C
:10333000CCFFDFF89803006850F00100DFF88C1331
:1033400008600020FFF7B6FFDFF884135020FEF777
:10335000B1FFDFF880135120FEF7ACFF07BD80B549
:10336000DFF8740390F9000004281FD10320DFF870
:10337000681308705920FFF7A8FF5FF48010DFF88A
:103380005C130860DFF84003006850F00100DFF8CC
:10339000381308605FF48010DFF840130860DFF82E
:1033A00020030068DFF83813086006E05920FFF7B3
:1033B0008CFF0220DFF82013087001BD0120DFF828
:1033C00018130870C148006850F00100BF49086038
:1033D000704780B50420C0490870C24800780028B2
:1033E00006D1C148B64908600120BE49087005E011
:1033F000BE48B34908600020BA4908705FF0FF304A
:10340000B64908605920FFF755FF01BD10B582B0DD
:10341000002400208DF80000FEF70DFB8021122013
:10342000FEF73BFC002804D1B148FFF7D4FB002095
:1034300043E03220FFF701FC0B22012100A8FEF738
:1034400064FC002804D1AB48FFF7C5FB002034E042
:103450009DF80010A848FFF7BEFBA8480178A848CF
:10346000FFF7B9FB9DF80000212825D100200400BA
:10347000A2480078A4B280B2844218D2A148A4B273
:1034800010EB440041789F48A4B210F8140080B2B9
:10349000FEF703FC002808D19A48A4B210F81410D3
:1034A0009948FFF798FB002007E0641CE0E7974885
:1034B000FFF791FB012000E0002016BD10B50400CD
:1034C0009348046000F07BF80028FBD000F002F87D
:1034D000002010BDE0B5012002904FF4166001906D
:1034E000002000900F238A4802688A49032000F0D8
:1034F00053F97548006830F0080073490860572098
:10350000FFF7E3FE7148006850F008006F4908605B
:103510000320FFF7CFFE6E490F20FEF7CBFE6D496B
:103520001020FEF7C7FE07BD80B57B4890F900006C
:10353000042816D10320784908705720FFF7C5FEEC
:103540001E20764908606048006850F008005E4917
:1035500008601E20714908606D4800687049086065
:1035600005E05720FFF7B1FE02206B49087001BD4E
:103570000120694908705548006850F00800534917
:103580000860704780B5042063490870654800787A
:10359000002806D164485E4908600120614908702E
:1035A00005E062485A49086000205E4908705FF0F3
:1035B000FF305A4908605720FFF77CFE01BD10B567
:1035C00082B0002400208DF80000FEF7F7FB802178
:1035D0001220FEF70FFD002804D14548FFF7FBFA43
:1035E000002043E03220FFF728FB0B22012100A836
:1035F000FEF738FD002804D13E48FFF7ECFA002022
:1036000034E09DF800103C48FFF7E5FA3B480178AC
:103610003B48FFF7E0FA9DF80000212825D1002063
:10362000040036480078A4B280B2844218D24048E0
:10363000A4B210EB440041783D48A4B210F8140045
:1036400080B2FEF7D7FC002808D13948A4B210F8A0
:1036500014102D48FFF7BFFA002007E0641CE0E7D4
:103660002A48FFF7B8FA012000E0002016BD80B517
:103670001C480078002806D04FF416621B492D48DC
:10368000FCF7CAFE05E04FF4166217492948FCF71B
:10369000C3FE24480078002806D04FF41662234960
:1036A0002548FCF7B9FE05E04FF416621E49224892
:1036B000FCF7B2FE01BD000000E100E080E100E0A7
:1036C0008CCEFF1FD0F00F400C80004024800040C3
:1036D0000201020013010900B00BFF1FA0B004405B
:1036E0001090004099CEFF1F6CB2FF1F0CA9FF1F66
:1036F000F04E0000344F00001C4E0000140CFF1F61
:10370000944E0000B40BFF1F084F0000404E000015
:1037100090CEFF1F52F00F40150CFF1FA0900440E9
:103720007090004098CEFF1F2CC5FF1FCCBBFF1F21
:10373000180CFF1F0C13FF1F0C5EFF1F2DE9F84331
:1037400080460C005FEA981010F00700C0B25FEAF4
:1037500040194046103810F03F00C0B2C0000500CC
:1037600015EB09000700E4B217EBC400401E060089
:10377000F6B2FFB2BE420DD3002200213800C0B223
:10378000FEF7CAFC4FF481713800C0B2FEF792FD1B
:103790007F1CEDE7BDE8F1832DE9F84F04000D0033
:1037A00016001F009DF92880DDF82C90DDF830A070
:1037B0004FFA88F8B8F1000F02D15FF0010B11E069
:1037C0004FFA88F8B8F1010F02D15FF0020B09E05F
:1037D0004FFA88F8B8F1020F02D15FF0040B01E054
:1037E0005FF0100B4FFA88F8B8F1000F07D1DFF83F
:1037F000AC01854203D3DFF8A801A84226D24FFAD4
:1038000088F8B8F1010F0BD1DFF89001854207D39A
:10381000DFF89001A84203D315F00300032815D167
:103820004FFA88F8B8F1020F0BD1DFF8700185422A
:1038300007D3DFF87401A84203D315F00300002872
:1038400004D06921DFF86401FEF7A1FDB9F5004F4E
:1038500003D36B215548FEF79AFD5548006850F098
:103860000200534908605348006850F00200514973
:103870000860514864B261010D5064B2600100F10A
:10388000804010F510400661002064B2610101F132
:10389000804111F5104188805FFA8BFB64B26001B2
:1038A00000F1804010F51040A0F814B04FFA88F8ED
:1038B0005FEA082010F4E0604FFA88F818F007017A
:1038C000084364B2610101F1804111F51041C880E3
:1038D00048464004400C64B2610101F1804111F599
:1038E0001041C88248464004400C64B2610101F1B5
:1038F000804111F51041C8833048006830F08000E5
:103900002E4908605FFA8BFB64B2600100F18040D1
:1039100010F51040C0F808B0002064B2610101F158
:10392000804111F51041C8605FEACA7002D4D9F134
:10393000000000E0002064B2610101F1804111F556
:10394000104188614CF20A0064B2610101F18041CA
:1039500011F510418883FFB27809313050F08000B2
:10396000174964B2605417493800C0B2FEF7A2FC90
:103970005946C9B22800FFF7E1FE1348006801214B
:10398000A140884310490860104800680121A14007
:1039900008430E490860BDE8F18F000010F00F40A9
:1039A00013F10F4012F10F4010F10F40E04B0000F7
:1039B000408004403C800440009000400080004073
:1039C00000100240000101000C80004024800040F3
:1039D000DFF800F0F10DFF1FDFF8A81340B231F857
:1039E000201040B20128C0F2738140B2112880F249
:1039F0006F810022DFF890331A7089B25B2904DAF4
:103A00000022DFF884335A7080E089B2B52904DAE5
:103A10000122DFF874335A7078E089B2B1F5877FFC
:103A200004DC0222DFF860335A706FE089B2B1F52E
:103A3000B47F04DC0322DFF850335A7066E089B2A9
:103A4000B1F5E17F04DC0422DFF83C335A705DE01D
:103A500089B2B1F5077F04DC0522DFF82C335A70F8
:103A600054E089B240F27722914204DA0622DFF86C
:103A700018335A704AE089B2B1F5347F04DC07226A
:103A8000DFF804335A7041E089B240F22B329142A0
:103A900004DA0822DFF8F0325A7037E089B2B1F563
:103AA000617F04DC0922DFF8E0325A702EE089B22F
:103AB00040F2DF32914203DA0A22B34B5A7025E01A
:103AC00089B2B1F5876F03DC0B22AF4B5A701DE052
:103AD00089B240F29342914203DA0C22AA4B5A7007
:103AE00014E089B240F2ED42914203DA0D22A64B76
:103AF0005A700BE089B240F24752914203DA0E222B
:103B0000A14B5A7002E00F229F4B5A7089B21A29BA
:103B100003DA00229C4B9A7069E089B2332903DAF8
:103B20000122994B9A7062E089B24C2903DA022291
:103B3000954B9A705BE089B2652903DA0322924BB8
:103B40009A7054E089B27E2903DA04228E4B9A706F
:103B50004DE089B2972903DA05228B4B9A7046E033
:103B600089B2B02903DA0622874B9A703FE089B206
:103B7000C92903DA0722844B9A7038E089B2E22916
:103B800003DA0822804B9A7031E089B2FB2903DA0C
:103B900009227D4B9A702AE089B2B1F58A7F03DA57
:103BA0000A22794B9A7022E089B2B1F5967F03DC44
:103BB0000B22754B9A701AE089B2B1F5A37F03DA34
:103BC0000C22714B9A7012E089B2B1F5AF7F03DC21
:103BD0000D226D4B9A700AE089B2B1F5BC7F03DA11
:103BE0000E22694B9A7002E00F22674B9A7089B2DD
:103BF0001A2903DA0022644BDA7069E089B23329AA
:103C000003DA0122604BDA7062E089B24C2903DAF0
:103C100002225D4BDA705BE089B2652903DA032288
:103C2000594BDA7054E089B27E2903DA0422564BEC
:103C3000DA704DE089B2972903DA0522524BDA7027
:103C400046E089B2B02903DA06224F4BDA703FE032
:103C500089B2C92903DA07224B4BDA7038E089B2FE
:103C6000E22903DA0822484BDA7031E089B2FB29F5
:103C700003DA0922444BDA702AE089B2B1F58A7F6F
:103C800003DA0A22404BDA7022E089B2B1F5967F5E
:103C900003DC0B223C4BDA701AE089B2B1F5A37F4A
:103CA00003DA0C22384BDA7012E089B2B1F5AF7F3B
:103CB00003DC0D22344BDA700AE089B2B1F5BC7F27
:103CC00003DA0E22304BDA7002E00F222E4BDA704C
:103CD000704710B50400200040B2FFF77DFE2B486E
:103CE000007810F0FD00294908702848007850F04D
:103CF000100026490870B82025490870254800782A
:103D0000C006FBD423480078C0F38100C0B202286B
:103D1000F8D11D48C3781C4882781B4841781A485E
:103D20000078FFF755FE174864B210EB84008078E6
:103D300010F01F0018490870124864B210EB84009C
:103D4000C07810F01F0050F040001449087011486E
:103D500000788006FBD50F4800784006FBD50C485C
:103D6000007810F03F000A4908700A480078C0F354
:103D70008100C0B20328F8D1024864B230F82400B0
:103D8000C0B210BD2C0BFF1F700BFF1F014006407F
:103D900000400640064006400440064005400640FC
:103DA0000022DFF8A8331A600022DFF8A4331A607B
:103DB00000221100082915DA020604D50122DFF8D5
:103DC00094331A6003E00022DFF888331A6000227F
:103DD000DFF884331A600122DFF87C331A60400078
:103DE000491CE7E70122DFF864331A6070470022BC
:103DF000DFF858331A600122DFF854331A600022CA
:103E00001100082915DA020604D50122DFF844332F
:103E10001A6003E00022DFF83C331A600022DFF86A
:103E200038331A600122DFF830331A604000491C31
:103E3000E7E70122DFF814331A60704710B5040079
:103E4000A4B2200AC0B2FFF7D2FF2000C0B2FFF731
:103E5000CEFF10BD80B50020DFF80013086096206B
:103E6000FEF7EBFE0120DFF8F41208609620FEF763
:103E7000E4FE01BD80B5002201214920FEF74CF986
:103E8000002201214820FEF747F9002201214720A6
:103E9000FEF742F9002201214620FEF73DF90022FB
:103EA00001214520FEF738F9002201218620FEF786
:103EB00033F9FFF7CFFFCB20FFF772FF3920FFF771
:103EC00096FF2C20FFF793FF0020FFF790FF342090
:103ED000FFF78DFF0220FFF78AFFCF20FFF760FF7B
:103EE0000020FFF784FFC120FFF781FF3020FFF79C
:103EF0007EFFE820FFF754FF8520FFF778FF0020C2
:103F0000FFF775FF7820FFF772FFEA20FFF748FF01
:103F10000020FFF76CFF0020FFF769FFED20FFF79F
:103F20003FFF6420FFF763FF0320FFF760FF1220CD
:103F3000FFF75DFF8120FFF75AFFF720FFF730FF03
:103F40002020FFF754FFC020FFF72AFF2320FFF7B0
:103F50004EFFC120FFF724FF1020FFF748FFC520C8
:103F6000FFF71EFF3E20FFF742FF2820FFF73FFF2D
:103F7000C720FFF715FF8620FFF739FF3620FFF730
:103F80000FFF6820FFF733FF3A20FFF709FF5520A6
:103F9000FFF72DFFB120FFF703FF0020FFF727FFFA
:103FA0001820FFF724FFB620FFF7FAFE0820FFF7DE
:103FB0001EFF8220FFF71BFF2720FFF718FFF220CC
:103FC000FFF7EEFE0020FFF712FF2620FFF7E8FEC6
:103FD0000120FFF70CFFE020FFF7E2FE0F20FFF7C4
:103FE00006FF3120FFF703FF2B20FFF700FF0C2017
:103FF000FFF7FDFE0E20FFF7FAFE0820FFF7F7FEA1
:104000004E20FFF7F4FEF120FFF7F1FE3720FFF717
:10401000EEFE0720FFF7EBFE1020FFF7E8FE03207F
:10402000FFF7E5FE0E20FFF7E2FE0920FFF7DFFEB7
:104030000020FFF7DCFEE120FFF7B2FE0020FFF7D3
:10404000D6FE0E20FFF7D3FE1420FFF7D0FE03208C
:10405000FFF7CDFE1120FFF7CAFE0720FFF7C7FECE
:104060003120FFF7C4FEC120FFF7C1FE4820FFF753
:10407000BEFE0820FFF7BBFE0F20FFF7B8FE0C20A6
:10408000FFF7B5FE3120FFF7B2FE3620FFF7AFFE97
:104090000F20FFF7ACFE1120FFF782FE7820FEF71D
:1040A000CCFD2920FFF77CFE2C20FFF779FE01BD17
:1040B000F8B504000D0016001F002A20FFF770FE5F
:1040C000A4B2200AC0B2FFF792FE2000C0B2FFF7F0
:1040D0008EFEB6B2300AC0B2FFF789FE3000C0B221
:1040E000FFF785FE2B20FFF75BFEADB2280AC0B2BA
:1040F000FFF77DFE2800C0B2FFF779FEBFB2380A95
:10410000C0B2FFF774FE3800C0B2FFF770FE2C207B
:10411000FFF746FEF1BD70B504007F239F2200210A
:104120000020FFF7C5FF00200500ADB2A02D0CDA7E
:1041300000200600B6B2802E05DA200080B2FFF71C
:104140007DFE761CF6E76D1CEFE770BD2410FE4384
:104150001C10FE431810FE431410FE432010FE43B3
:104160002DE9F84304000D0064B2002C08D0022CA5
:104170002CD018D3042C4FD03BD3052C5FD071E04A
:10418000DFF83402006850F48060DFF82C12086019
:104190004FF440716620FEF78DF84FF440716720B0
:1041A000FEF788F85EE0DFF81002006850F4006067
:1041B000DFF8041208604FF440714320FEF77AF8EC
:1041C0004FF440714420FEF775F84BE0DFF8E8014A
:1041D000006850F48050DFF8E01108604FF440713F
:1041E0006320FEF767F84FF440716220FEF762F833
:1041F00038E0DFF8C401006850F40050DFF8B8116F
:1042000008604FF440718520FEF754F84FF4407178
:104210008420FEF74FF825E0DFF8A001006850F495
:104220008060DFF8981108604FF440719920FEF724
:1042300041F84FF440719820FEF73CF812E0DFF8A7
:104240007C01006850F40060DFF8701108604FF4E2
:1042500040718920FEF72EF84FF440718820FEF758
:1042600029F8FFE7DFF8580164B250F82400C0785D
:1042700010F0F300DFF8481164B251F82410C87050
:10428000DFF83C0164B250F824008078DFF8301188
:1042900064B251F82410887064B2002C02D064B269
:1042A000012C07D1DFF81C0100684FF47A714843F4
:1042B000814606E0DFF8100100684FF47A71484348
:1042C00081462801B9FBF0F00600B6B2B6F5005FF2
:1042D00002DB41F6FF700600B9FBF5F0B6B2B0EBB9
:1042E00006100700BFB2202F03DBDC213748FEF7A2
:1042F0004EF8334864B250F82400007810F0E00023
:104300008046B6B2300A10F01F0050EA08002C496F
:1043100064B251F824100870294864B250F824009F
:104320004670274864B250F82400807A10F0E0000C
:10433000804617F01F0050EA0800214964B251F886
:10434000241088721E4864B250F82400007C50F09B
:1043500088001B4964B251F824100874184864B2EC
:1043600050F82400C07850F00C00154964B251F8A0
:104370002410C870BDE8F183114A40B252F82020E1
:1043800012791206F8D50E4A40B252F82020D171A7
:10439000704770B504000D0016003000461E00285E
:1043A00008D095F9001049B2200040B2FFF7E4FFB1
:1043B0006D1CF2E770BD000034800440288004408A
:1043C000880BFF1F500EFF1F580EFF1FE84C000008
:1043D000DFF800F03B2C0000DFF800F08F23000036
:1043E000F0204D4908704C4800780006FBD54A483B
:1043F00000787121084201D0002000E001207047C0
:1044000080B54648006850F400204449086044489C
:10441000006850F40020424908603F4800780006D8
:10442000FBD5F0203C4908700A20FFF7D1FF01BD01
:1044300010B582B00400A4B24FF4006000FB04F099
:1044400000900920374908709DF80200364908702D
:104450009DF80100354908709DF800003449087046
:10446000FFF7BEFF002801D100200CE0A4B2002C11
:1044700008D17FF0010240F20C41200080B200F030
:1044800003F800E0012016BD7CB504000D00160005
:10449000A4B24FF40060ADB200FB04500190ADB285
:1044A000042095FBF0F101FB1051002903D0EA2113
:1044B0002048FFF791FFADB2B5F5006F03DDEC21A9
:1044C0001C48FFF789FF9DF80600174908709DF802
:1044D0000500164908709DF80400154908700096FB
:1044E0009DF80300144908709DF8020013490870F4
:1044F0009DF80100124908709DF8000011490870EC
:10450000062008490870FFF76BFF002801D1002042
:1045100000E0012076BD00000000024004F00140F0
:1045200008F001400700024006000240050002407A
:1045300004000240384C00000B0002400A00024018
:104540000900024008000240F0B4114E3668340001
:104550000F4E366856F47F060D4F3E600E0616F07D
:10456000706656EA0076170517F470073E431F047D
:1045700017F470273E43074F3E6000263500EDB22A
:104580009D4201D26D1CFAE7014E3460F0BC7047C9
:1045900000F0014044800440012110F01F029140CE
:1045A000424A40B2430942F82310704780B500F0F8
:1045B0008FF800F0A5F84FF4FA70FEF73EFBFEF717
:1045C00008FFFEF7DFFFFFF752F8394800780128AF
:1045D00001D100F0A7F8FBF768FFFCF787FA00F0BD
:1045E000C9F834480078002804D000212920FDF7BC
:1045F000EAFD03E001212920FDF7E5FD2E480078C2
:10460000002804D000212320FDF7DDFD03E0012177
:104610002320FDF7D8FD00202849088000202749E5
:10462000488000202549888022480078642110FBBA
:1046300001F02249C88020480078642110FB01F075
:104640001E49088100201D49488100201B4988819E
:1046500000201A49C8811A4890F9000001280FD09B
:10466000174890F900000228F5D104201449087079
:104670005FF0FF30134908605920FFF78DFFEAE72C
:10468000114890F90000012899D00F4890F90000D6
:104690000228F5D104200C4908705FF0FF300B4967
:1046A00008605720FFF778FFEAE7000000E100E02C
:1046B00094CEFF1F96CEFF1F97CEFF1F400EFF1F09
:1046C000B00BFF1FA0B00440150CFF1FA0900440CA
:1046D00080B5002201212320FDF71EFD00220121CB
:1046E0002920FDF719FD1A48FEF7E8FE1948FEF7E4
:1046F000F7FDFFF7BFFB4FF47840FFF70CFD01BD5E
:1047000080B51549102000F0D8F81449672000F052
:10471000D4F81349132000F0D0F81249692000F0B2
:10472000CCF801BD80B51048007800280ED10F48A4
:104730000078002805D04FF41661054800F0D4F841
:1047400004E04FF416610A4800F0CEF801BD000005
:10475000CCBBFF1F0CA9FF1F754B0000254B0000B1
:104760007D4B00004F4B000095CEFF1F98CEFF1FE2
:104770002CC5FF1F2DE9F047414EDFF80881DFF817
:104780000891DFF808A100200400782C33DA370004
:10479000D8F800003E4900F0C7F80BD8D8F8000060
:1047A0003C4900F0D3F805D2D8F8000000F0E0F85A
:1047B0001421C155B9F90000002807D4B9F9000047
:1047C000A02803DA0A20B9F90010C855BAF9000088
:1047D000002807D4BAF90000A02803DA1E20BAF98D
:1047E0000010C855A03618F1040819F102091AF191
:1047F000020A641CC9E777239F2200210020FFF7EB
:1048000057FC00200400782C38DA00200500A02D89
:1048100032DA502D04D14FF47840FFF70FFB29E036
:104820001748A02101FB0400285C002808D00A28B2
:104830000AD014280CD01E280FD0FF2812D016E062
:104840000020FFF7FBFA15E01F20FFF7F7FA11E051
:104850004FF47840FFF7F2FA0CE04FF4FC60FFF7FA
:10486000EDFA07E04FF6FF70FFF7E8FA02E00020EC
:10487000FFF7E4FA6D1CCAE7641CC4E7BDE8F087E3
:104880000C5EFF1F1C12FF1F3C10FF1F2C11FF1F8F
:10489000FEFF7FBF0000204310B504004FF40070FE
:1048A00094FBF0F101FB1041002903D01E210B48BD
:1048B000FDF76DFD0A48046010BD38B504000D0019
:1048C000074800680749884203D030210348FDF7B4
:1048D0005EFD044864B240F8245031BD404D0000F4
:1048E00008ED00E00000FF1F38B504000D000C4883
:1048F0000088ADF802000B480088ADF800000222E5
:104900000DF102010420FFF744FD2A0021000420DC
:10491000FFF73FFD022200A90420FFF73AFD31BD59
:1049200016210000AA2F00004FF0807C1CEB400FE6
:1049300094BF1CEB410F05E040EA010C5FEA4C0C10
:1049400001D28142704718BF884270474FF0807C87
:104950001CEB400F94BF1CEB410F05E040EA010C3B
:104960005FEA4C0C01D28842704718BF8142704701
:104970004100090E7F3915D4D1F11F0114D4400034
:1049800007D2C00140F00040C84048BF6FF000406F
:104990007047C00140F00040C8404CBF4FF000409D
:1049A000404270470020704700424FF0004058BF1F
:1049B000C043704780B500F095F800F02AF800F089
:1049C0000AF8FDF7F7FC012201210420FDF7A4FB02
:1049D000FFF7ECFDFEE780B50D20FFF77AF93349CC
:1049E0000860324800684FF47A71484330490860E3
:1049F0002F4800682F490968C1F30361491CB0FBC7
:104A0000F1F02D4908605FF4E1310420FFF7A8FBC5
:104A100001BD2DE9F8432948294988420DD00020DD
:104A20008046B8F5826F08D2254850F828002349FF
:104A300041F8280018F10108F3E72048FFF72CFFA0
:104A4000204807002048060020480400A01B80469C
:104A50004046B0F10108002804D030783870761C48
:104A60007F1CF5E71A4881461A480500B5EB090096
:104A700080464046B0F10108002805D0002089F8A2
:104A8000000019F10109F4E713481449144A531AB4
:104A900098464346B3F10108002B04D00B7803700D
:104AA000491C401CF5E7BDE8F1830000540EFF1FD0
:104AB000500EFF1F44800440580EFF1F0000FF1FD0
:104AC000000000001004FF1FB41100001C1A0000B9
:104AD000400EFF1F9CCEFF1F780CFF1FD04300002D
:104AE0009845000080B500F008F80C4800884FF6A3
:104AF000FE7108400949088001BDEFF3118072B6CC
:104B00004CF22051064A11804DF62811044A1180BA
:104B1000C0B2002800D162B67047000000200540F6
:104B20000E20054038B5114800680028FBD00F481A
:104B3000006805005FF0FF300C4908601020040099
:104B400035FA04F0C00701D5FEF7EEFC31BD38B5EB
:104B50001124074805685FF0FF300549086035FA01
:104B600004F0C00701D5FEF7FAFB31BDA090044068
:104B7000A0B0044080B5FEF721FC01BD80B5FEF772
:104B8000F7FC01BD463A5CD0C5B1EA5CB9FAC8FC95
:104B9000D7EED6D55CCDE2BDD3C9E3CFF1CDB720FA
:104BA00020445A20D7EED6D538D4C232305C666C59
:104BB00079202D20444E2043202056312E342D7351
:104BC000696E676C655C436869705C7372635C4DA9
:104BD0004B36305F5379735469636B2E630000006A
:104BE000463A5CD0C5B1EA5CB9FAC8FCD7EED6D576
:104BF0005CCDE2BDD3C9E3CFF1CDB72020445A202C
:104C0000D7EED6D538D4C232305C666C79202D20F0
:104C1000444E2043202056312E342D73696E676C2C
:104C2000655C436869705C7372635C4D4B36305FE2
:104C3000646D612E63000000463A5CD0C5B1EA5C49
:104C4000B9FAC8FCD7EED6D55CCDE2BDD3C9E3CF67
:104C5000F1CDB72020445A20D7EED6D538D4C23271
:104C6000305C666C79202D20444E20432020563144
:104C70002E342D73696E676C655C436869705C7374
:104C800072635C4D4B36305F666C6173682E6300F7
:104C9000463A5CD0C5B1EA5CB9FAC8FCD7EED6D5C5
:104CA0005CCDE2BDD3C9E3CFF1CDB72020445A207B
:104CB000D7EED6D538D4C232305C666C79202D2040
:104CC000444E2043202056312E342D73696E676C7C
:104CD000655C436869705C7372635C4D4B36305F32
:104CE0006770696F2E630000463A5CD0C5B1EA5C1C
:104CF000B9FAC8FCD7EED6D55CCDE2BDD3C9E3CFB7
:104D0000F1CDB72020445A20D7EED6D538D4C232C0
:104D1000305C666C79202D20444E20432020563193
:104D20002E342D73696E676C655C436869705C73C3
:104D300072635C4D4B36305F756172742E63000098
:104D4000463A5CD0C5B1EA5CB9FAC8FCD7EED6D514
:104D50005CCDE2BDD3C9E3CFF1CDB72020445A20CA
:104D6000D7EED6D538D4C232305C666C79202D208F
:104D7000444E2043202056312E342D73696E676CCB
:104D8000655C436869705C7372635C6D6973632E04
:104D9000630000000A2A2A2A2A64656661756C7419
:104DA0005F69737220656E7465726564206F6E2032
:104DB000766563746F722025642A2A2A2A2A0A0AD1
:104DC000257320496E74657272757074000000005E
:104DD00010B5074979441831064C7C44163404E078
:104DE0000A68081D511888470146A142F8D110BD34
:104DF0007400000080000000417373657274696F75
:104E00006E206661696C656420696E20257320617F
:104E100074206C696E652025640A00000A47657479
:104E20002049442073756363657373A3AC53454E87
:104E3000534F522049442069732030782578000070
:104E40000A4F563737323520526567697374657279
:104E500020436F6E666967205375636365737321C2
:104E600000000000FBC2FFFF5CC00000400EFF1FFF
:104E7000000000000ABDF8D0D0BDE2CBF8B2D9D70F
:104E8000F7A3ACC7EBD6D8D0C2CBA2C8EBB9CCBC89
:104E9000FE0000000A436F6E66696720526567690D
:104EA00073746572204E756D62657220697320257A
:104EB0006420000000F00BF8002801D0FFF788FF05
:104EC0000020C046C046FFF771FB00F002F8012049
:104ED000704700F001B800000746384600F002F8BD
:104EE000FBE700002021090326311820ABBEF9E7BB
:104EF0000ABEAFB8E63A53434342D0B4CAFDBEDD62
:104F0000B4EDCEF3000000000ABEAFB8E63AD0B46C
:104F1000BCC4B4E6C6F730782578CAA7B0DC000078
:104F20000ABDF8C8EBCBC0D1ADBBB7B5C8B4FDA3C3
:104F3000A10000000ABEAFB8E63AB6C1C8A1494414
:104F4000CAA7B0DC0000000010B50400210049B27F
:104F50000420FFF711FA10BDC046C046C046C04647
:044F6000FFF7A8FFB0
:0400000500004F594F
:00000001FF
