:10000000F8FF002011040000B76C0000B76C00007E
:10001000B76C0000B76C0000B76C0000B76C000054
:10002000B76C0000B76C0000B76C0000B76C000044
:10003000B76C0000B76C0000B76C0000B76C000034
:10004000B76C0000B76C0000B76C0000B76C000024
:10040000FFFFFFFFFFFFFFFFFFFFFFFFFEFFFFFFFD
:1004100062B609F08DFFFEE7F8B4DFF8243D1B88D3
:10042000ADF8003005000C001600721E002E3AD008
:1004300026783300641C00AEDBB2DF11BE5D2E7087
:100440006D1C00AEC3F38017FFB2BE5D2E706D1C35
:1004500000AEC3F34017FFB2BE5D2E706D1C00AE40
:10046000C3F30017FFB2BE5D2E706D1C00AEC3F368
:10047000C007FFB2BE5D2E706D1C00AEC3F38007D7
:10048000FFB2BE5D2E706D1C00AEC3F34007FFB21D
:10049000BE5D2E706D1C00AEDBB213F00107BE5DB9
:1004A0002E706D1CC0E7F1BC70472DE9F04FC5B050
:1004B0005FF0000A0024002500208DF801000026CE
:1004C00000275FF0000800208DF800000020ADF844
:1004D00020005FF000090420ADF802009D20ADF877
:1004E000060005A80021002200230EC00C3802A837
:1004F0000021002200230EC00C3809A8F02101F0D1
:10050000AFF85FF0000B00208DF80400002004001D
:1005100064B2782C0DDA0020DFF8281C64B221F8D0
:1005200014009F20DFF8201C64B221F81400641C22
:10053000EEE77420040064B2012CC0F2A88164B21A
:10054000152C06DA8620ADF806001920ADF8020059
:1005500005E00420ADF802009D20ADF80600BDF9CD
:1005600002000FFA8BFB834502DABDF902008346D5
:10057000BDF902008346D946BDF906000FFA89F994
:10058000814580F21B81DFF8C40B64B2A02114FB0B
:1005900001000FFA89F919F80000DFF8B01B64B206
:1005A000A02214FB02110FFA89F919EB0101497815
:1005B000884280F08A80DFF8940B64B2A02114FB9B
:1005C00001000FFA89F919EB000010F8010CDFF8AF
:1005D0007C1B64B2A02214FB02110FFA89F919EBFB
:1005E00001018978884270D2DFF8580B64B230F983
:1005F0001400002869D1DFF84C0B64B220F8149085
:100600006DB2002D01D1E01C0500DFF8380B64B29B
:1006100030F91400DFF82C1B64B211EB4401B1F97E
:100620000210401A01280DDBDFF8180B64B230F914
:100630001400DFF8101B64B211EB4401B1F9021091
:10064000401A0CE0DFF8FC0A64B210EB4400B0F989
:100650000200DFF8F01A64B231F91410401A0A28C7
:1006600033DADFF8E00A64B210EB4400B0F90400BA
:10067000DFF8D01A64B211EB4401B1F90210401A4C
:1006800001280FDBDFF8BC0A64B210EB4400B0F9BC
:100690000400DFF8B01A64B211EB4401B1F90210A2
:1006A000401A0EE0DFF89C0A64B210EB4400B0F987
:1006B0000200DFF8901A64B211EB4401B1F90410A2
:1006C000401AB9EB0000B0F1080BDFF8800A64B201
:1006D000A02114FB01000FFA89F919F80000DFF8D6
:1006E0006C1A64B2A02214FB02110FFA89F919EBFB
:1006F000010111F8011C88425DD2DFF8500A64B292
:10070000A02114FB01000FFA89F919EB00004078D1
:10071000DFF8381A64B2A02214FB02110FFA89F92B
:1007200019EB010111F8021C884244D2DFF81C0ABF
:1007300064B2A02114FB01000FFA89F919EB000043
:100740004079002804D10FFA89F9B9F19B0F04DB35
:100750000FFA89F9B9F19B0F2DDBDFF8EC0964B2D0
:1007600030F914009F2826D16DB2002D00D125004C
:100770000FFA89F9B9F19B0F05DBDFF8CC0964B2F8
:1007800020F814901AE0DFF8C40964B2A02114FB29
:1007900001000FFA89F919EB0000407900280AD10D
:1007A0000FFA89F9B9F19B0F05DADFF89C0964B2F9
:1007B00020F8149002E019F10109DDE6DFF888095C
:1007C00064B230F81400DFF87C1964B231F8141008
:1007D000401A09A964B221F8140009A864B230F9DA
:1007E0001400292804DB002009A964B221F81400B0
:1007F00064B2752C24DA09A864B230F91400012817
:100800001EDB09A864B210EB4400B0F90200012815
:1008100016DB09A864B210EB4400B0F9040000280C
:100820000ED109A864B210EB4400B0F9060000280C
:1008300006D164B2601C05A976B221F81600761CB8
:1008400009A864B230F9140000281ED109A864B2C6
:1008500010EB4400B0F90200002816D109A864B2D8
:1008600010EB4400B0F9040001280EDB09A864B2C3
:1008700010EB4400B0F90600012806DB64B2A01CAE
:1008800002A97FB221F817007F1C641E53E6761E72
:100890007F1EBDF90800002800F08F80BDF914000C
:1008A000002800F08A80BDF90800BDF914108842C4
:1008B00080F2838076B2002E0CD17FB2002F09D156
:1008C000BDF808008DF80000BDF814008DF8010097
:1008D0000120824676B2012E29D17FB2012F26D186
:1008E000BDF90800BDF91610401A1A2803DABDF93F
:1008F0000800472806DABDF90800BDF91610401AAD
:1009000015280ADABDF816008DF80100BDF80A00B6
:100910008DF800000120824609E0BDF814008DF832
:100920000000BDF814008DF801000120824676B267
:10093000022E42DB7FB2022F3FDBBDF90800BDF97A
:100940001610401A1A2803DABDF90800472806DAFB
:10095000BDF90A00BDF91810401A15280ADABDF8C9
:1009600018008DF80100BDF80C008DF80000012082
:10097000824622E0BDF90800BDF91610401A15287C
:1009800011DABDF90A00BDF91810401A15280ADB62
:10099000BDF816008DF80100BDF80A008DF80000C2
:1009A0000120824609E0BDF814008DF80100BDF871
:1009B00008008DF8000001208246BDF91400BDF941
:1009C000081088422ADABDF90800462826DB76B2EC
:1009D000002E0BD17FB2002F08D175208DF80100B9
:1009E000BDF808008DF800000120824676B2002E86
:1009F00014D17FB2012F11D1BDF9080047280DDBBA
:100A0000BDF91400012809DBBDF814008DF80100C0
:100A1000BDF80A008DF80000012082465FFA8AFACC
:100A2000BAF1010F05D1DFF8C80A0078DFF8341AEF
:100A300008705FFA8AFABAF1000F19D09DF9010027
:100A400004009DF9000064B2844211DB09A864B27D
:100A500030F91400BDF92010884207DB8DF80440FE
:100A600009A864B230F91400ADF82000641EE8E76C
:100A70005FFA8AFABAF1000F36D00020DFF8E819E1
:100A800008809DF9010080469DF900000FFA88F862
:100A900000B2804519DBDFF8D0090088DFF8A41622
:100AA0000FFA88F831F91810DFF89C260FFA88F849
:100AB00032F918205118022291FBF2F10818DFF8E0
:100AC000A8190880B8F10108DEE7DFF89C09B0F941
:100AD00000009DF901109DF90020891A491C90FB26
:100AE000F1F0DFF8841908805FFA8AFABAF1000F92
:100AF0000BD1DFF8700990F900008DF80400DFF8E1
:100B0000E8090088DFF8601908805FFA8AFABAF10C
:100B1000000F06D1DFF8D4090068401CDFF8CC19BB
:100B200008605FFA8AFABAF1000F03D00020DFF8FC
:100B3000BC190860DFF8B4090068032802DB7820DC
:100B40008DF80400DFF8AC090078DFF8AC19087004
:100B500000F0E2FCDFF8A4090078DFF8A4190870BF
:100B6000DFF8980980F800A0DFF8980900780128DC
:100B70000CD15FFA8AFABAF1010F07D10120DFF830
:100B8000881908700020DFF87C1908709DF80400AF
:100B9000DFF85C19087045B0BDE8F08F2DE9F0432F
:100BA000BDB000240025002600275FF0000800A843
:100BB000F02100F055FD00230020002100225FF00D
:100BC000000C644664B2782C0FDA5FF0000CDFF89A
:100BD0003CE964B22EF814C05FF09F0CDFF830E9F6
:100BE00064B22EF814C0641CECE75FF0740C644629
:100BF00064B2012CC0F207826DB2002D1CD164B228
:100C0000152C06DA5FF0140C61465FF08B0C604621
:100C100018E064B2282C08DA64B2D4F1280C6146DA
:100C200064B214F1770C60460CE05FF0050C61468D
:100C30005FF09A0C604605E05FF0050C61465FF0DE
:100C40009A0C60461BB209B28B4200DA0B001F00FF
:100C50003FB200B2874280F2E780DFF8B8C864B2E2
:100C60005FF0A00E14FB0ECC3FB217F80CC0DFF8FB
:100C7000A4E864B25FF0A00914FB09EE3FB217EBE1
:100C80000E0E9EF801E0F4455CD2DFF888C864B22D
:100C90005FF0A00E14FB0ECC3FB217EB0C0C1CF84F
:100CA00001CCDFF870E864B25FF0A00914FB09EE34
:100CB0003FB217EB0E0E9EF802E0F44542D2DFF889
:100CC0004CC864B23CF914C0BCF1000F3AD1DFF853
:100CD0003CC864B22CF81470DFF830C864B21CEB66
:100CE000440CBCF904C0DFF824E864B21EEB440EE7
:100CF000BEF902E0BCEB0E0CBCF1010F10DBDFF81B
:100D00000C3864B213EB4403B3F90430DFF8FCC7CA
:100D100064B21CEB440CBCF902C0B3EB0C030FE053
:100D2000DFF8E83764B213EB4403B3F90230DFF8BD
:100D3000DCC764B21CEB440CBCF904C0B3EB0C037D
:100D4000FB1A083BDFF8CCC764B25FF0A00E14FBBF
:100D50000ECC3FB217F80CC0DFF8B8E764B25FF012
:100D6000A00914FB09EE3FB217EB0E0E1EF801ECC2
:100D7000F44557D2DFF89CC764B25FF0A00E14FBB5
:100D80000ECC3FB217EB0C0C9CF801C0DFF884E7E7
:100D900064B25FF0A00914FB09EE3FB217EB0E0E30
:100DA0001EF802ECF4453DD23FB29A2F0EDADFF87E
:100DB00064C764B25FF0A00E14FB0ECC3FB217EB19
:100DC0000C0C9CF805C0BCF1000F02D03FB29A2F6A
:100DD00028DBDFF83CC764B23CF914C0BCF19F0FBC
:100DE00020D13FB29A2F05DADFF824C764B22CF87D
:100DF000147019E0DFF81CC764B25FF0A00E14FB9A
:100E00000ECC3FB217EB0C0C9CF805C0BCF1000FE8
:100E100008D13FB29A2F05DBDFF8F4C664B22CF894
:100E2000147001E07F1C13E7DFF8E4C664B23CF8FD
:100E300014C0DFF8D8E664B23EF814E0BCEB0E0C48
:100E40000DF1000E64B22EF814C00DF1000C64B266
:100E50003CF914C0BCF1330F06DB5FF0000C0DF160
:100E6000000E64B22EF814C064B2752C28DA0DF1AD
:100E7000000C64B23CF914C0BCF1010F20DB0DF191
:100E8000000C64B21CEB440CBCF902C0BCF1010FB5
:100E900016DB0DF1000C64B21CEB440CBCF904C071
:100EA000BCF1000F0CD10DF1000C64B21CEB440C32
:100EB000BCF906C0BCF1000F02D114F1010C65466B
:100EC0000DF1000C64B23CF914C0BCF1000F21D14B
:100ED0000DF1000C64B21CEB440CBCF902C0BCF177
:100EE000000F17D10DF1000C64B21CEB440CBCF9DF
:100EF00004C0BCF1010F0DDB0DF1000C64B21CEB62
:100F0000440CBCF906C0BCF1010F03DB14F1020C68
:100F1000664678E0DFF8F4C564B23CF914C0DFF847
:100F2000ECE564B21EEB440EBEF902E0BCEB0E0C25
:100F3000BCF1010F0EDBDFF8D4C564B23CF914C07C
:100F4000DFF8C8E564B21EEB440EBEF902E0BCEB6C
:100F50000E0C0DE0DFF8B4C564B21CEB440CBCF918
:100F600002C0DFF8A8E564B23EF914E0BCEB0E0C59
:100F7000BCF10B0F30DADFF898C564B23CF914C04D
:100F8000DFF88CE564B21EEB440EBEF902E0BCEB68
:100F90000E0CBCF1010F0EDBDFF874C564B23CF936
:100FA00014C0DFF86CE564B21EEB440EBEF902E03B
:100FB000BCEB0E0C0DE0DFF858C564B21CEB440C22
:100FC000BCF902C0DFF848E564B23EF914E0BCEBBE
:100FD0000E0CBCF10B0F14DB6DB2012D11DB14F103
:100FE000010C66465FF0000CDFF820E564B22EF8D5
:100FF00014C05FF09F0CDFF818E564B22EF814C03F
:1010000001E0641EF4E576B26DB2AE4206DA76B265
:10101000002E03D05FF0010C624608E06DB2002D97
:1010200005D176B2562E02DB5FF0010C624676B235
:101030000A2E0EDA76B26DB2AE420ADA6DB276B22E
:10104000B5EB060CBCF10F0F03DB5FF0000C624642
:1010500022E076B2282E0EDA76B26DB2AE420ADA0D
:101060006DB276B2B5EB060CBCF1150F03DB5FF089
:10107000000C624610E076B2282E0DDB76B26DB21F
:10108000AE4209DA6DB276B2B5EB060CBCF11F0FB9
:1010900002DB5FF0000C6246D2B2002A04D0DFF817
:1010A00030C58CF8006005E05FF0000CDFF820E54B
:1010B0008EF800C0D2B2012A3FD15FF0000CDFF8F9
:1010C00014E5AEF800C06DB2A846B4464FFA8CFCE9
:1010D0000FFA88F80FFA8CFCE0451EDBDFF8F4C449
:1010E000BCF800C0DFF824E40FFA88F83EF918E0F5
:1010F000DFF81C940FFA88F839F9189019EB0E0EE6
:101100005FF002099EFBF9FE1EEB0C0CDFF8C4E455
:10111000AEF800C0B8F10108D7E7DFF8B8C4BCF9F1
:1011200000C06DB276B2B5EB060E1EF1010E9CFB4F
:10113000FEFCDFF8A0E4AEF800C03DB0BDE8F083EF
:101140007AAA0000A018FF1F9019FF1F701BFF1F35
:10115000DFF884040078002811D1DFF88004DFF87C
:10116000901391F9001030F81100DFF8741491F920
:10117000001040FA81F0DFF86C1408800FE0DFF80F
:101180006804DFF86C1391F9001030F81100DFF8F3
:10119000501491F90010401ADFF848140880DFF865
:1011A00038040078002804D14620DFF84014087085
:1011B00003E05720DFF834140870DFF834040078B7
:1011C000012804D12820DFF82C14088003E019201E
:1011D000DFF820140880DFF8F80390F90000DFF84A
:1011E0001414B1F9001000B2884280F23A81DFF89D
:1011F0000804DFF87412B1F9001030F81100DFF8BC
:10120000FC130880DFF8E803007801280ED1DFF82E
:10121000D40300883730DFF8E8130880DFF8C40310
:1012200000883738DFF8DC1308800DE0DFF8B403FE
:1012300000881930DFF8C8130880DFF8A803008899
:101240001938DFF8C0130880DFF8A40290F9000015
:10125000DFF8A813B1F9001000B288423ADADFF8DB
:10126000900290F90000062834DBDFF8640390F95F
:10127000000001282EDBDFF8740390F90000DFF88E
:101280005413B1F9001000B2884223DADFF84403A6
:10129000B0F9000073281DDADFF86803B0F9000028
:1012A000012804DBDFF85C03B0F9000000E0002057
:1012B0006D49B1F9001088420CDA6B48B0F90000B2
:1012C000DFF83C13B1F90010884203DA0120DFF89F
:1012D00038130870DFF8180290F90000DFF81C13CB
:1012E000B1F9001000B288423ADADFF8040290F94E
:1012F0000000062834DBDFF8D80290F9000001284E
:101300002EDBDFF8E80290F90000DFF8C812B1F92F
:10131000001000B2884223DBDFF8B802B0F9000009
:101320002A281DDBDFF8DC02B0F90000012804DB0D
:10133000DFF8D002B0F9000000E000204A49B1F91E
:10134000001088420CDA4848B0F90000DFF8B0120B
:10135000B1F90010884203DA0120DFF8AC120870FE
:10136000DFF8A40290F9000001287AD1DFF89C028E
:10137000DFF85C1291F9001030F81100DFF8541218
:101380000988401ADFF8881291F9001040FA81F0BC
:10139000DFF880120880DFF88002DFF8341291F95C
:1013A000001030F81100DFF82C120988401ADFF81D
:1013B000601291F9001040FA81F0DFF860120880A5
:1013C0002948B0F90000DFF84C12B1F900100818F4
:1013D0004F38012809DB2448B0F90000DFF8341247
:1013E000B1F9001008184F3809E01F48B0F90000A3
:1013F000DFF82012B1F9001008184F3840421A499E
:10140000B1F90010DFF81422B2F9002051184F3959
:10141000012909DB1449B1F90010DFF80022B2F903
:10142000002051184F3909E00F49B1F90010DFF8D9
:10143000EC21B2F9002051184F394942884208DAAC
:101440000120DFF8DC1108700020DFF8D8110870E7
:1014500007E00120DFF8CC1108700020DFF8C01190
:10146000087070478BD7FF1F64D7FF1FDFF8B401E8
:101470000078012805D1DFF85C01B0F9000096285A
:1014800025DADFF89C010078012805D1DFF8440156
:10149000B0F900000B281ADBDFF88C01B0F900006E
:1014A0008D2805DADFF88001B0F90000142809DA88
:1014B000DFF870010078002809D1DFF864010078B6
:1014C000002804D1424890F900005A280BDB002084
:1014D000DFF84C1108700020DFF848110870022076
:1014E000DFF824110870704766D7FF1FBC16FF1F76
:1014F0008ED7FF1FCD14FF1F92D7FF1F8FD7FF1F5F
:1015000090D7FF1F1D06FF1F7ED7FF1FC016FF1FAE
:10151000B017FF1F7066FF1F444890F90000422873
:1015200011DB424890F9000078280CD04048006850
:10153000401C3F4908603E480068032813DB012037
:101540003C4908700FE0394890F9000000280AD0A3
:10155000364890F90000422805DA00203449086036
:10156000022034490870704733480078012807D1B9
:1015700032480078002803D131480078314908709A
:1015800031483249B1F9001030F811003049087083
:10159000304800683049B1F90010884214DB2C480B
:1015A00090F90000274991F90010884208DA25488F
:1015B00090F900005A2803DA01202849087006E053
:1015C00000202649087002E0002024490870704776
:1015D0008DD7FF1F60D7FF1F82D7FF1FC80EFF1FC9
:1015E000B814FF1F62D7FF1FD80DFF1F85D7FF1F3D
:1015F00088D7FF1F72D7FF1F9811FF1F6CD7FF1FDF
:101600006ED7FF1F70D7FF1FC914FF1FB80FFF1F32
:1016100050D7FF1F6AD7FF1FA810FF1F68D7FF1FF3
:1016200089D7FF1F8AD7FF1F64D7FF1F8ED7FF1FE1
:10163000B816FF1FCD14FF1F90D7FF1F8FD7FF1FB6
:101640008BD7FF1F91D7FF1FC813FF1F58D7FF1F4E
:101650008CD7FF1FBC16FF1F4CD7FF1F84D7FF1F5F
:10166000002200F011B850F8041B61B150F8042BAF
:10167000D30744BFA9F101039A180023091F42F8B8
:10168000043BFAD1EFE7704700B500BF1300964660
:101690009446103928BFA0E80C50FAD85FEA417C84
:1016A00028BF0CC048BF40F8042BC90728BF20F84A
:1016B000022B48BF00F8012B00BD4B0000001000BA
:1016C00020003000400050006000000000002800B2
:1016D00032003C00460050005A0000004600420024
:1016E0003E003B00380035003200000006000500D7
:1016F00004000300020001000000050005000400D2
:1017000003000200010000000400040003000200C6
:1017100001000100000003000300030002000100BB
:1017200001000000020002000200010001000000B0
:1017300000000200010001000000000000000000A5
:101740000100010000000000000000000000000097
:101750003004FF1F00001000200030004000500047
:10176000600000000000280032003C0046005000ED
:101770005A00000019001700150011000E000C009F
:101780000A0000000600050004000300020001003A
:101790000000050005000400030002000100000035
:1017A0000400040003000200010001000000030027
:1017B000030003000200010001000000020002001B
:1017C0000200010001000000000002000100010011
:1017D0000000000000000000010001000000000007
:1017E0000000000000000000C804FF1FCD00000042
:1017F0000000100020003000400050006000000099
:101800000000280032003C00460050005A00000052
:10181000CB00DA00E10004011A014A015E01000078
:10182000DC00E600F500FF0013013B014F01000062
:10183000D200E100F000FD00090122013B0100009F
:10184000C300CD00DC00EB00F500FA000901000048
:10185000CB00D700E600FF0013014A015901000048
:10186000060005000400030002000100000005005E
:101870000500040003000200010000000400040051
:101880000300020001000100000003000300030048
:10189000020001000100000002000200020001003D
:1018A0000100000000000200010001000000000033
:1018B0000000000001000100000000000000000026
:1018C000000000006405FF1F010132000A00000053
:1018D0000000000000000000000000000000000008
:1018E00000000000000000000000000000004E6F3B
:1018F0006E4D61736B61626C65000000004861723F
:10190000644661756C740000000000004D656D4D0B
:10191000616E6167656D656E740000427573466146
:10192000756C740000000000000055736167654627
:1019300061756C74000000000000000000000000F1
:101940000000000000000000000000000000000097
:101950000000000000000000000000000000000087
:101960000000000000000000000000000000000077
:101970000000000000535643616C6C000000000042
:101980000000000044656275674D6F6E69746F7288
:101990000000000000000000000000000000000047
:1019A000000050656E645356000000000000000007
:1019B000005379735469636B00000000000000005D
:1019C000444D4130000000000000000000000044D1
:1019D0004D41310000000000000000000000444DB7
:1019E00041320000000000000000000000444D41B2
:1019F000330000000000000000000000444D4134AE
:101A00000000000000000000000000444D413500CF
:101A100000000000000000000000444D41360000BE
:101A2000000000000000000000444D4137000000AD
:101A30000000000000000000444D4138000000009C
:101A400000000000000000444D413900000000008B
:101A5000000000000000444D413130000000000053
:101A60000000000000444D41313100000000000042
:101A700000000000444D4131320000000000000031
:101A8000000000444D413133000000000000000020
:101A90000000444D4131340000000000000000000F
:101AA00000444D41313500000000000000000000FE
:101AB000444D415F4572726F720000000000004D9E
:101AC000434D0000000000000000000000004654EC
:101AD000464C00000000000000000000005265615C
:101AE000645F436F6C6C6973696F6E004C56445F42
:101AF0004C565700000000000000004C4C570000FE
:101B0000000000000000000000005761746368647A
:101B10006F6700000000000000524E470000000008
:101B200000000000000000004932433000000000C7
:101B300000000000000000493243310000000000B6
:101B40000000000000005350493000000000000079
:101B50000000000000535049310000000000000068
:101B60000000000053504932000000000000000057
:101B700000000043414E305F4F525F4D425F62753F
:101B8000660043414E305F4275735F4F66660000EA
:101B90000043414E305F4572726F720000000000DA
:101BA00043414E305F54785F5761726E696E674390
:101BB000414E305F52785F5761726E696E67434184
:101BC0004E305F57616B655F557000000052657362
:101BD00065727665643531000000000052657365FA
:101BE000727665643532000000000043414E315F7B
:101BF0004F525F4D425F6275660043414E315F4216
:101C000075735F4F666600000043414E315F457259
:101C1000726F72000000000043414E315F54785FE4
:101C20005761726E696E6743414E315F52785F57FC
:101C300061726E696E6743414E315F57616B655FDC
:101C40005570000000526573657276656435390021
:101C500000000000526573657276656436300000DE
:101C600000000055415254305F52585F54580000F4
:101C7000000055415254305F4552520000000000B0
:101C80000055415254315F52585F545800000000D3
:101C900055415254315F455252000000000000553A
:101CA000415254325F52585F545800000000554171
:101CB0005254325F4552520000000000005541521C
:101CC00054335F52585F545800000000554152543D
:101CD000335F455252000000000000554152543419
:101CE0005F52585F54580000000055415254345F11
:101CF00045525200000000000055415254355F52D9
:101D0000585F54580000000055415254355F455209
:101D10005200000000000041444330000000000079
:101D200000000000000041444331000000000000BA
:101D30000000000000434D50300000000000000093
:101D400000000000434D5031000000000000000082
:101D5000000000434D503200000000000000000071
:101D6000000046544D30000000000000000000005C
:101D70000046544D3100000000000000000000004B
:101D800046544D32000000000000000000000043F7
:101D90004D540000000000000000000000005254FC
:101DA00043000000000000000000000000526573C6
:101DB0006572766564383300000000005049543085
:101DC00000000000000000000000005049543100F5
:101DD00000000000000000000000504954320000E4
:101DE00000000000000000000050495433000000D3
:101DF00000000000000000005044423000000000DD
:101E000000000000000000555342300000000000B8
:101E1000000000000000555342444344000000000D
:101E20000000000000454E45545F313538385F549E
:101E3000696D6572454E45545F5472616E736D698C
:101E4000740000454E45545F5265636569766500D0
:101E50000000454E45545F4572726F7200000000ED
:101E60000049325330000000000000000000000074
:101E700053444843000000000000000000000044FC
:101E80004143300000000000000000000000444119
:101E900043310000000000000000000000545349DE
:101EA0003000000000000000000000004D4347002B
:101EB00000000000000000000000004C5054696D5C
:101EC00065720000000000000000526573657276C4
:101ED000656431303200000000504F525441000020
:101EE0000000000000000000504F5254420000006B
:101EF00000000000000000504F525443000000005A
:101F0000000000000000504F525444000000000048
:101F10000000000000504F52544500000000000037
:101F200000000000526573657276656431303800D8
:101F300000000052657365727665643130390000C7
:101F400000005265736572766564313130000000BF
:101F500000526573657276656431313100000000AE
:101F6000526573657276656431313200000000524B
:101F70006573657276656431313300000000526527
:101F80007365727665643131340000000052657308
:101F90006572766564313135000000005265736505
:101FA00072766564313136000000005265736572E7
:101FB00076656431313700000000526573657276D2
:101FC00065643131380000000052657365727665D2
:101FD000643131390000000000800340009003406C
:101FE00000800B4000900B4000F00F4040F00F408D
:101FF00080F00F40C0F00F4000F10F4066000A1D56
:1020000032000701640007106E000406780004081F
:102010008200040A8C00040C9600040EA000041038
:10202000AA000412B4000414BE000416C800041868
:10203000D200041ADC00041CE100041DE600041EAA
:10204000EB00041FF4000317FA0003181301010644
:102050002C010214000109080090044000A0044073
:1020600000B0044000C0044000D0044000A006407E
:1020700000B0064000C0064000D0064000A00E4060
:1020800000B00E4053005200520051005100500069
:1020900050004F004F004E004E004D004D004C00D0
:1020A0004C004B004B004A004A00490048004800E1
:1020B00047004700460046004500450044004400F4
:1020C0004300430042004200410041004000400004
:1020D0003F003F003E003E003D003D003C003C0014
:1020E0003B003B003A003A00390039003800380024
:1020F0003700370036003600350035003400340034
:102100003300330032003200310031003000300043
:102110002F002F002E002E002D002D002C002C0053
:102120002B002B002A002A00290029002800280063
:102130002700270026002600250025002400240073
:102140002300230022002200210021002000200083
:102150001F001F001E001E001D001D001C001C0093
:102160001B001B001A001A001900190018001800A3
:10217000170017004C004D004D004E004E004F0060
:102180004F005000500051005100520052005300C7
:102190005300540054005500550056005700570096
:1021A00058005800590059005A005A005B005B0063
:1021B0005C005C005D005D005E005E005F005F0033
:1021C0006000600061006100620062006300630003
:1021D00064006400650065006600660067006700D3
:1021E00068006800690069006A006A006B006B00A3
:1021F0006C006C006D006D006E006E006F006F0073
:102200007000700071007100720072007300730042
:102210007400740075007500760076007700770012
:1022200078007800790079007A007A007B007B00E2
:102230007C007C007D007D007E007E007F007F00B2
:102240008000800081008100820082008300830082
:102250008400840085008500860086008700870052
:102260008800880029002800280027002700270070
:10227000260026002500250024002400230023003A
:102280002200220021002100200020001F001F004A
:102290001E001E001D001D001C001C001B001B005A
:1022A0001A001A001900190018001800170017006A
:1022B000160016001500150014001400130013007A
:1022C0001200120011001100100010000F000F008A
:1022D0000E000E000D000D000C000C000B000B009A
:1022E0000A000A00090009000800080007000700AA
:1022F00006000600050005000400040003000300BA
:1023000002000200020001000100000000000000C5
:102310000000FFFFFFFFFEFFFEFFFDFFFDFFFCFFD4
:10232000FCFFFBFFFBFFFAFFFAFFF9FFF9FFF8FFE5
:10233000F8FFF7FFF7FFF6FFF6FFF5FFF5FFF4FFF5
:10234000F4FFF3FFF3FFF2FFF2FFF1FFF1FFF0FF05
:10235000F0FFEFFF760077007700780078007800D4
:10236000790079007A007A007B007B007C007C0099
:102370007D007D007E007E007F007F008000800069
:102380008100810082008200830083008400840039
:102390008500850086008600870087008800880009
:1023A000890089008A008A008B008B008C008C00D9
:1023B0008D008D008E008E008F008F0090009000A9
:1023C0009100910092009200930093009400940079
:1023D0009500950096009600970097009800980049
:1023E000990099009A009A009B009B009C009C0019
:1023F0009D009D009D009E009E009F009F009F00ED
:102400009F00A000A000A100A100A200A200A300C4
:10241000A300A400A400A500A500A600A600A70094
:10242000A700A800A800A900A900AA00AA00AB0064
:10243000AB00AC00AC00AD00AD00AE00AE00AF0034
:10244000AF00B00025002500250025002400240051
:102450002400240023002300230023002200220064
:102460002200220022002100210021002100210061
:10247000200020002000200020001F001F001F005F
:102480001F001F001F001E001E001E001E001E0059
:102490001E001D001D001D001D001D001D001D0053
:1024A0001C001C001C001C001C001C001C001C004C
:1024B0001C001B001B001B001B001B001B001B0043
:1024C0001B001B001B001A001A001A001A001A0039
:1024D0001A001A001A001A001A001A001A001A002C
:1024E0001A001A001A001A001A001A001A001A001C
:1024F0001A001A001A001A001A001A001A001A000C
:102500001A001B001B001B001B001B001B001B00F4
:102510001B001B001B001C001C001C001C001C00DE
:102520001C001C001C001C001D001D001D001D00C7
:102530001D001D001D001E001E001E001E001E00AE
:102540001E001F001F001F001F001F001F00200093
:102550002000200020002000210021002100210077
:10256000210022002200220022002200230023005A
:10257000230023002400240024002400250025003B
:1025800025002500060006000600060006000600DD
:10259000060006000600060006000600060006000B
:1025A00006000600060006000600060006000600FB
:1025B00006000600060006000600070007000700E8
:1025C00007000700080008000800080009000900CB
:1025D00009000A000A000A000A000B000B000B00A9
:1025E0000B000B000B000B000B000B000B000B0093
:1025F0000B000B000B000B000B000B000B000B0083
:102600000B000B000B000B000B000B000B000B0072
:102610000B000B000B000B000B000B000B000B0062
:102620000B000B000B000B000B000B000B000B0052
:102630000B000B000B000B000B000B000B000B0042
:102640000B000B000B000B000B000B000B000B0032
:102650000B000B000B000B000B000B000B000B0022
:102660000B000B000B000B000B000B000B000B0012
:102670000B000B0026002600260026002600260060
:10268000260026002600260026002600260026001A
:102690002600260026002600260026002600270009
:1026A000280029002A002B002B002C002D002E00D2
:1026B000300031003200330034003500360038007D
:1026C00039003A003C003C003C003C003C003C002F
:1026D0003C003C003C003C003C003C003C003C001A
:1026E0003C003C003C003C003C003C003C003C000A
:1026F0003C003C003C003C003C003C003C003C00FA
:102700003C003C003C003C003C003C003C003C00E9
:102710003C003C003C003C003C003C003C003C00D9
:102720003C003C003C003C003C003C003C003C00C9
:102730003C003C003C003C003C003C003C003C00B9
:102740003C003C003C003C003C003C003C003C00A9
:102750003C003C003C003C003C003C003C003C0099
:102760003C003C0005000000CDCC4C3F00009642F0
:102770000000204102020102020100006A6B6C6D40
:10278000000000009A11406F040000000D8111004C
:1027900009030CD01240173F185019031A78320061
:1027A000A00A63E0ACFF650C6600670029282A00D8
:1027B0007E0C7F16802A814E8261836F847B8586A2
:1027C000868E879788A489AF8AC58BD78CE88D20A1
:1027D0004A00491347084B144C1746052299230316
:1027E000A6049B009C19AB069E119F0230040000BA
:1027F0000D81110009030CD01240173F1850190326
:102800001A783200A00A63E0ACFF650C660067002E
:1028100029282A007E0C7F16802A814E8261836FD0
:10282000847B8586868E879788A489AF8AC58BD757
:102830008CE88D204A00491347084B144C17460575
:1028400022992303A6049B009C20AB069E119F02A5
:1028500002040101F8D6FF1F48D7FF1FF8D6FF1F5B
:10286000F8D6FF1FF8D6FF1FE115FF1FC815FF1F81
:102870000000000000000000000000000000000058
:102880000000000000000000000000000000000048
:102890002DE9F04FA1B08246002017461D46029157
:1028A0000B900DF1440B6FF000490AE017F8011B83
:1028B0000298D0470290002800F0A2820B98401C9A
:1028C0000B90387808B90B989CE22528EED10020AF
:1028D000059006900790089009900A9001E040F05A
:1028E000010017F8011F2029F9D023290DD02B2929
:1028F00004D02D2906D030290AD00CE040F0020087
:1029000080B2EEE740F00400FAE740F00800F7E795
:1029100040F01000F4E72A290ED12968296051F807
:10292000042B2960002A0D9204D5514240F0040086
:102930000D9180B27F1C11E000210D9109E00D99ED
:10294000494505D001EB810302EB430130390D917C
:102950007F1C3A78A2F130010A29F0D339782E2968
:1029600003D04FF0FF310C911DE017F8011F2A2909
:1029700007D1296829607F1C51F8042B29600C922B
:1029800011E000210C9109E00C99494505D001EBBB
:10299000810302EB430130390C917F1C3A78A2F19C
:1029A00030010A29F0D3ADF838000FF6B820397895
:1029B00000F066FD08B117F8010B8DF83A009DF89C
:1029C0003A00682802BF39786829622005D06C284F
:1029D00004BF38786C2803D171208DF83A007F1C31
:1029E00011A8049017F8014BB4F1250024D0203829
:1029F000022840F2C580133800F0EB800B3800F05D
:102A00004F81401E00F02481401E022840F2B88011
:102A1000001F00F01D81401F00F08380401E00F069
:102A2000D880401E29D0C01E0CD0801E00F0D1805E
:102A3000C01E00F0CE803DE10120059025208DF8DC
:102A4000440043E12868286050F8044B2860039450
:102A5000DDF83080B8F1000F04D5204600F01CFDF1
:102A6000804607E042460021204600F031FD08B1D3
:102A7000A0EB0408CDF8188028E1296829604FF000
:102A80003C0851F8040B29600021CDE9000111A890
:102A90000390DDE90001049C11B908B90C9AC2B198
:102AA0000206120FA0EB02123032D2B23A2AA8BFAD
:102AB00027320009A8F1010340EA017009091A55FB
:102AC00008BF0028984604D0039A08EB04039A42F2
:102AD000E6D308EB04000390C8F13C010C98069182
:102AE000814209DA401A08904FF6EF71BDF83800BC
:102AF0000840ADF83800E9E0002840F1E7809DF893
:102B0000380000F01400102840F0E0800D98059A7D
:102B1000801A089A801A401A0128C0F2D7800890BB
:102B2000D4E09DF83A0062281AD0682806D06A28B6
:102B30000CD06C281CD0712808D019E028682860B7
:102B400050F8041B28600B980880BFE028682860B4
:102B500050F8042B28600B98C117C2E90001B5E0BA
:102B60002868286050F8041B28600B980870ADE0B6
:102B70002868286050F8041B28600B980860A5E0BE
:102B80002868C01D20F007022A60D2E9000108323F
:102B90002A60CDE90001002903D5012005902D20F0
:102BA0000CE0BDF83800810703D5012005902B20EB
:102BB00004E0C00704D50120059020208DF84400D2
:102BC000059911A808180390214600A800F0D8F92B
:102BD0007CE09DF83A206C2A0DD0712A18BF6A2A31
:102BE00009D12868C01D20F007032B60D3E900013C
:102BF00008332B6005E02968296051F8040B29602F
:102C00000021CDE90001682A08BF80B207D0622AFE
:102C100008BFC0B203D0742A18BF7A2A02D100219B
:102C2000CDE900019DF83800000730D5DDE900014D
:102C3000002908BF00282AD044F02000782826D197
:102C400030208DF844008BF80140022005901EE0F2
:102C50009DF83A00294600F0D8F8CDE90001002996
:102C600004DA0598411C05912D210EE0BDF83800CD
:102C7000810704D50598411C05912B2105E0C0076B
:102C800005D50598411C0591202100F80B100599E8
:102C900011A808180390214600A800F0EDF815E0EF
:102CA000012005902868286050F8041B28608DF8E2
:102CB00044100BE0012005902520002C8DF84400E5
:102CC00004D00598411C059100F80B400D9805991A
:102CD000401A0899401A0699401A0999401A07990A
:102CE000401A0A99A0EB01089DF8380040070FD45C
:102CF00020208DF84000002408E0012310AA00A93C
:102D0000504600F098FB00287AD1641C4445F4DB5F
:102D1000059C11AE0AE016F8011B0298D0470290FC
:102D200000286DD00B98401C0B90641E002CF2D133
:102D300030208DF840000026089C08E0012310AAEE
:102D400000A9504600F077FB002859D1761CA64216
:102D5000F4DB069C039E0AE016F8011B0298D0479C
:102D6000029000284CD00B98401C0B90641E002C45
:102D7000F2D130208DF840000026099C07E00123A5
:102D800010AA00A9504600F056FBC8BB761CA6420C
:102D9000F5DB03980699079C0E1809E016F8011B4D
:102DA0000298D047029058B30B98401C0B90641EB9
:102DB000002CF3D130208DF8400000260A9C07E05B
:102DC000012310AA00A9504600F035FBC0B9761CBB
:102DD000A642F5DB9DF8380040077FF572AD202054
:102DE0008DF84000002400E0641C4445BFF669AD46
:102DF000012310AA00A9504600F01DFB0028F3D0C3
:102E00004FF0FF3021B0BDE8F08F622826D068284F
:102E10001DD06A2808D06C2827D0712804D07428C7
:102E200023D07A280CD020E00868C01D20F00700CD
:102E30000860D0E900230830086019461046704742
:102E40000A680A6052F8040B0A60002170470A6899
:102E50000A6052F8040B0A6000B20BE00A680A60CC
:102E600052F8040B0A6040B204E00A680A6052F8A3
:102E7000040B0A60C11770472DE9FA4E05460A4651
:102E80002F696F2A08BF082405D041F02000782858
:102E900014BF0A2410243C26D5E90001642A18BF77
:102EA000692A81468A4605D1002903DAD9F1000949
:102EB0006AEB4A0ABAF1000F08BFB9F1000F0CD152
:102EC000286B50B9082C36D195F83800000732D558
:102ED00030203B2687F83B002DE0E317484651465B
:102EE000224600F021FBA4FB0023A9EB02023032B2
:102EF000D2B2A6F1010B3A2A5E4603DB9DF8003000
:102F0000513B9A1881465FEA010A0BF8072008BF77
:102F1000B9F1000F03D0E868F1198842DDD3082C1D
:102F200009D195F83800000705D5F05D302802D0AA
:102F3000761E3020F055C6F13C00A861F119E96019
:102F4000296B884208DA081A28624FF6EF71288F39
:102F500008402887BDE8F38E00290ED595F8381073
:102F600001F01401102908D1696B6A69891A2A6A6B
:102F7000891A081A0128A8BF2862BDE8F38E00004C
:102F80002DE9F34F8BB0D0E90089006B002801AF29
:102F900048BF062005D404BF41F02000672802D1B5
:102FA00001200B99086340F2FF720B984168C1F34E
:102FB0000A50904220D1080302BF0B9800680028F5
:102FC0000AD10B99032088619DF8300061381A28D6
:102FD00058D30FF2A44109E00B99032088619DF8B2
:102FE000300061381A284AD30FF284410B98C06828
:102FF000032200F011FB00E1012807DA0B9800F032
:1030000046FB012802DB00230026EDE00B9ADFF8E7
:1030100054B1526840F2FE3161F31E520B994A607E
:1030200040F2FE31461A404649460022002300F095
:103030004FFB38BF89F0004936B247F297507043D2
:10304000494990FBF1F636B2C6F10707012F9246C7
:103050001BDBF80707D552465B464046494600F061
:103060004FFB804689467F105046594652465B4684
:1030700000F046FB002F82468B46EAD126E00FF295
:10308000EC31B3E70FF2EC31B0E77F420024374D6B
:1030900012E0F80707D552465B462046294600F065
:1030A0002FFB04460D467F105046594652465B465C
:1030B00000F026FB82468B46002FEAD14046494667
:1030C00022462B4600F0EEFB804689469DF83000F4
:1030D0000B99DFF89CB0096B40F02005662D0CBF02
:1030E00006F10A0006204718142FA8BF1327302026
:1030F0008DF804000DF10504012F3BDB40464946E5
:1031000000F00AFD014604F1080204234FF00A0C06
:10311000B1FBFCFC0CEB8C04A1EB4401303102F858
:10312000011D0A21BCFBF1FE0EEB8E04ACEB440446
:1031300030345B1E714602F8014DE7D1083F012F84
:1031400002F10804D8DB00F007FD02460B464046BA
:10315000494600F00FFD00225B4600F0D1FA8046A0
:103160008946CBE700002440A08601000000F03F24
:1031700084D797410DF10500201A0DF1050702E0F3
:10318000401E761E7F1C39783029F9D0662D02D179
:1031900036B2711C03E0652D0CBF012100210B9A92
:1031A000126B8B181BB29842B8BF03461BB21900B2
:1031B0001AD4814204DAC85D3528A8BF392000DA64
:1031C0003020CA19521E00E05B1E12F80159491E38
:1031D0008542F9D0392802D1C85D401CC855002964
:1031E00002D57F1E5B1C761C36B29DF830100B9802
:1031F00000961BB23A4600F003F80DB0BDE8F08F20
:103200002DE9F04786B006468A4690461D4600F0F6
:103210008EFD406A376B90F80090012D02DA01258F
:103220000FF258284AF02000BDF93840662808BF40
:10323000641C13D0672840F0888014F1040F73DBFE
:10324000BC4271DA96F83800641C000702D4BD4213
:10325000B8BF2F4624B23F1B48BF002724B2F068F6
:10326000B169012C21DA4A1C30230B54012F03DAF7
:1032700096F83810090702D502F80090521CE74270
:10328000B8BF7C4224B26142E719AF42B261B8BF15
:103290003D4671622DB2F5612A46B3694146181860
:1032A00000F0BAF9781BB062AEE00818A54216DA51
:1032B0002A46414600F0B0F9B1696918601BB16156
:1032C000012F706203DA96F83800000705D5F06820
:1032D00001F80090F069401CF061B76294E022466A
:1032E000414600F099F9B06920182D1B012F03DA2F
:1032F00096F83810090703D5F16800F80190401CD2
:10330000B0612DB2AF42B8BF3D46F068B3692DB28F
:103310002A4604EB0801181800F07EF9B069281855
:10332000B061781B70626FE0BD4204DA96F8381025
:10333000090758BF2F467F1E48BF0027BAF1670F05
:103340000CBF4FF0650A4FF0450AB169F06818F8F4
:10335000013B0B544A1C012F05DA96F83810090777
:1033600058BFB26115D502F80090531C012FB3610C
:103370000FDB6D1E2DB2AF42B8BF3D462DB22A46BF
:103380004146181800F048F9B0692818B061781B58
:103390007062F068B16901EB0008200008F801AB29
:1033A00003D42B2008F8010B03E02D2108F8011BA2
:1033B0006442002502AF08E00A2200A800F0D0FC19
:1033C000019807F8010B6D1C009C21B20129F3DA6A
:1033D000022D06DA4AF02000652804BF302008F8E4
:1033E000010B4DB9302008F8010B07E06D1E02A853
:1033F000285C303008F8010B012DF7DAF068B1696C
:103400000818A8EB0000F06196F8380000F01400EE
:1034100010280DD17069B1690818716A0818F1692E
:103420000818B16A0818716B8842BCBF081A30626C
:1034300006B0BDE8F087F8B504460D4616461F46AF
:10344000002004E0E86A401CE8627F1E002047B1CB
:1034500016F8011BA868A047A8600028F2D14FF019
:10346000FF30F2BD686A6C747A4C00006E616E00C9
:103470004E414E00696E6600494E460030001E0007
:103480000278C9B28A421AB11CBF10F8012FF9E7BD
:1034900018BF00207047250000F10103810704D008
:1034A00010F8011B89B18107FAD10268B2F101312C
:1034B000914311F0803F04BF50F8042FF6E710F855
:1034C000011B11B110F8011BFBE7C01A7047120075
:1034D000C9B2830706D0521E22D310F8013B99428D
:1034E000F7D11FE0083A13D302F1040241EA0121A7
:1034F00041EA014150F8043B121F21BF4B40A3F1A8
:10350000013C2CEA030C1CF0803FF3D0C9B2001F31
:10351000083210F8013B521E28BF91EA030FF8D879
:1035200018BF0120401E70471B4213D1094236D1FB
:103530002AB18446B0FBF2F002FB10C2704700F0E3
:1035400017BCFCD30022002370470B0002000021AF
:1035500000207047904271EB030CF6D370B5B1FABE
:1035600081F4B3FA83F52C1BA340C4F1200532FA91
:1035700005F63343A2405FF00046E64002E05B08F8
:103580005FEA3202841A71EB030524BF2046294604
:103590007641F4D302000B003000002170BD012AF7
:1035A000CFD970B5140C20D0B1FA81F4B2FA82F5FB
:1035B000C4F120046419B4F12006D6D3B2405FF000
:1035C0000044F440002502E052085FEA3303C61AC3
:1035D00071EB020E24BF3046714664416D41F3D356
:1035E00002000B002000290070BD0C46B1FBF2F177
:1035F00002FB11452D0445EA1045B5FBF2F402FB30
:10360000145580B240EA0545B5FBF2F002FB1052BA
:1036100040EA044070BD640062B38B0708D0521EBC
:1036200011F8013B00F8013B00F024808B07F6D134
:10363000830740F0208000BF103A07D330B4B1E8D0
:103640003810103AA0E83810F9D230BC530724BF24
:10365000B1E80810A0E8081044BF51F8043B40F856
:10366000043BD20724BF31F8022B20F8022B44BFC1
:103670000B7803707047083A07D3B1E80810083A8E
:1036800040F8043B40F804CBF7D25307E4E730B4EA
:10369000436803F0004201211B031B0B436004BF7E
:1036A0000368002B08D10DE00368DD0F45EA4404F0
:1036B00044605B000360491E4468E302F4D52303C1
:1036C0001B0B436043681A434260084630BC704796
:1036D0004FF4001C1CEB410F94BF1CEB430F09E09F
:1036E00041EA030C50EA4C0C52EA0C0C03D299420A
:1036F00008BF9042704714BF8B428242704700005F
:10370000B0B581EA030C0CF0004C40F2FF7515EAED
:1037100011541DBF15EA1357AC42AF4239E0E4190A
:1037200023EA455343F48013C90241F0004141EAC2
:10373000505EC7021100A7FB020200284FF00000F4
:10374000EEFB01204FF00001E3FB072118BF42F020
:103750000102401800214941E3FB0E01A4F58064F9
:103760000F0302D252004041494154F101046CDD83
:10377000470872F1004250F1000051EB0451A1F5ED
:1037800080115CBF41EA0C01B0BD4CEA055100203C
:10379000B0BD05EA1357AC4214BFAF4241E050EA56
:1037A000410E1CBF52EA430E02E061460020B0BD4C
:1037B00024423C441BD15FEA070EF6D0090302BF46
:1037C00001460020AEF1140EB1FA81F7AEEB07040A
:1037D00001FA07FE0C37C7F1200100FA07F7C840CD
:1037E0004EEA000E23EA455343F48013A2E733F078
:1037F0000043B3FA83F704BFB2FA82FE77440B3F6B
:10380000E41BB7F1200E2FBF02FA0EF3BB40C7F145
:10381000200E22FA0EFE38BF43EA0E03BA40641CA3
:1038200082E750EA410E14BF52EA430E6FF00001E6
:103830004FF4001717EB430F8ABF194617EB410FE0
:10384000B5E74CEA05510020B0BDD4F10104B4F154
:1038500020070FDAC4F12007520828BF42F0010206
:1038600010FA07F501FA07F7E1BF2A43E0403843B1
:10387000E1400FE0352C98DCC7F1200452EA400209
:1038800020FA07F218BF42F0010231FA07F0A14016
:103890000A43002172F1004250F1000051EB0C018B
:1038A000B0BD6400F0B540F2FF7581EA030C0CF086
:1038B000004C15EA11541DBF15EA1357AC42AF4234
:1038C000E5E0BC41C1F31301C3F31303801A99412E
:1038D00043F4801304D2641E4000494180185941CA
:1038E000C90241EA5051B1FBF3F603FB1611A2FBEA
:1038F0000675D7EBC020A94102D2761E8018594127
:10390000C90241EA5051B1FBF3FE03FB1E11A2FBB9
:103910000E75D7EBC020A94103D2AEF1010E80187D
:103920005941890241EA9051760546EA8E2EB1FB53
:10393000F3F603FB1611A2FB0675D7EB8020A94115
:1039400002D2761E80185941C90241EA50514EEA0E
:10395000060EB1FBF3F603FB1611A2FB0675D7EBBF
:10396000C020A94102D2761E80185941C90241EAFD
:103970005051B1FBF3F703FB1711A2FB0735D3EB53
:10398000C020A94167F100070CBF004247F00107C2
:1039900066F3D5274FEA1E31B80814F5806412DDAE
:1039A000BD0775F1004250EB0E5051EB045111F57B
:1039B000801F5CBF41EA0C01F0BD4CF07F6141F01B
:1039C000E0410020F0BDBD076D0840EA0E5041F413
:1039D0008011D4F10104B4F120060ADAC4F1200602
:1039E0000200E04001FA06F3E1401843B2401543FB
:1039F0000EE0342C13DCC6F1200445EA40056D08C6
:103A000020FA06F2154321FA06F0A1400D430021E9
:103A100075F1004250F1000051EB0C01F0BD0020A7
:103A20005FEA0C01F0BDCFB992185B41B3FA83F79E
:103A300004BFB2FA82F6BF190B3FB7F120062FBFC1
:103A400002FA06F3BB40C7F1200622FA06F638BF99
:103A50003343BA401CB1E419641E33E77F4231F0AE
:103A60000041B1FA81F404BFB0FA80F6A4190B3C0E
:103A7000B4F120062FBF00FA06F1A140C4F12006E0
:103A800020FA06F638BF3143A0403C1B1AE7AC428F
:103A90001ABF05EA1357AF4212E050EA41061CBFB5
:103AA00052EA4306BFE750EA4107304661461CBF71
:103AB00041EA0551F0BD52EA430C08BFC143F0BDD5
:103AC00000204FF4001616EB410F98BF16EB430F82
:103AD00008BF16EB410F24BFC14305E016EB430FAF
:103AE0000CBF61464CEA0551F0BD4B00F446400D59
:103AF00040EAC120490006D200F014F8004248BF55
:103B00006FF00040604700F00DF84FF00041884230
:103B10008CBF084640426047400D40EAC120490042
:103B200080F00D8040F00040490DA1F58061491CF6
:103B300005D4D1F11F0154BFC840C01770474FF0E2
:103B400000007047010040F10980F446404200F057
:103B500005F851F000416047010000BF09D0B0FAFC
:103B600080F18840C91CC1F58461090501EBD021B1
:103B70004005704770B44FF0004591EA030F44BF11
:103B80006B4000F001B900BF841A71EB030604D248
:103B90006E40001BB141121973414FF4001C1CEB25
:103BA000410F34BF7CEB430684E00C0DA4EB1356AD
:103BB000362E7DDC012E43DC45EAC32343EA525313
:103BC00012BFD20292025B08240545EAC12141EAF4
:103BD0005051D2EBC020994125D407D1B0FA80F6DC
:103BE00010FA06F164D00020203608E0B1FA81F620
:103BF000B140C6F1200220FA02F21143B0404FEA70
:103C0000F474B4EB465434F001064FEA74040AD855
:103C1000D6F50016760D04F00044F04061FA06F285
:103C20005040F1404840C00A40EA415021F0004174
:103C300028BF5FEA500550F1000044EBD12137E086
:103C400045EAC323DB0A45EAC121C90AB6F12005CA
:103C50000EDD42EA0242120CC5F1200603FA06F616
:103C6000EB4042EA06056D42984161F100010DE02A
:103C700062FA06F5F240554063FA06FC82EA0C024D
:103C8000F3405A406D42904161EB030111F4801FF3
:103C900005D1641E620502D06D004041494121F406
:103CA0008011430875F1004350F1000041EB0451CD
:103CB00070BC70471CEB410F15D223F0004352EA51
:103CC00043060BD04FEA4C0CBCEB410F04D80C0D53
:103CD000661E342EB7DDEBE7801A994150EA4106A3
:103CE00008BF0021E4E708BF1CEB430F28BF6FF0BB
:103CF0000001DDE780B5134800F0B0F80FF248018D
:103D0000016041608160C1600161416181610FF2C8
:103D10003C0242628162C162016341630FF2300280
:103D200082630FF23402C2630164416401BD10B5C5
:103D3000044800F093F80446206808B9FFF7DAFF5A
:103D4000204610BD98D7FF1F000000002E00000085
:103D500066616C7365000000747275650000000098
:103D600091FBF2F303FB1211C0E9003170471E0012
:103D70007047250070B44FF0004591EA030C44BF32
:103D80006B40FFF701BF00BF841A71EB030603D23B
:103D9000001BB141121973414FF4001C1CEB410F81
:103DA00034BF7CEB430443E00C0DA4EB1356352EDB
:103DB00050DC45EAC323DB0A45EAC121C912B6F14A
:103DC00020050DDD63FA05F6EB4086EA0305124295
:103DD00018BF45F00105C01851F100010CD213E0E5
:103DE00062FA06F5F2405540F3415A40B340F340C1
:103DF0005A408018594107D349085FEA30005FEA0A
:103E0000350528BF45F0010501F58011420875F11F
:103E1000004250F1000041EB045170BC4FF4001C13
:103E20001CEB410F38BF70470020090D0905704792
:103E30001CEB410F10D252EA43060BD0BCEB410FF2
:103E400005D80C0DAB43661E342EB5DD02E0AB4346
:103E50008018594170BC704770BC704770471200A1
:103E60002DE9F04F89B006000C0000275FF0000834
:103E7000DFF8D409B0F9000036B2864205DADFF87F
:103E8000C809B0F9000006000BE0DFF8C009B0F97E
:103E9000000036B2B04204DADFF8B009B0F9000031
:103EA000060036B2DFF8A009B0F90000301AFFF7BB
:103EB00049FE82468B46DFF89409B0F90000DFF82E
:103EC0008819B1F90010401AFFF73CFE02000B0000
:103ED00050465946FFF7E6FC82468B46DFF87009EC
:103EE000B0F90000DFF86C19B1F90010401AFFF7C3
:103EF00029FE52465B46FFF703FC82468B46DFF8FD
:103F00005409B0F90000FFF71DFE52465B46FFF76B
:103F100031FFFFF7EBFD0600DFF83C09B0F90000C8
:103F200024B2844205DADFF83009B0F90000040059
:103F30000BE0DFF82809B0F9000024B2A04204DA4F
:103F4000DFF81809B0F90000040024B2DFF808090E
:103F5000B0F90000201AFFF7F5FD04000D00DFF8AE
:103F6000FC08B0F90000DFF8F018B1F90010401AB1
:103F7000FFF7E8FD02000B0020002900FFF792FC8C
:103F800004000D00DFF8C808B0F90000DFF8C4181D
:103F9000B1F90010401AFFF7D5FD22002B00FFF702
:103FA000AFFB04000D00DFF8AC08B0F90000FFF72C
:103FB000C9FD22002B00FFF7DDFEFFF797FD04008F
:103FC000DFF89C08B0F9000036B2B04280F23A81C6
:103FD000DFF88C08B0F90C0036B2864280F23281EC
:103FE000DFF87C08B0F9020036B2B0422BDB0120CA
:103FF0000700DFF87008B0F9000000EE100AB8EE14
:10400000C00ADFF85C08B0F9020036B2801B00EE8F
:10401000900AF8EEE00ADFF84808B0F90200DFF88D
:104020004018B1F90010401A01EE100AB8EEC11A9A
:10403000C0EE810A20EE200ABDEEC00A10EE100A82
:10404000ADF80C0019E1DFF81808B0F9040036B239
:10405000B0422BDB02200700DFF80808B0F90000AF
:1040600000EE100AB8EEC00ADFF8F407B0F9040059
:1040700036B2801B00EE900AF8EEE00ADFF8E007A7
:10408000B0F90400DFF8D817B1F90210401A01EEB8
:10409000100AB8EEC11AC0EE810A20EE200ABDEE69
:1040A000C00A10EE100AADF80C00E6E0DFF8B00729
:1040B000B0F9060036B2B0422BDB03200700DFF870
:1040C000A407B0F9000000EE100AB8EEC00ADFF84D
:1040D0009007B0F9060036B2801B00EE900AF8EEA9
:1040E000E00ADFF87C07B0F90600DFF87417B1F9D1
:1040F0000410401A01EE100AB8EEC11AC0EE810A8F
:1041000020EE200ABDEEC00A10EE100AADF80C0039
:10411000B3E0DFF84C07B0F9080036B2B0422BDB51
:1041200004200700DFF83C07B0F9000000EE100A99
:10413000B8EEC00ADFF82807B0F9080036B2801BD5
:1041400000EE900AF8EEE00ADFF81407B0F9080074
:10415000DFF80C17B1F90610401A01EE100AB8EE9C
:10416000C11AC0EE810A20EE200ABDEEC00A10EE90
:10417000100AADF80C0080E0DFF8E406B0F90A00A0
:1041800036B2B0422BDB05200700DFF8D806B0F9C5
:10419000000000EE100AB8EEC00ADFF8C406B0F95D
:1041A0000A0036B2801B00EE900AF8EEE00ADFF853
:1041B000B006B0F90A00DFF8A816B1F90810401AE5
:1041C00001EE100AB8EEC11AC0EE810A20EE200AF4
:1041D000BDEEC00A10EE100AADF80C004DE0DFF89D
:1041E0008006B0F90C0036B2B04246DB062007006C
:1041F000DFF87006B0F9000000EE100AB8EEC00A51
:10420000DFF85C06B0F90C0036B2801B00EE900AB5
:10421000F8EEE00ADFF84806B0F90C00DFF84016C7
:10422000B1F90A10401A01EE100AB8EEC11AC0EE38
:10423000810A20EE200ABDEEC00A10EE100AADF889
:104240000C001AE0DFF81806B0F9000036B2B042F0
:1042500007DB01200700DFF80C060088ADF80C0032
:104260000BE0DFF8FC05B0F9060036B2B04204DB23
:10427000062007000020ADF80C00DFF8E805B0F9D3
:104280000000BDF80C10401AADF80E00DFF8D8059C
:10429000B0F9000024B2A04280F23A81DFF8C805EC
:1042A000B0F90C0024B2844280F23281DFF8B80504
:1042B000B0F9020024B2A0422BDB01208046DFF8D7
:1042C000A405B0F9000000EE100AB8EEC00ADFF84D
:1042D0009805B0F9020024B2001B00EE900AF8EE37
:1042E000E00ADFF88405B0F90200DFF87C15B1F9C7
:1042F0000010401A01EE100AB8EEC11AC0EE810A91
:1043000020EE200ABDEEC00A10EE100AADF808003B
:1043100016E1DFF85405B0F9040024B2A0422BDB0B
:1043200002208046DFF83C05B0F9000000EE100ADC
:10433000B8EEC00ADFF83005B0F9040024B2001B63
:1043400000EE900AF8EEE00ADFF81C05B0F9040070
:10435000DFF81415B1F90210401A01EE100AB8EE98
:10436000C11AC0EE810A20EE200ABDEEC00A10EE8E
:10437000100AADF80800E3E0DFF8EC04B0F906003D
:1043800024B2A0422BDB03208046DFF8D804B0F92A
:10439000000000EE100AB8EEC00ADFF8CC04B0F955
:1043A000060024B2001B00EE900AF8EEE00ADFF8E7
:1043B000B804B0F90600DFF8B014B1F90410401ADF
:1043C00001EE100AB8EEC11AC0EE810A20EE200AF2
:1043D000BDEEC00A10EE100AADF80800B0E0DFF83C
:1043E0008804B0F9080024B2A0422BDB04208046E8
:1043F000DFF87004B0F9000000EE100AB8EEC00A51
:10440000DFF86404B0F9080024B2001B00EE900A43
:10441000F8EEE00ADFF85004B0F90800DFF84814BD
:10442000B1F90610401A01EE100AB8EEC11AC0EE3A
:10443000810A20EE200ABDEEC00A10EE100AADF887
:1044400008007DE0DFF82004B0F90A0024B2A042A1
:104450002BDB05208046DFF80C04B0F9000000EEED
:10446000100AB8EEC00ADFF80004B0F90A0024B25E
:10447000001B00EE900AF8EEE00ADFF8EC03B0F95A
:104480000A00DFF8E413B1F90810401A01EE100A2F
:10449000B8EEC11AC0EE810A20EE200ABDEEC00AB5
:1044A00010EE100AADF808004AE0DFF8BC03B0F9DE
:1044B0000C0024B2A04243DB06208046DFF8A403B0
:1044C000B0F9000000EE100AB8EEC00ADFF8980359
:1044D000B0F90C0024B2001B00EE900AF8EEE00ADE
:1044E000DFF88403B0F90C00DFF87C13B1F90A108F
:1044F000401A01EE100AB8EEC11AC0EE810A20EE91
:10450000200ABDEEC00A10EE100AADF8080017E050
:10451000D548B0F9000024B2A04206DB0120804655
:10452000D0480088ADF808000AE0CF48B0F90C0088
:1045300024B2844204DB062080460020ADF8080047
:10454000C848B0F90000BDF80810401AADF80A00DC
:10455000C6480E2117FB01000FFA88F810EB48003F
:1045600030F9100CADF81000C0480E2117FB010007
:104570000FFA88F810EB480030F9020CADF8120081
:10458000BA480E2117FB01000FFA88F810EB48001B
:1045900030F90E0CADF81400B4480E2117FB0100E1
:1045A0000FFA88F830F91800ADF81600BDF80800C9
:1045B000BDF80C10884204D3BDF80C00ADF8000023
:1045C00003E0BDF80800ADF80000BDF80800BDF834
:1045D0000E10884204D3BDF80E00ADF8020003E0CF
:1045E000BDF80800ADF80200BDF80A00BDF80C10D7
:1045F000884204D3BDF80C00ADF8040003E0BDF818
:104600000A00ADF80400BDF80A00BDF80E1088429B
:1046100004D3BDF80E00ADF8060003E0BDF80A00B3
:10462000ADF80600BDF91000BDF9121088420CD19A
:10463000BDF80200BDF80010884203D20020ADF89A
:10464000020002E00020ADF80000BDF91000BDF945
:10465000141088420CD1BDF80400BDF80010884247
:1046600003D20020ADF8040002E00020ADF8000005
:10467000BDF91000BDF9161088420CD1BDF8060036
:10468000BDF80010884203D20020ADF8060002E019
:104690000020ADF80000BDF91200BDF914108842E9
:1046A0000CD1BDF80400BDF80210884203D20020EE
:1046B000ADF8040002E00020ADF80200BDF91200E0
:1046C000BDF9161088420CD1BDF80600BDF80210E5
:1046D000884203D20020ADF8060002E00020ADF8C9
:1046E0000200BDF91400BDF9161088420CD1BDF8C6
:1046F0000600BDF80410884203D20020ADF8060081
:1047000002E00020ADF8040059480068BDF910101F
:1047100030F91100ADF8100055480068BDF91210CD
:1047200030F81100ADF8120051480068BDF91410BE
:1047300030F81100ADF814004D480068BDF91610AE
:1047400030F81100ADF81600BDF80000BDF91010EA
:10475000BDF80220BDF912305A4301FB0020BDF81C
:104760000410BDF9142002FB0100BDF80610BDF9CC
:10477000162002FB01000790BDF80000BDF80210F2
:1047800011FA80F0BDF8041010FA81F0BDF806109F
:1047900010FA81F006900798069990FBF1F0814697
:1047A000484600B209B0BDE8F08F324800780028D2
:1047B00022D1314890F90000052808DA2F48B0F9D5
:1047C0001000022190FBF1F02C49088214E02A48E5
:1047D00090F900000A280CDA2848B0F910002649A0
:1047E00091F90010D1F10A0190FBF1F02349088200
:1047F00002E001201F4908701E480078002808D0F8
:104800001F4890F90000782803D11E4800881B49F2
:1048100008821D4890F90000012802D1DC201749C8
:104820000882704780B51948B0F90010002000F0E8
:104830002FF8094908801548B0F90010002000F051
:10484000D9FC0649088001BD02A90000AEA80000FD
:1048500074AA000076AA00002006FF1F1E06FF1F94
:104860004405FF1F78AA00005405FF1FB405FF1F71
:104870001806FF1F74D7FF1F80D7FF1F6416FF1F86
:104880007FD7FF1F4005FF1FCA14FF1F58D7FF1F08
:104890002DE9F04F89B006000C0000275FF00008FA
:1048A000DFF82409B0F9000036B2864205DADFF8F5
:1048B0001809B0F9000006000BE0DFF81009B0F9A4
:1048C000000036B2B04204DADFF80009B0F90000A7
:1048D000060036B2DFF8F008B0F90000301AFFF732
:1048E00031F982468B46DFF8E408B0F90000DFF8C2
:1048F000D818B1F90010401AFFF724F902000B0094
:1049000050465946FEF7CEFF82468B46DFF8C00878
:10491000B0F90000DFF8BC18B1F90010401AFFF739
:1049200011F952465B46FEF7EBFE82468B46DFF8F6
:10493000A408B0F90000FFF705F952465B46FFF7FF
:1049400019FAFFF7D3F80600DFF88C08B0F9000079
:1049500024B2844205DADFF88008B0F900000400D0
:104960000BE0DFF87808B0F9000024B2A04204DAC6
:10497000DFF86808B0F90000040024B2DFF8580836
:10498000B0F90000201AFFF7DDF804000D00DFF891
:104990004C08B0F90000DFF84018B1F90010401AD7
:1049A000FFF7D0F802000B0020002900FEF77AFF85
:1049B00004000D00DFF81808B0F90000DFF8141843
:1049C000B1F90010401AFFF7BDF822002B00FEF7E6
:1049D00097FE04000D00DFF8FC07B0F90000FFF7B8
:1049E000B1F822002B00FFF7C5F9FFF77FF80400AC
:1049F000DFF8EC07B0F9000036B2B04280F23A813D
:104A0000DFF8DC07B0F90C0036B2864280F2328162
:104A1000DFF8CC07B0F9020036B2B0422BDB012040
:104A20000700DFF8C007B0F9000000EE100AB8EE8A
:104A3000C00ADFF8AC07B0F9020036B2801B00EE06
:104A4000900AF8EEE00ADFF89807B0F90200DFF804
:104A50009017B1F90010401A01EE100AB8EEC11A11
:104A6000C0EE810A20EE200ABDEEC00A10EE100A48
:104A7000ADF80C0019E1DFF86807B0F9040036B2B0
:104A8000B0422BDB02200700DFF85807B0F9000026
:104A900000EE100AB8EEC00ADFF84407B0F90400CF
:104AA00036B2801B00EE900AF8EEE00ADFF830071D
:104AB000B0F90400DFF82817B1F90210401A01EE2E
:104AC000100AB8EEC11AC0EE810A20EE200ABDEE2F
:104AD000C00A10EE100AADF80C00E6E0DFF800079F
:104AE000B0F9060036B2B0422BDB03200700DFF836
:104AF000F406B0F9000000EE100AB8EEC00ADFF8C4
:104B0000E006B0F9060036B2801B00EE900AF8EE1F
:104B1000E00ADFF8CC06B0F90600DFF8C416B1F9F8
:104B20000410401A01EE100AB8EEC11AC0EE810A54
:104B300020EE200ABDEEC00A10EE100AADF80C00FF
:104B4000B3E0DFF89C06B0F9080036B2B0422BDBC8
:104B500004200700DFF88C06B0F9000000EE100A10
:104B6000B8EEC00ADFF87806B0F9080036B2801B4C
:104B700000EE900AF8EEE00ADFF86406B0F90800EB
:104B8000DFF85C16B1F90610401A01EE100AB8EE13
:104B9000C11AC0EE810A20EE200ABDEEC00A10EE56
:104BA000100AADF80C0080E0DFF83406B0F90A0016
:104BB00036B2B0422BDB05200700DFF82806B0F93B
:104BC000000000EE100AB8EEC00ADFF81406B0F9D3
:104BD0000A0036B2801B00EE900AF8EEE00ADFF819
:104BE0000006B0F90A00DFF8F815B1F90810401A0C
:104BF00001EE100AB8EEC11AC0EE810A20EE200ABA
:104C0000BDEEC00A10EE100AADF80C004DE0DFF862
:104C1000D005B0F90C0036B2B04246DB06200700E2
:104C2000DFF8C005B0F9000000EE100AB8EEC00AC7
:104C3000DFF8AC05B0F90C0036B2801B00EE900A2C
:104C4000F8EEE00ADFF89805B0F90C00DFF89015EF
:104C5000B1F90A10401A01EE100AB8EEC11AC0EEFE
:104C6000810A20EE200ABDEEC00A10EE100AADF84F
:104C70000C001AE0DFF86805B0F9000036B2B04267
:104C800007DB01200700DFF85C050088ADF80C00A9
:104C90000BE0DFF84C05B0F9060036B2B04204DB99
:104CA000062007000020ADF80C00DFF83805B0F949
:104CB0000000BDF80C10401AADF80E00DFF8280512
:104CC000B0F9000024B2A04280F23081DFF818056C
:104CD000B0F90C0024B2844280F22881DFF8080584
:104CE000B0F9020024B2A0422BDB01208046DFF89D
:104CF000F404B0F9000000EE100AB8EEC00ADFF8C4
:104D0000E804B0F9020024B2001B00EE900AF8EEAD
:104D1000E00ADFF8D404B0F90200DFF8CC14B1F9EE
:104D20000010401A01EE100AB8EEC11AC0EE810A56
:104D300020EE200ABDEEC00A10EE100AADF8080001
:104D40000CE1DFF8A404B0F9040024B2A0422BDB8C
:104D500002208046DFF88C04B0F9000000EE100A53
:104D6000B8EEC00ADFF88004B0F9040024B2001BDA
:104D700000EE900AF8EEE00ADFF86C04B0F90400E7
:104D8000DFF86414B1F90210401A01EE100AB8EE0F
:104D9000C11AC0EE810A20EE200ABDEEC00A10EE54
:104DA000100AADF80800D9E0DFF83C04B0F90600BD
:104DB00024B2A0422BDB03208046DFF82804B0F9A0
:104DC000000000EE100AB8EEC00ADFF81C04B0F9CB
:104DD000060024B2001B00EE900AF8EEE00ADFF8AD
:104DE0000804B0F90600DFF80014B1F90410401A05
:104DF00001EE100AB8EEC11AC0EE810A20EE200AB8
:104E0000BDEEC00A10EE100AADF80800A6E0DFF80B
:104E1000D803B0F9080024B2A0422BDB042080465E
:104E2000DFF8C003B0F9000000EE100AB8EEC00AC7
:104E3000DFF8B403B0F9080024B2001B00EE900ABA
:104E4000F8EEE00ADFF8A003B0F90800DFF89813E5
:104E5000B1F90610401A01EE100AB8EEC11AC0EE00
:104E6000810A20EE200ABDEEC00A10EE100AADF84D
:104E7000080073E0DC48B0F90A0024B2A04227DB46
:104E800005208046D748B0F9000000EE100AB8EEC1
:104E9000C00AD548B0F90A0024B2001B00EE900AFF
:104EA000F8EEE00AD048B0F90A00CF49B1F908108D
:104EB000401A01EE100AB8EEC11AC0EE810A20EEC7
:104EC000200ABDEEC00A10EE100AADF8080045E059
:104ED000C548B0F90C0024B2A0423FDB0620804652
:104EE000C048B0F9000000EE100AB8EEC00ABE4893
:104EF000B0F90C0024B2001B00EE900AF8EEE00AB4
:104F0000B948B0F90C00B849B1F90A10401A01EEDD
:104F1000100AB8EEC11AC0EE810A20EE200ABDEEDA
:104F2000C00A10EE100AADF8080017E0AE48B0F95C
:104F3000000024B2A04206DB01208046A948008878
:104F4000ADF808000AE0A848B0F90C0024B2844289
:104F500004DB062080460020ADF80800A148B0F927
:104F60000000BDF80810401AADF80A009F480E2155
:104F700017FB01000FFA88F810EB480030F9100C0D
:104F8000ADF8100099480E2117FB01000FFA88F8C0
:104F900010EB480030F9020CADF8120093480E21D6
:104FA00017FB01000FFA88F810EB480030F90E0CDF
:104FB000ADF814008D480E2117FB01000FFA88F898
:104FC00030F91800ADF81600BDF80800BDF80C1057
:104FD000884204D3BDF80C00ADF8000003E0BDF832
:104FE0000800ADF80000BDF80800BDF80E108842BA
:104FF00004D3BDF80E00ADF8020003E0BDF80800D0
:10500000ADF80200BDF80A00BDF80C10884204D3C8
:10501000BDF80C00ADF8040003E0BDF80A00ADF8DF
:105020000400BDF80A00BDF80E10884204D3BDF894
:105030000E00ADF8060003E0BDF80A00ADF806006A
:10504000BDF91000BDF9121088420CD1BDF8020064
:10505000BDF80010884203D20020ADF8020002E043
:105060000020ADF80000BDF91000BDF91410884211
:105070000CD1BDF80400BDF80010884203D2002016
:10508000ADF8040002E00020ADF80000BDF910000A
:10509000BDF9161088420CD1BDF80600BDF800100D
:1050A000884203D20020ADF8060002E00020ADF8EF
:1050B0000000BDF91200BDF9141088420CD1BDF8F2
:1050C0000400BDF80210884203D20020ADF80400AD
:1050D00002E00020ADF80200BDF91200BDF9161083
:1050E00088420CD1BDF80600BDF80210884203D2F8
:1050F0000020ADF8060002E00020ADF80200BDF986
:105100001400BDF9161088420CD1BDF80600BDF898
:105110000410884203D20020ADF8060002E000200F
:10512000ADF8040032480068BDF9101030F91100E4
:10513000ADF810002E480068BDF9121030F81100CB
:10514000ADF812002A480068BDF9141030F81100BB
:10515000ADF8140026480068BDF9161030F81100AB
:10516000ADF81600BDF80000BDF91010BDF8022022
:10517000BDF912305A4301FB0020BDF80410BDF9FF
:10518000142002FB0100BDF80610BDF9162002FB39
:1051900001000790BDF80000BDF8021011FA80F080
:1051A000BDF8041010FA81F0BDF8061010FA81F075
:1051B00006900798069990FBF1F08146484600B2A8
:1051C00009B0BDE8F08F00BF6E3D0000EA3A000074
:1051D0008A9700005CA800005E3E0000723D00005F
:1051E000A804FF1FA2A80000B804FF1FD804FF1FD7
:1051F0003C05FF1F2DE9F04F89B006000C00002789
:105200005FF00008DFF82409B0F9000036B28642EA
:1052100005DADFF81809B0F9000006000BE0DFF846
:105220001009B0F9000036B2B04204DADFF8000924
:10523000B0F90000060036B2DFF8F008B0F900005F
:10524000301AFEF77FFC82468B46DFF8E408B0F99F
:105250000000DFF8D818B1F90010401AFEF772FC10
:1052600002000B0050465946FEF71CFB82468B4657
:10527000DFF8C008B0F90000DFF8BC18B1F9001081
:10528000401AFEF75FFC52465B46FEF739FA82464B
:105290008B46DFF8A408B0F90000FEF753FC524635
:1052A0005B46FEF767FDFEF721FC0600DFF88C0881
:1052B000B0F9000024B2844205DADFF88008B0F9C2
:1052C000000004000BE0DFF87808B0F9000024B219
:1052D000A04204DADFF86808B0F90000040024B244
:1052E000DFF85808B0F90000201AFEF72BFC040084
:1052F0000D00DFF84C08B0F90000DFF84018B1F9F4
:105300000010401AFEF71EFC02000B0020002900CE
:10531000FEF7C8FA04000D00DFF81808B0F9000025
:10532000DFF81418B1F90010401AFEF70BFC220048
:105330002B00FEF7E5F904000D00DFF8FC07B0F9DB
:105340000000FEF7FFFB22002B00FEF713FDFEF727
:10535000CDFB0400DFF8EC07B0F9000036B2B04234
:1053600080F23A81DFF8DC07B0F90C0036B28642F1
:1053700080F23281DFF8CC07B0F9020036B2B042D9
:105380002BDB01200700DFF8C007B0F9000000EEBA
:10539000100AB8EEC00ADFF8AC07B0F9020036B266
:1053A000801B00EE900AF8EEE00ADFF89807B0F9EB
:1053B0000200DFF89017B1F90010401A01EE100A50
:1053C000B8EEC11AC0EE810A20EE200ABDEEC00A76
:1053D00010EE100AADF80C0019E1DFF86807B0F91B
:1053E000040036B2B0422BDB02200700DFF858077A
:1053F000B0F9000000EE100AB8EEC00ADFF844076A
:10540000B0F9040036B2801B00EE900AF8EEE00A14
:10541000DFF83007B0F90400DFF82817B1F90210FF
:10542000401A01EE100AB8EEC11AC0EE810A20EE51
:10543000200ABDEEC00A10EE100AADF80C00E6E03E
:10544000DFF80007B0F9060036B2B0422BDB0320CC
:105450000700DFF8F406B0F9000000EE100AB8EE1D
:10546000C00ADFF8E006B0F9060036B2801B00EE95
:10547000900AF8EEE00ADFF8CC06B0F90600DFF893
:10548000C416B1F90410401A01EE100AB8EEC11AA0
:10549000C0EE810A20EE200ABDEEC00A10EE100A0E
:1054A000ADF80C00B3E0DFF89C06B0F9080036B2A6
:1054B000B0422BDB04200700DFF88C06B0F90000B7
:1054C00000EE100AB8EEC00ADFF87806B0F908005E
:1054D00036B2801B00EE900AF8EEE00ADFF86406B0
:1054E000B0F90800DFF85C16B1F90610401A01EEB9
:1054F000100AB8EEC11AC0EE810A20EE200ABDEEF5
:10550000C00A10EE100AADF80C0080E0DFF8340697
:10551000B0F90A0036B2B0422BDB05200700DFF8F5
:105520002806B0F9000000EE100AB8EEC00ADFF855
:105530001406B0F90A0036B2801B00EE900AF8EEAD
:10554000E00ADFF80006B0F90A00DFF8F815B1F953
:105550000810401A01EE100AB8EEC11AC0EE810A16
:1055600020EE200ABDEEC00A10EE100AADF80C00C5
:105570004DE0DFF8D005B0F90C0036B2B04246DBA2
:1055800006200700DFF8C005B0F9000000EE100AA1
:10559000B8EEC00ADFF8AC05B0F90C0036B2801BDB
:1055A00000EE900AF8EEE00ADFF89805B0F90C007A
:1055B000DFF89015B1F90A10401A01EE100AB8EEA2
:1055C000C11AC0EE810A20EE200ABDEEC00A10EE1C
:1055D000100AADF80C001AE0DFF86805B0F9000019
:1055E00036B2B04207DB01200700DFF85C05008817
:1055F000ADF80C000BE0DFF84C05B0F9060036B250
:10560000B04204DB062007000020ADF80C00DFF8F4
:105610003805B0F90000BDF80C10401AADF80E00C6
:10562000DFF82805B0F9000024B2A04280F23081F2
:10563000DFF81805B0F90C0024B2844280F228810A
:10564000DFF80805B0F9020024B2A0422BDB0120EC
:105650008046DFF8F404B0F9000000EE100AB8EE5E
:10566000C00ADFF8E804B0F9020024B2001B00EE23
:10567000900AF8EEE00ADFF8D404B0F90200DFF88F
:10568000CC14B1F90010401A01EE100AB8EEC11A9C
:10569000C0EE810A20EE200ABDEEC00A10EE100A0C
:1056A000ADF808000CE1DFF8A404B0F9040024B25E
:1056B000A0422BDB02208046DFF88C04B0F900000A
:1056C00000EE100AB8EEC00ADFF88004B0F904005A
:1056D00024B2001B00EE900AF8EEE00ADFF86C043A
:1056E000B0F90400DFF86414B1F90210401A01EEB9
:1056F000100AB8EEC11AC0EE810A20EE200ABDEEF3
:10570000C00A10EE100AADF80800D9E0DFF83C043A
:10571000B0F9060024B2A0422BDB03208046DFF85C
:105720002804B0F9000000EE100AB8EEC00ADFF855
:105730001C04B0F9060024B2001B00EE900AF8EE3B
:10574000E00ADFF80804B0F90600DFF80014B1F948
:105750000410401A01EE100AB8EEC11AC0EE810A18
:1057600020EE200ABDEEC00A10EE100AADF80800C7
:10577000A6E0DFF8D803B0F9080024B2A0422BDB82
:1057800004208046DFF8C003B0F9000000EE100AE4
:10579000B8EEC00ADFF8B403B0F9080024B2001B69
:1057A00000EE900AF8EEE00ADFF8A003B0F9080076
:1057B000DFF89813B1F90610401A01EE100AB8EE9E
:1057C000C11AC0EE810A20EE200ABDEEC00A10EE1A
:1057D000100AADF8080073E0DC48B0F90A0024B202
:1057E000A04227DB05208046D748B0F9000000EE34
:1057F000100AB8EEC00AD548B0F90A0024B2001B5E
:1058000000EE900AF8EEE00AD048B0F90A00CF495D
:10581000B1F90810401A01EE100AB8EEC11AC0EE34
:10582000810A20EE200ABDEEC00A10EE100AADF883
:10583000080045E0C548B0F90C0024B2A0423FDBA7
:1058400006208046C048B0F9000000EE100AB8EE0D
:10585000C00ABE48B0F90C0024B2001B00EE900A4A
:10586000F8EEE00AB948B0F90C00B849B1F90A10ED
:10587000401A01EE100AB8EEC11AC0EE810A20EEFD
:10588000200ABDEEC00A10EE100AADF8080017E0BD
:10589000AE48B0F9000024B2A04206DB01208046E9
:1058A000A9480088ADF808000AE0A848B0F90C0043
:1058B00024B2844204DB062080460020ADF80800B4
:1058C000A148B0F90000BDF80810401AADF80A0070
:1058D0009F480E2117FB01000FFA88F810EB4800D3
:1058E00030F9100CADF8100099480E2117FB01009B
:1058F0000FFA88F810EB480030F9020CADF81200EE
:1059000093480E2117FB01000FFA88F810EB4800AE
:1059100030F90E0CADF814008D480E2117FB010074
:105920000FFA88F830F91800ADF81600BDF8080035
:10593000BDF80C10884204D3BDF80C00ADF800008F
:1059400003E0BDF80800ADF80000BDF80800BDF8A0
:105950000E10884204D3BDF80E00ADF8020003E03B
:10596000BDF80800ADF80200BDF80A00BDF80C1043
:10597000884204D3BDF80C00ADF8040003E0BDF884
:105980000A00ADF80400BDF80A00BDF80E10884208
:1059900004D3BDF80E00ADF8060003E0BDF80A0020
:1059A000ADF80600BDF91000BDF9121088420CD107
:1059B000BDF80200BDF80010884203D20020ADF807
:1059C000020002E00020ADF80000BDF91000BDF9B2
:1059D000141088420CD1BDF80400BDF800108842B4
:1059E00003D20020ADF8040002E00020ADF8000072
:1059F000BDF91000BDF9161088420CD1BDF80600A3
:105A0000BDF80010884203D20020ADF8060002E085
:105A10000020ADF80000BDF91200BDF91410884255
:105A20000CD1BDF80400BDF80210884203D200205A
:105A3000ADF8040002E00020ADF80200BDF912004C
:105A4000BDF9161088420CD1BDF80600BDF8021051
:105A5000884203D20020ADF8060002E00020ADF835
:105A60000200BDF91400BDF9161088420CD1BDF832
:105A70000600BDF80410884203D20020ADF80600ED
:105A800002E00020ADF8040032480068BDF91010B3
:105A900030F91100ADF810002E480068BDF9121061
:105AA00030F81100ADF812002A480068BDF9141052
:105AB00030F81100ADF8140026480068BDF9161042
:105AC00030F81100ADF81600BDF80000BDF9101057
:105AD000BDF80220BDF912305A4301FB0020BDF889
:105AE0000410BDF9142002FB0100BDF80610BDF939
:105AF000162002FB01000790BDF80000BDF802105F
:105B000011FA80F0BDF8041010FA81F0BDF806100B
:105B100010FA81F006900798069990FBF1F0814603
:105B2000484600B209B0BDE8F08F00BF7E340000E7
:105B3000BA16000016360000FE360000CE34000013
:105B4000963400001004FF1FA23800002004FF1F3D
:105B50004004FF1FA404FF1F80B540F2CE23322271
:105B60000321002000F042FD01BD80B500F0CCF81B
:105B7000DFF8E4060078002808D1DFF81408007880
:105B8000002803D00020DFF820180860DFF81C0888
:105B9000B0F90000002831D1DFF8140890F90000B6
:105BA00002282BD1DFF8B406B0F90010DFF8B006F8
:105BB000D0ED000ADFF8AC0690ED000ADFF8A80689
:105BC000007800F0CDF8DFF894160880DFF8900632
:105BD00090ED000ABDEEC00A10EE100ADFF8C817FB
:105BE000096888421FDADFF8780690ED000ABDEEFA
:105BF000C00ADFF8B40780ED000A14E0DFF8AC0754
:105C0000B0F9000000EE100AB8EEC00ADFF828076D
:105C1000D0ED000A20EE200ABDEEC00A10EE100AF8
:105C2000DFF838160880DFF83406B0F9000000EE1F
:105C3000100AB8EEC00ADFF82C06D0ED000AF4EE28
:105C4000400AF1EE10FA0AD5DFF8180690ED000AC6
:105C5000BDEEC00A10EE100ADFF800160880DFF86B
:105C6000FC05B0F9000000EE100AB8EEC00ADFF83B
:105C7000F405D0ED000AF1EE600AB4EE600AF1EE30
:105C800010FA0CD5DFF8DC0590ED000AB1EE400A01
:105C9000BDEEC00A10EE100ADFF8C0150880DFF86C
:105CA00014070078002803D10020DFF8B015088021
:105CB000DFF8A805008800F2CE20DFF8FC16088087
:105CC000DFF8F406B0F9000040F28321884205DADB
:105CD00040F28320DFF8E01608800CE0DFF8D806F9
:105CE000B0F9000040F21A31884204DB40F219306A
:105CF000DFF8C4160880DFF8C006B0F900200321E1
:105D0000002000F04AFD01BD80B5DFF8A406007850
:105D1000DFF8A816087000F017FA00F00FFBDFF8A4
:105D2000A0060078DFF89C160870DFF8940690F95A
:105D30000000022802D1FBF70BFA07E0DFF880062B
:105D400090F90000012801D1FBF790FB00F05EF90B
:105D500000F0A2F8DFF85416088000F039FA01BD0F
:105D600010B402009FED4B1A0020DFF83C361B6890
:105D7000002B46D1D2B2002A1BD0FDEEC11A11EE83
:105D8000903A1BB209B28B4213DAC0EE201ADFF848
:105D9000183693ED002AB8EEC22A61EEC21AB0EEB0
:105DA000611ADFF804361B685B1CDFF8FC452360D2
:105DB000E3E7D2B2002A1CD1FDEEC11A11EE903AEF
:105DC0001BB209B24C429C4213DAC0EE201ADFF833
:105DD000D83593ED002AB8EEC22A61EE821AB0EEF1
:105DE000611ADFF8C4351B685B1CDFF8BC45236013
:105DF000E2E7DFF8B4351B685B1CDFF8AC452360D5
:105E000045E0FDEEE01A11EE903A5BB2DFF89845FE
:105E10002468A3422BDBD2B2002A11D0C0EE201A94
:105E2000DFF8843593ED002AB8EEC22A61EE821ABB
:105E3000FDEEE11A11EE903A1BB25B4218000EE043
:105E4000C0EE201ADFF8603593ED002AB8EEC22AC2
:105E500061EE821AFDEEE11A11EE903A1800DFF8B9
:105E600048351B685B1CDFF8404523600FE0D2B269
:105E7000002A07D0FDEEC01A11EE903A1BB25B4229
:105E8000180004E0FDEEC01A11EE903A180000B2BE
