:10000000F8FF002011040000F5200000F52000009A
:10001000F5200000F5200000F5200000F52000008C
:10002000F5200000F5200000F5200000F52000007C
:10003000F5200000F5200000F5200000F52000006C
:10004000F5200000F5200000F5200000F52000005C
:10005000F5200000F5200000F5200000F52000004C
:10006000F5200000F5200000F5200000F52000003C
:10007000F5200000F5200000F5200000F52000002C
:10008000F5200000F5200000F5200000F52000001C
:10009000F5200000F5200000F5200000F52000000C
:1000A000F5200000F5200000F5200000F5200000FC
:1000B000F5200000F5200000F5200000F5200000EC
:1000C000F5200000F5200000F5200000F5200000DC
:1000D000F5200000F5200000F5200000F5200000CC
:1000E000F5200000F5200000F5200000F5200000BC
:1000F000F5200000F5200000F5200000F5200000AC
:10010000F5200000F5200000F5200000F52000009B
:10011000F5200000F5200000F5200000F52000008B
:10012000F5200000F5200000F5200000F52000007B
:10013000F5200000F5200000F5200000F52000006B
:10014000F5200000F5200000F5200000F52000005B
:10015000F5200000F5200000F5200000F52000004B
:10016000F5200000F5200000F5200000F52000003B
:10017000F5200000F5200000F5200000F52000002B
:10018000F5200000F5200000F5200000F52000001B
:10019000F5200000F5200000F52000003D2A0000B9
:1001A000F5200000F5200000F5200000F5200000FB
:1001B000F5200000F5200000F5200000F5200000EB
:1001C000F5200000F5200000F5200000F5200000DB
:1001D000F5200000F5200000F5200000F5200000CB
:10040000FFFFFFFFFFFFFFFFFFFFFFFFFEFFFFFFFD
:1004100062B602F0F3F9FEE7000000000000000001
:1004200000000000000000000000000000000000CC
:100430000000000000004E6F6E4D61736B61626CD6
:100440006500000000486172644661756C740000CC
:10045000000000004D656D4D616E6167656D656EF4
:100460007400004275734661756C740000000000F2
:10047000000055736167654661756C74000000008B
:10048000000000000000000000000000000000006C
:10049000000000000000000000000000000000005C
:1004A000000000000000000000000000000000004C
:1004B0000000000000000000000000000053564350
:1004C000616C6C0000000000000000004465627573
:1004D000674D6F6E69746F720000000000000000CD
:1004E0000000000000000000000050656E645356DC
:1004F0000000000000000000005379735469636B32
:100500000000000000000000444D413000000000E9
:1005100000000000000000444D41310000000000D8
:10052000000000000000444D4132000000000000C7
:100530000000000000444D413300000000000000B6
:1005400000000000444D41340000000000000000A5
:10055000000000444D413500000000000000000094
:100560000000444D41360000000000000000000083
:1005700000444D4137000000000000000000000072
:10058000444D41380000000000000000000000441D
:100590004D41390000000000000000000000444D03
:1005A00041313000000000000000000000444D41D7
:1005B000313100000000000000000000444D4131D6
:1005C0003200000000000000000000444D413133C3
:1005D00000000000000000000000444D41313400E4
:1005E000000000000000000000444D4131350000D3
:1005F0000000000000000000444D415F4572726F32
:10060000720000000000004D434D0000000000009B
:100610000000000000004654464C000000000000AE
:100620000000000000526561645F436F6C6C697389
:10063000696F6E004C56445F4C5657000000000036
:100640000000004C4C5700000000000000000000BB
:1006500000005761746368646F6700000000000069
:1006600000524E47000000000000000000000000A3
:100670004932433000000000000000000000004943
:100680003243310000000000000000000000535021
:1006900049300000000000000000000000535049F5
:1006A00031000000000000000000000053504932FB
:1006B000000000000000000000000043414E305FD9
:1006C0004F525F4D425F6275660043414E305F425C
:1006D00075735F4F666600000043414E305F4572A0
:1006E000726F72000000000043414E305F54785F2B
:1006F0005761726E696E6743414E305F52785F5743
:1007000061726E696E6743414E305F57616B655F22
:10071000557000000052657365727665643531006E
:100720000000000052657365727665643532000022
:1007300000000043414E315F4F525F4D425F627592
:10074000660043414E315F4275735F4F666600003D
:100750000043414E315F4572726F7200000000002D
:1007600043414E315F54785F5761726E696E6743E3
:10077000414E315F52785F5761726E696E674341D7
:100780004E315F57616B655F5570000000526573B5
:100790006572766564353900000000005265736546
:1007A00072766564363000000000005541525430C6
:1007B0005F52585F54580000000055415254305F5A
:1007C00045525200000000000055415254315F5222
:1007D000585F54580000000055415254315F455253
:1007E0005200000000000055415254325F52585FE1
:1007F00054580000000055415254325F4552520097
:10080000000000000055415254335F52585F545865
:100810000000000055415254335F45525200000021
:1008200000000055415254345F52585F5458000044
:10083000000055415254345F455252000000000000
:100840000055415254355F52585F54580000000023
:1008500055415254355F455252000000000000419E
:10086000444330000000000000000000000041444C
:1008700043310000000000000000000000434D5024
:10088000300000000000000000000000434D503127
:100890000000000000000000000000434D50320046
:1008A0000000000000000000000046544D30000031
:1008B00000000000000000000046544D3100000020
:1008C000000000000000000046544D32000000000F
:1008D00000000000000000434D5400000000000034
:1008E000000000000000525443000000000000001F
:1008F000000000000052657365727665643833004D
:1009000000000000504954300000000000000000CA
:1009100000000050495431000000000000000000B9
:1009200000005049543200000000000000000000A8
:100930000050495433000000000000000000000097
:10094000504442300000000000000000000000554C
:10095000534230000000000000000000000055532A
:1009600042444344000000000000000000454E45A2
:10097000545F313538385F54696D6572454E455462
:100980005F5472616E736D69740000454E45545F2B
:1009900052656365697665000000454E45545F45C4
:1009A00072726F7200000000004932533000000084
:1009B0000000000000000000534448430000000015
:1009C000000000000000004441433000000000002F
:1009D000000000000000444143310000000000001E
:1009E00000000000005453493000000000000000E7
:1009F000000000004D434700000000000000000020
:100A00000000004C5054696D657200000000000049
:100A10000000526573657276656431303200000003
:100A200000504F5254410000000000000000000040
:100A3000504F5254420000000000000000000050DF
:100A40004F52544300000000000000000000504FCF
:100A500052544400000000000000000000504F52BB
:100A6000544500000000000000000000526573655E
:100A7000727665643130380000000052657365722B
:100A80007665643130390000000052657365727616
:100A9000656431313000000000526573657276651F
:100AA000643131310000000052657365727665640F
:100AB0003131320000000052657365727665643131
:100AC0003133000000005265736572766564313120
:100AD000340000000052657365727665643131350B
:100AE000000000005265736572766564313136002E
:100AF000000000526573657276656431313700001D
:100B0000000052657365727665643131380000000B
:100B100000526573657276656431313900000000FA
:100B2000008003400090034000800B4000900B4089
:100B300000F00F4040F00F4080F00F40C0F00F4039
:100B400000F10F4066000A1D320007016400071023
:100B50006E000406780004088200040A8C00040C6D
:100B60009600040EA0000410AA000412B40004149D
:100B7000BE000416C8000418D200041ADC00041CCD
:100B8000E100041DE600041EEB00041FF40003173F
:100B9000FA000318130101062C01021400010908D0
:100BA0000090044000A0044000B0044000C0044095
:100BB00000D0044000A0064000B0064000C006403F
:100BC00000D0064000A00E4000B00E406B6C6D6E71
:100BD0006F40868788898A8B0100000050F8041BCB
:100BE00061B150F8042BD30744BFA9F101039A184F
:100BF000002342F8043B091FFAD1EFE770470000D9
:100C000010B50C001168012902D0022904D009E0B6
:100C100040B25168884705E0916808709068401CB0
:100C20009060FFE72068401C206010BD30B41C00BD
:100C3000002300250570401C002A19D009680029EE
:100C40000AD1302101705B1C180030BC7047303570
:100C500011000570401C5B1C0029F5D091FBF4F2DB
:100C600004FB1215002DF2D5E94311F13105EFE730
:100C70000968002908D1302101705B1CE4E7373591
:100C800011000570401C5B1C0029DDD0B1FBF4F2A3
:100C900004FB12150A2DF2D23035F1E7F8B52DED2F
:100CA000028B82B015000026040000202070641C16
:100CB00091ED008B53EC182B0020002100F0CCFAB2
:100CC00007D130202070761C300002B0BDEC028BC2
:100CD000F2BD00A8B0EE480AF0EE680A00F0CCFAC7
:100CE000B0EE408AF0EE608A002709E0280000F0AC
:100CF00023FB53EC182B00F035FB41EC180B7F1C49
:100D0000062FF3DB53EC182B0020DFF8441500F01E
:100D1000FBFB00F06DFC002705E03032080022707C
:100D2000641C761C7F1C062F09DA90FBF5F105FB8D
:100D30001102002AF1D5D04310F13102EEE72E2046
:100D40002070641C761CDDE9000100F051FC04E019
:100D5000303208002270641C761C0028B4D090FB4E
:100D6000F5F105FB1102002AF2D5D04310F1310252
:100D7000EFE7F8B504000D0016001F0005E03A008B
:100D800031003020FFF73CFF641CAC42F7DBF1BDC3
:100D9000F8B504000D0016001F0005E03A00310010
:100DA0002020FFF72DFF641CAC42F7DBF1BD2DE9DD
:100DB000F04F91B081461500002000900C0005E036
:100DC0004A4600A91800FFF71BFF641C94F9003085
:100DD000002B00F02A82252B12D00A2B05D04A4680
:100DE00000A91800FFF70CFF09E04A4600A90D20F2
:100DF000FFF706FF4A4600A90A20FFF701FFE4E7D4
:100E00000026002101E056F0010600291CD1641CD7
:100E100094F9000020280BD023280FD02B2804D0D1
:100E20002D28F0D0302806D00BE056F00206ECE773
:100E300056F00406E9E756F00806E6E756F0100615
:100E4000E3E7641E0121E0E75FF00008002104E011
:100E50000A2000FB0830B0F13008002909D1641CD9
:100E600094F90030180030380928F1D9641E0121A6
:100E7000F3E7641C94F900002E280CD10021FFE751
:100E8000002909D1641C94F9000030380928F7D9E9
:100E9000641E0121F4E7641E641C94F900004C28D0
:100EA00006D0682802D06C2801D002E002E001E000
:100EB00000E0641E641C94F900301800462877D0C6
:100EC000582800F0D380622800F02C81632800F0BD
:100ED0007781642816D066286AD0692812D06E28D7
:100EE00000F09E816F2800F01281702800F02581AB
:100EF000732800F06D81752800F02A81782800F0B1
:100F0000B5805DE7286803902D1D0A23012203A9FF
:100F100006A8FFF78BFE070006A838180290039872
:100F2000002803D55FF02D0A7F1C0DE0B00703D524
:100F30005FF02B0A7F1C07E0700703D55FF0200AE3
:100F40007F1C01E05FF0000A5FF0000B300711D555
:100F5000BAF1000F04D04A4600A95046FFF750FEF0
:100F60005FF0010B4B4600AA41463800FFF701FF36
:100F7000474611E0F0070FD44B4600AA414638001F
:100F8000FFF706FFBAF1000F04D04A4600A9504609
:100F9000FFF736FE5FF0010BBBF1000F07D1BAF18E
:100FA000000F04D04A4600A95046FFF729FEF9E099
:100FB000ED1D35F0070595ED000B8DED040B0835A3
:100FC0000A2204A906A8FFF769FE070006A8381838
:100FD0000290DDE904010022002300F02FFB03D280
:100FE0005FF02D0A7F1C0DE0B00703D55FF02B0AE0
:100FF0007F1C07E0700703D55FF0200A7F1C01E02B
:101000005FF0000A5FF0000B300711D5BAF1000F56
:1010100004D04A4600A95046FFF7F2FD5FF0010BED
:101020004B4600AA41463800FFF7A3FE474611E0B1
:10103000F0070FD44B4600AA41463800FFF7A8FE40
:10104000BAF1000F04D04A4600A95046FFF7D8FD78
:101050005FF0010BBBF1000F07D1BAF1000F04D014
:101060004A4600A95046FFF7CBFD9BE02868019057
:101070002D1D1023002201A906A8FFF7D7FD0700A8
:1010800006A8381802905FF0000B300715D5F0065F
:101090000BD54A4600A93020FFF7B2FD4A4600A909
:1010A0007820FFF7ADFD5FF0010B4B4600AA4146EB
:1010B0003800FFF75EFE474618E0F00716D4F0064A
:1010C00000D5BF1C4B4600AA41463800FFF760FE22
:1010D000F0060BD54A4600A93020FFF791FD4A469D
:1010E00000A97820FFF78CFD5FF0010BF0060DD50D
:1010F000BBF1000F0AD14A4600A93020FFF780FD5E
:101100004A4600A97820FFF77BFDBF1C4AE028680B
:1011100001902D1D0823002201A906A8FFF786FDD6
:1011200007001FE0286801902D1D0223002201A95D
:1011300006A8FFF77BFD070014E0286801902D1D2D
:101140001023002201A906A8FFF770FD070009E09F
:10115000286801902D1D0A23002201A906A8FFF787
:1011600065FD070006A838180290300707D54B46E2
:1011700000AA41463800FFF7FCFD474612E0F007A1
:1011800010D44B4600AA41463800FFF701FE09E0A3
:101190004A4600A9029890F90000FFF731FD029835
:1011A000401E0290029890F900000028F0D1F0074C
:1011B00005D54B4600AA41463800FFF7E9FD04E695
:1011C00095F900002D1D4A4600A9FFF719FDFCE521
:1011D000D5F800A02D1DBAF1000F20D0504600F028
:1011E00045FA0700F0070ED44B4600AA41463800E6
:1011F000FFF7CEFD07E04A4600A99AF90000FFF785
:10120000FFFC1AF1010A9AF900000028F3D1F00757
:1012100005D54B4600AA41463800FFF7B9FDD4E595
:1012200028682D1D00990160CFE5009811B0BDE838
:10123000F08F0EB400B584B00121009105490191F1
:1012400005AA010000A8FFF7B2FD04B05DF810FB8D
:101250000000E03F8D2C000090420CD141EA030CCD
:1012600050EA4C0C07D0994205D14FF4001C1CEBFE
:10127000410F38BF8942704710B5044651EC100B3E
:1012800000F006F82260636041EC100B10BD000016
:10129000C1F30A5C40F2FE32BCEB020CCCBFDCF1C5
:1012A000350237E0BCF115031ADA9B415B0543FABE
:1012B0000CF30B400022994319D0B1FA81FCACF138
:1012C0000B0C414000FA0CF0CCF1200C61FA0CF14F
:1012D0004140CCF1210CCCEB135C01EB0C5170477D
:1012E0006FF00002DA4020EA02020B469043F8B1A8
:1012F000B0FA80FC0CF1150C0021BCF11F0FE0D9F5
:10130000ACF120018840CCEB1351491E00EB015198
:1013100000207047BCF1350F03DA01F000430022D2
:1013200070470B4602464FF4001C1CEB430F02D8DB
:1013300003F0004100207047010040F10780F446AF
:10134000404200F003F851F00041604709D0B0FA84
:1013500080F18840C91CC1F58461090501EBD021E9
:1013600040057047B0B581EA030C0CF0004C40F228
:10137000FF7515EA11541DBF15EA1357AC42AF4271
:1013800039E0E41923EA455343F48013C90241F0DC
:10139000004141EA505EC7021100A7FB020200288B
:1013A0004FF00000EEFB01204FF00001E3FB0721AE
:1013B00018BF42F00102401800214941E3FB0E0131
:1013C000A4F580640F0302D252004041494154F118
:1013D00001046CDD470872F1004250F1000051EB4E
:1013E0000451A1F580115CBF41EA0C01B0BD4CEA8B
:1013F00005510020B0BD05EA1357AC4214BFAF42FF
:1014000041E050EA410E1CBF52EA430E02E0614641
:101410000020B0BD24423C441BD15FEA070EF6D049
:10142000090302BF01460020AEF1140EB1FA81F7A4
:10143000AEEB070401FA07FE0C37C7F1200100FAF2
:1014400007F7C8404EEA000E23EA455343F48013E1
:10145000A2E733F00043B3FA83F704BFB2FA82FE87
:1014600077440B3FE41BB7F1200E2FBF02FA0EF3B7
:10147000BB40C7F1200E22FA0EFE38BF43EA0E032E
:10148000BA40641C82E750EA410E14BF52EA430E90
:101490006FF000014FF4001717EB430F8ABF194696
:1014A00017EB410FB5E74CEA05510020B0BDD4F170
:1014B0000104B4F120070FDAC4F12007520828BF55
:1014C00042F0010210FA07F501FA07F7E1BF2A43DB
:1014D000E0403843E1400FE0352C98DCC7F12004B0
:1014E00052EA400220FA07F218BF42F0010231FA34
:1014F00007F0A1400A43002172F1004250F10000C0
:1015000051EB0C01B0BD000070B44FF0004591EA02
:10151000030C44BF6B4000F0C5B800BF841A71EBE8
:10152000030603D2001BB141121973414FF4001C92
:101530001CEB410F34BF7CEB430443E00C0DA4EBE8
:101540001356352E50DC45EAC323DB0A45EAC12198
:10155000C912B6F120050DDD63FA05F6EB4086EA07
:101560000305124218BF45F00105C01851F10001F2
:101570000CD213E062FA06F5F2405540F3415A40AE
:10158000B340F3405A408018594107D349085FEAF5
:1015900030005FEA350528BF45F0010501F58011EF
:1015A000420875F1004250F1000041EB045170BC5B
:1015B0004FF4001C1CEB410F38BF70470020090D91
:1015C000090570471CEB410F10D252EA43060BD0BD
:1015D000BCEB410F05D80C0DAB43661E342EB5DDB8
:1015E00002E0AB438018594170BC704770BC704733
:1015F000F446400D40EAC120490006D200F00EF842
:10160000004248BF6FF00040604700F007F84FF01D
:10161000004188428CBF08464042604740F000408D
:10162000490DA1F58061491C05D4D1F11F0154BFBA
:10163000C840C01770474FF0000070474FF4001CBF
:101640001CEB410F94BF1CEB430F09E041EA030C74
:1016500050EA4C0C52EA0C0C03D2994208BF90425B
:10166000704714BF8B4282427047000000F10103B3
:10167000810704D010F8011B89B18107FAD10268F3
:10168000B2F10131914311F0803F04BF50F8042FB3
:10169000F6E710F8011B11B110F8011BFBE7C01AA7
:1016A00070470000841A71EB030604D26E40001BE1
:1016B000B141121973414FF4001C1CEB410F34BFB0
:1016C0007CEB430684E00C0DA4EB1356362E7DDC38
:1016D000012E43DC45EAC32343EA525312BFD20230
:1016E00092025B08240545EAC12141EA5051D2EB40
:1016F000C020994125D407D1B0FA80F610FA06F13E
:1017000064D00020203608E0B1FA81F6B140C6F17D
:10171000200220FA02F21143B0404FEAF474B4EB15
:10172000465434F001064FEA74040AD8D6F5001680
:10173000760D04F00044F04061FA06F25040F140AA
:101740004840C00A40EA415021F0004128BF5FEA0A
:10175000500550F1000044EBD12137E045EAC323A6
:10176000DB0A45EAC121C90AB6F120050EDD42EACD
:101770000242120CC5F1200603FA06F6EB4042EADB
:1017800006056D42984161F100010DE062FA06F52F
:10179000F240554063FA06FC82EA0C02F3405A40DC
:1017A0006D42904161EB030111F4801F05D1641E6D
:1017B000620502D06D004041494121F48011430887
:1017C00075F1004350F1000041EB045170BC7047CB
:1017D0001CEB410F15D223F0004352EA43060BD015
:1017E0004FEA4C0CBCEB410F04D80C0D661E342E96
:1017F000B7DDEBE7801A994150EA410608BF0021A6
:10180000E4E708BF1CEB430F28BF6FF00001DDE7E2
:10181000DFF800F0750DFF1F40B2DFF8901331F8CC
:10182000201040B2401E152880F066810020DFF8AD
:101830008023107089B23D2904DA0020DFF870237C
:10184000507077E089B2792904DA0120DFF860234B
:1018500050706FE089B2B52904DA0220DFF8502316
:10186000507067E089B2F12904DA0320DFF84023E1
:1018700050705FE089B2B1F5967F04DC0420DFF898
:101880003023507056E089B2B1F5B47F04DC0520F6
:10189000DFF81C2350704DE089B2B1F5D27F04DC33
:1018A0000620DFF80C23507044E089B2B1F5F07FD8
:1018B00004DC0720DFF8F82250703BE089B2B1F574
:1018C000077F04DC0820DFF8E822507032E089B29C
:1018D000B1F5167F03DC0920B54A50702AE089B2C1
:1018E000B1F5257F03DC0A20B14A507022E089B2AD
:1018F000B1F5347F03DC0B20AD4A50701AE089B299
:10190000B1F5437F03DC0C20A94A507012E089B284
:10191000B1F5527F03DC0D20A54A50700AE089B270
:10192000B1F5617F03DC0E20A14A507002E00F2068
:101930009F4A507089B21A2903DA00209C4A90709D
:1019400069E089B2332903DA0120994A907062E094
:1019500089B24C2903DA0220954A90705BE089B283
:10196000652903DA0320924A907054E089B27E29F7
:1019700003DA04208E4A90704DE089B2972903DA89
:1019800005208B4A907046E089B2B02903DA062020
:10199000874A90703FE089B2C92903DA0720844A58
:1019A000907038E089B2E22903DA0820804A90700A
:1019B00031E089B2FB2903DA09207D4A90702AE0E0
:1019C00089B2B1F58A7F03DA0A20794A907022E061
:1019D00089B2B1F5967F03DC0B20754A90701AE04E
:1019E00089B2B1F5A37F03DA0C20714A907012E03E
:1019F00089B2B1F5AF7F03DC0D206D4A90700AE02B
:101A000089B2B1F5BC7F03DA0E20694A907002E01A
:101A10000F20674A907089B21A2903DA00206449BE
:101A2000C87069E089B2332903DA01206049C870BF
:101A300062E089B24C2903DA02205D49C8705BE09C
:101A400089B2652903DA03205949C87054E089B284
:101A50007E2903DA04205649C8704DE089B29729DF
:101A600003DA05205249C87046E089B2B02903DA8A
:101A700006204F49C8703FE089B2C92903DA072020
:101A80004B49C87038E089B2E22903DA0820484996
:101A9000C87031E089B2FB2903DA09204449C870D3
:101AA0002AE089B2B1F58A7F03DA0A204049C8707A
:101AB00022E089B2B1F5967F03DC0B203C49C87067
:101AC0001AE089B2B1F5A37F03DA0C203849C87057
:101AD00012E089B2B1F5AF7F03DC0D203449C87044
:101AE0000AE089B2B1F5BC7F03DA0E203049C87034
:101AF00002E00F202E49C870704710B50400200086
:101B000040B2FFF789FE2B48007810F0FD0029490C
:101B100008702848007850F0100026490870B82056
:101B20002549087025480078C006FBD42348007872
:101B3000C0F38100C0B20228F8D11D48C3781C4808
:101B400082781B4841781A480078FFF761FE64B23A
:101B5000164810EB8400807810F0070018490870D0
:101B600064B2124810EB8400C07810F01F0050F0EF
:101B7000400014490870114800788006FBD50F48D2
:101B800000784006FBD50C48007810F03F000A4969
:101B900008700A480078C0F38100C0B20328F8D169
:101BA00064B2024830F82400C0B210BD3C0BFF1FE5
:101BB000940BFF1F014006400040064006400640CF
:101BC000044006400540064080B540B2002806D0DB
:101BD000022867D04BD3032800F07F80C4E0DFF8F1
:101BE0006403006850F08070DFF85823106049B239
:101BF00000290BD0022915D00ED304291ED017D3EB
:101C0000062927D020D307292AD02FE04FF480615E
:101C1000412000F0A3F9A7E04FF48061422000F0DA
:101C20009DF9F8E74FF48061432000F097F9F2E75F
:101C30004FF48061442000F091F9ECE74FF48061AB
:101C4000642000F08BF9E6E74FF48061652000F036
:101C500085F9E0E74FF48061662000F07FF9DAE76C
:101C60004FF48061672000F079F9D4E77CE0DFF879
:101C7000D402006850F00070DFF8C822106049B24A
:101C8000002902D0012906D00BE04FF44071082052
:101C900000F064F968E04FF44071092000F05EF94B
:101CA000F8E761E0DFF8A002006850F08070DFF82C
:101CB0009822106049B2002902D0012906D00BE019
:101CC0004FF440710A2000F049F94DE04FF44071A3
:101CD0000B2000F043F9F8E746E0DFF86C020068FB
:101CE00050F00070DFF86022106049B200290BD07C
:101CF000022915D00ED304291ED017D3062927D0C8
:101D000020D307292AD02EE04FF4C061852000F0AF
:101D100025F928E04FF4C061862000F01FF922E089
:101D20004FF4C061872000F019F91CE04FF4C06146
:101D3000882000F013F916E04FF4C061892000F00C
:101D40000DF910E04FF44071492000F007F90AE066
:101D50004FF4C0618B2000F001F904E04FF4C06142
:101D60008C2000F0FBF8FFE701BD2DE9F0470400EF
:101D70000D0016001F0064B2002C11D064B2012CBB
:101D800002D064B2022C02D16DB2022D08DB64B223
:101D9000032C05D040F28511DFF8B00100F04BF9BB
:101DA000290049B2200040B2FFF70EFFDFF8A00182
:101DB00000684FF47A7101FB00F95FEA1940B0FB4B
:101DC000F6F05FF0000A01E01AF1010A80B250FA61
:101DD0000AF10129F8DA5FFA8AFABAF1080F05DB8D
:101DE0004FF4D071DFF8640100F025F939FA0AF0F8
:101DF000B0FBF6F080B264B2DFF8581141F824006D
:101E000064B2002C05D0022C15D00BD3032C1BD0B0
:101E100023E080B2411C01FB07F14FF47A72B1FB61
:101E2000F2F81AE080B2411C01FB07F14FF47A721C
:101E3000B1FBF2F811E080B2411C01FB07F14FF455
:101E40007A72B1FBF2F808E080B2411C01FB07F1A5
:101E500042F21072B1FBF2F8FFE76DB264B2DFF844
:101E6000F81051F8241011EBC5016DB264B2DFF81F
:101E7000E82052F8242012EBC502D26832F00402A6
:101E8000CA606DB264B2DFF8D01051F8241011EBC3
:101E9000C5012822CA605FFA8AFA1AF0070151F0D8
:101EA000080164B2DFF8B02052F82420116080B23B
:101EB00064B2DFF8A41051F824108860002064B2E6
:101EC000DFF8941051F82410C8646DB264B2DFF8E2
:101ED000880050F8240010EBC5001FFA88F8C0F8FD
:101EE0001080002064B2DFF8701051F824104860B0
:101EF000BDE8F08710B5040064B2012C07D064B2CD
:101F0000022C04D04FF44C71104800F094F864B2E5
:101F1000114850F82400406800B210BD10B504000C
:101F200064B2012C07D064B2022C04D040F23E31DE
:101F3000064800F080F8002064B2074951F82410E8
:101F4000486010BD3C80044030800440642B000099
:101F5000100EFF1FC00DFF1F180BFF1F10B4294AE2
:101F600012684FF40073C0B24409A3401A43254BD2
:101F70001A60C0B24211244B53F82220012310F002
:101F80001F04A340C2F8A030C0B210F01F02C0B2BC
:101F900040111D4B53F8200040F8221010BC704730
:101FA00010B4184A12684FF40073C0B24409A34039
:101FB0001A43144B1A60C0B24211134B53F822203B
:101FC000012310F01F04A340C2F8A03031F4E061F7
:101FD000C0B210F01F02C0B243110B4C54F82330B2
:101FE00053F8222012F4E0621143C0B210F01F0235
:101FF000C0B24011044B53F8200040F8221010BC2E
:102000007047000038800440980BFF1FDFF800F095
:10201000050CFF1FDFF800F0290CFF1FBFF34F8FE7
:102020004148006810F4E060404908433E490860B8
:10203000BFF34F8FFEE738B504000D00002000F01D
:1020400083F82A0021003A48FFF7F3F8002000F057
:1020500097F84FF47A7000F0CAF8F2E710B5002450
:10206000042000F0DBF8042000F00CF9002840D137
:10207000002000F069F80CE02E48FFF7DAF8FFF7CF
:10208000C5FF642000F0B3F80020FFF7C3FFFFF79F
:10209000C5FF042000F0F6F8012800D1012400203B
:1020A00000F06EF82448FFF7C4F84FF4FA7000F01F
:1020B0009EF8E4B2012CECD1042000F0E3F80028F3
:1020C000E7D105E0002000F05BF8642000F08FF815
:1020D000042000F0D7F80028F4D0042000F0D2F853
:1020E0000128C9D1002000F04BF8322000F07FF821
:1020F000F3E710BD10B511480468012000F024F882
:10210000012000F03DF8E4B20F200D4900FB04125D
:10211000E4B221000B48FFF78CF84FF47A7000F01E
:1021200066F8EDE7000000000CED00E00400FA05A1
:102130001C2B0000002C0000782C000004ED00E0B7
:102140001004FF1F902A000010B5040064B2042C94
:1021500007DA0122012164B21648205C00F0AAF8D7
:102160000DE0042406E00122012164B21148205C44
:1021700000F0A0F82000441E40B20028F3D110BDAA
:1021800010B5040064B2042C05DA64B20948205C7E
:1021900000F0E7F80BE0042404E064B20548205C9A
:1021A00000F0DFF82000441E40B20028F5D110BD39
:1021B00000000000CC0BFF1F10B50400002C15D050
:1021C000B4F1807F03D329210F48FFF734FF0020AB
:1021D0000E4908600E48046000200E490860052082
:1021E0000A49086009480068C003FBD510BD10B556
:1021F000040003E008480068FFF7DEFF2000441EEB
:102200000028F7D110BD0000CC2A000010E000E04B
:1022100014E000E018E000E0080EFF1F10B5040015
:1022200064B2082C0DDA0022002164B22048205C40
:1022300000F040F8032164B21D48205CFFF7B0FEB7
:1022400013E008240CE00022002164B21848205C4E
:1022500000F030F8032164B21548205CFFF7A0FEBF
:102260002000441E40B20028EDD110BD80B540B220
:102270000F49405C00F091F8002801D1002000E0F7
:10228000012002BD10B50400200040B2FFF7EEFFB0
:1022900000280AD10A20FFF7AAFF200040B2FFF76A
:1022A000E5FF002801D1002000E0012010BD000062
:1022B000C40BFF1F70B504000E0015004FF48071B1
:1022C0002000C0B2FFF74AFE76B2002E11D1E4B270
:1022D0006011414951F82000E4B261113E4A52F8C0
:1022E00021104969012214F01F039A409143416172
:1022F00036E0E4B26011384951F82000E4B26111CF
:10230000354A52F821104969012214F01F039A40FE
:1023100011434161EDB2002D11D1E4B260112E499B
:1023200051F820000068012114F01F0291408843F9
:10233000E4B26111284A52F82110086010E0E4B2BA
:102340006011254951F820000068012114F01F0296
:1023500091400843E4B261111F4A52F8211008600D
:1023600070BD10B50400E4B260111B4951F82000A3
:10237000406914F01F01C840C00703D47B211748EF
:10238000FFF759FEE4B26011134951F82000012112
:1023900014F01F029140C16010BD10B50400E4B2FA
:1023A00060110D4951F82000406914F01F01C84028
:1023B000C00703D58C210948FFF73DFEE4B2601148
:1023C000054951F82000006914F01F01C84010F0C1
:1023D000010010BD00000000280BFF1F882B00002B
:1023E00070B504000D0064B2002C08D0022C2CD073
:1023F00018D3042C4FD03BD3052C5FD071E0DFF80D
:10240000F801006850F48060DFF8EC1108604FF4C8
:1024100040710F20FFF7A2FD4FF440710E20FFF72F
:102420009DFD5EE0DFF8D001006850F40060DFF849
:10243000C81108604FF440714320FFF78FFD4FF43F
:1024400040714420FFF78AFD4BE0DFF8AC010068E3
:1024500050F48050DFF8A01108604FF44071632001
:10246000FFF77CFD4FF440716220FFF777FD38E005
:10247000DFF88401006850F40050DFF87C11086038
:102480004FF440715020FFF769FD4FF44071512027
:10249000FFF764FD25E0DFF86401006850F4806018
:1024A000DFF8581108604FF440719920FFF756FD8E
:1024B0004FF440719820FFF751FD12E0DFF83C0126
:1024C000006850F40060DFF8341108604FF4407188
:1024D0008920FFF743FD4FF440718820FFF73EFD50
:1024E000FFE764B2DFF8180150F82400C07810F05C
:1024F000F30064B2DFF8081151F82410C87064B218
:10250000DFF8FC0050F82400807864B23C4951F8B0
:102510002410887064B2002C02D064B2012C05D162
:10252000384800684FF47A71484304E03648006840
:102530004FF47A7148432901B0FBF1F6B6B2B6F513
:10254000005F01DB41F6FF76B0FBF5F0B6B2B0EB11
:102550000615ADB2202D03DBDC212C48FFF76BFD07
:1025600064B2274850F82400007810F0E000B6B2BA
:10257000310A11F01F01084364B2214951F82410B7
:10258000087064B21E4850F82400467064B21C48BB
:1025900050F82400807A10F0E00015F01F01084385
:1025A00064B2174951F82410887264B2144850F884
:1025B0002400007C50F0880064B2114951F82410C6
:1025C000087464B20E4850F82400C07850F00C0033
:1025D00064B20B4951F82410C87070BD40B2084A6B
:1025E00052F8202012791206F8D540B2044A52F867
:1025F0002000C171704700003480044028800440EE
:10260000AC0BFF1F080EFF1F100EFF1FAC2B0000AE
:10261000DFF800F037200000DFF800F0EF210000C5
:10262000F02054490870534800780006FBD5514803
:1026300000787121084201D0002000E0012070479D
:1026400080B54D48006850F400204B490860494867
:1026500000780006FBD5F020464908700A20FFF7F5
:10266000DBFF01BD10B582B00400A4B24FF480506E
:1026700000FB04F000900920404908709DF802001A
:102680003F4908709DF801003E4908709DF8000020
:102690003D490870FFF7C4FF002801D100200EE07B
:1026A000A4B2002C0AD15FF0FF327FF001034FF497
:1026B0008161200080B200F003F800E0012016BD27
:1026C00070B582B00E0014001D0080B24FF480512E
:1026D000B6B201FB00600090B6B2082096FBF0F1A4
:1026E00001FB1061002903D0EA212848FFF790FF81
:1026F000B6B2B6F5805F03DDEC212448FFF788FF12
:102700009DF802001E4908709DF801001D490870DF
:102710009DF800001C49087000949DF803001C49B6
:1027200008709DF802001B4908709DF801001A49C5
:1027300008709DF800001949087007200F490870BB
:1027400000959DF80300164908709DF80200154990
:1027500008709DF80100144908709DF800001349A5
:102760000870FFF75DFF002801D1002000E0012084
:1027700076BD00000000024004F001400700024066
:10278000060002400500024004000240402B000009
:102790000B0002400A00024009000240080002400B
:1027A0000F0002400E0002400D0002400C000240EB
:1027B00070B4104C24680F4D2D6855F47F050D4EF4
:1027C0003560090611F0706151EA0070110511F4CD
:1027D00070010843190411F4702108430649086088
:1027E000002000E0401CC0B29842FBD301480460C6
:1027F00070BC704700F001404480044080B500F098
:102800008BF800F030F800F010F8FFF727FC0122F9
:1028100001210420FFF74EFD3048006850F470009D
:102820002E49086000F098F8FEE780B50C20FFF70D
:1028300064F92B4908602A4800684FF47A714843CC
:10284000284908602748006827490968C1F30361DF
:10285000491CB0FBF1F0254908605FF4E131042028
:10286000FFF7BEFD01BD80B52148224988420BD04B
:10287000002006E01F4951F820101D4A42F82010A0
:10288000401CB0F5826FF5D3194800F085F81A495D
:102890001A4A1B48801A03E013780B70521C491C1B
:1028A0000300581E002BF7D116491748401A02E0C2
:1028B00000220A70491C0200501E002AF8D1134958
:1028C000134A1448801A03E013780B70521C491CF9
:1028D0000300581E002BF7D101BD000088ED00E079
:1028E0000C0EFF1F080EFF1F44800440100EFF1F38
:1028F0000000FF1F000000001004FF1F180400006C
:10290000DC0B0000C00DFF1F180EFF1FD40BFF1FB4
:1029100010260000FC27000080B500F008F80C48E5
:1029200000884FF6FE7108400949088001BDEFF3A9
:10293000118072B64CF22051064A11804DF62811D2
:10294000044A1180C0B2002800D162B6704700006E
:10295000002005400E20054080B54FF4967342F2EA
:10296000107203210020FFF700FA002342F21072D8
:1029700002210020FFF7F9F94FF4967342F210722A
:1029800001210020FFF7F1F9002342F2107200212B
:102990000020FFF7EAF901BD10B504004FF4007004
:1029A00094FBF0F101FB1041002903D01E210348E4
:1029B000FFF741FB0248046010BD0000E02B00005F
:1029C00008ED00E0012110F01F02914040B24009E3
:1029D000144A42F82010704780B5154890F900005D
:1029E000042818D10320124908705720FFF7EAFF86
:1029F0004FF400600F4908600C48006850F0010077
:102A00000A4908604FF400600A49086006480068F7
:102A10000949086005E05720FFF7D4FF0220044968
:102A2000087001BD80E100E0140EFF1F0C80004023
:102A3000D00BFF1FA09004401090004080B50020F4
:102A4000DFF8441009685FF0FF32DFF83C301A60AD
:102A50001D22100031FA00F0C00714D5FFF7BCFFAB
:102A60000220FFF747FA4042DFF8201008800120DB
:102A7000FFF740FADFF8141048800120FFF74EFA04
:102A80000220FFF74BFA01BDA0900440D00DFF1FBC
:102A90000A2A2A2A2A64656661756C745F697372F2
:102AA00020656E7465726564206F6E207665637450
:102AB0006F722025642A2A2A2A2A0A0A25732049A5
:102AC0006E7465727275707400000000413A5C6447
:102AD0006F75626C655C666C795C436869705C7389
:102AE00072635C4D4B36305F5379735469636B2E60
:102AF0006300000010B5074979441831064C7C4446
:102B0000163404E00A68081D511888470146A1429E
:102B1000F8D110BDBC000000C8000000417373650F
:102B20007274696F6E206661696C656420696E20DD
:102B30002573206174206C696E652025640A00008D
:102B4000413A5C646F75626C655C666C795C436885
:102B500069705C7372635C4D4B36305F666C617399
:102B6000682E6300413A5C646F75626C655C666CEC
:102B7000795C436869705C7372635C4D4B36305F9F
:102B800066746D2E63000000413A5C646F75626C80
:102B9000655C666C795C436869705C7372635C4DFC
:102BA0004B36305F6770696F2E630000413A5C649A
:102BB0006F75626C655C666C795C436869705C73A8
:102BC00072635C4D4B36305F756172742E6300002A
:102BD0000DE0FFFF58000000C00DFF1F00000000C7
:102BE000413A5C646F75626C655C666C795C4368E5
:102BF00069705C7372635C6D6973632E63000000BF
:102C00000ABDF8D0D0BDE2CBF8B2D9D7F7A3ACC794
:102C1000EBD6D8D0C2CBA2C8EBB9CCBCFE0000002A
:102C20004EF68851CEF20001086840F4700008604A
:102C30004FF00070E1EE100A7047000000F00BF852
:102C4000002801D0FFF756FF0020C046C046FFF71E
:102C500083FE00F002F80120704700F001B8000088
:102C60000746384600F002F8FBE70000014918204B
:102C7000ABBEFBE7260002000ABDF8C8EBCBC0D113
:102C8000ADBBB7B5C8B4FDA3A100000080B501007D
:102C900049B20420FFF7A2FC01BDC046C046FFF7C1
:062CA000BFFFFFF7CBFFB0
:0400000500002C9B30
:00000001FF
